:040000000C946300F9
:100004000C943B010C9487010C9400000C9459014E
:100014000C9400000C9400000C9400000C9400005C
:100024000C9400000C9400000C9400000C9400004C
:100034000C9400000C9400000C9400000C9400003C
:100044000C9400000C9400000C9400000C9400002C
:100054001027E80364000A000100001000011000EA
:1000640001000000E803253032643A253032643A56
:10007400253032642C253032640043453A46554CD1
:100084004C0043453A2534640025336455533030DD
:10009400002533644D532532640080C001002D4E89
:1000A400414E00494E460000010005006600020072
:1000B400640168000200CA019E000100CE01A00094
:1000C4000000F894EE27ECBBF1E0FBBFEBBFE5BF0B
:1000D4008DE0A2E0BB27ED938A95E9F780E094E0F8
:1000E400A0E6ED930197E9F7ECEAF0E085919591AC
:1000F400009761F0A591B59105901590BF01F001AD
:1001040005900D920197E1F7FB01F0CFEFE5EDBF0C
:10011400E4E0EEBFC0E6D1E00C94900019EF43D0C8
:100124000E94DE000E9462017894E9B31E1721F058
:1001340019B3A12F0E94BA01F8CFFFCFE0E0EABBC8
:10014400EBBBE7BBE8BBEFEFE4BBE0E0E5BBE0EF14
:10015400E1BBEFE0E2BB0895E0E5EFBDE9E0EEBD11
:10016400E0E0EDBDECBDE7BDE6BDECE9EBBDEFE3E2
:10017400EABDE0E0E9BDE8BD0895E0E0E2BDE3E00A
:10018400E5BDE6E0E4BDE0E0E3BD0895E0E4E9BFF9
:100194000895EBB7E06CEBBFEAE0E5BFE0E0E4BF55
:1001A400E0ECEABF0895CADFD7DFE7DFEFDFF1DF76
:1001B400A0E10E94A30208950E949204EAE6F0E0FE
:1001C4000E949C040E94A6040E94AE040E94B604ED
:1001D40080E10E944504649694C0A0916301A33613
:1001E400A9F5A0916201AB3321F5A0916101AB3374
:1001F40099F4E0916001F0E03196DF01E8E1F0E08C
:100204000E94D305E09360010E949204E9E7F0E0C4
:100214000E949C040E94BE04E09161010E94C604F5
:10022400E0936101E5E00E94CE040E94A6040E94CE
:10023400BE04E09162010E94C604E0936201E8E01A
:100244000E94CE040E94AE040E94BE04E0916301A9
:10025400F0E03196DF01E4E6F0E00E94D305E0939C
:100264006301EBE00E94CE040E94B6040E94DB040A
:1002740048C00E94E004B49903C0E2E05E2E16C0B8
:10028400B59914C0E2E0E51519F4E1E05E2E0EC064
:10029400E1E0E51559F45524E0E0E0936301E093CF
:1002A4006201E0936101E093600186DF53C00E9424
:1002B400E004E6E0E4BDE2E0E51509F48EDF4AC0BF
:1002C400E0E0EA93A1E0FED00E94EE04309759F4F6
:1002D4000E94F304EEE7F0E0FA93EA9380E00E94D0
:1002E400450424960EC00E94F304E6E8F0E0FA9375
:1002F400EA930E94EE040E946C050E940B060E9481
:10030400DB04A6E6B1E00CD108950E94E004B299A2
:100314000FC0A0916401B09165010E9410063CF4E5
:100324000E94EE043197E0936401F093650111C0DB
:10033400B3990FC0A0916401B0916501A83EE3E0B8
:10034400BE073CF40E94EE043196E0936401F093FE
:100354006501B6DFE991EFBFF991E991B991A991EE
:100364009991899179916991F990199009901895C9
:10037400AA936097E889A8E2EA9FF00131960E9467
:100384006C050E940606E8E0EA93A1E09BD00E9477
:100394000106A83EE3E0BE07E0E08E07E0E09E072A
:1003A4007CF40E94F304EDE8F0E0FA93EA93EC8124
:1003B400FD816E817F810E940B060E94DB0444C094
:1003C4000E9401060E94F804A8EEB3E080E090E0E9
:1003D4000E949105E887F9876A877B87A885B98594
:1003E4008A859B850E94FF040E944A05EC83FD8355
:1003F4006E837F83A4E6B0E080E090E00E949105E4
:10040400DF01CB01E885F9856A857B850E94CE05ED
:10041400EC87FD876E877F870E94F304E5E9F0E0AF
:10042400FA93EA93AC81BD818E819F810E94F80486
:100434000E940B06EC89FD896E897F890E940B0658
:1004440088E00E9445042C96A6E6B1E069D00E949B
:10045400FF040E9467050E9467050E9406060E9429
:10046400FF04E150F04060407040DF01CB01E8E060
:100474000E945B05EBBDE9BDE881E150EABDE8BD42
:1004840061960895AA93E5B3EF70AE2FE881E07FFB
:10049400EA2BE5BB8DE08A95F1F7AA9A8DE08A955F
:1004A400F1F7AA988DE08A95F1F777C0AA93A8810D
:1004B400E9DFE881E295E883A881E4DF85E88A95AD
:1004C400F1F76BC0AA93E881F0E0E653FE4FE081B8
:1004D400A981AE0FEBDF4980788022960895A2E0CF
:1004E4000E940205ACE0E2DFA1E00E940205E0E028
:1004F4007E2E4E2E0895AA93A881AA3011F0461498
:1005040048F0E0E0EA937394A72DDCDFA881AA30D9
:1005140009F443C04394A89AA881C8DFA8983DC0B1
:10052400BA93AA931A93A981BA81ED91A983BA8344
:100534001E2FE03019F0A12FDEDFF5CF18812396AE
:100544000895AA93E4B3E06FE4BBA29AA09AA19A97
:10055400AA98A898A9986880E881E058E093CC010B
:10056400E881E054E093CD01A4E1B0E00E943C05B1
:100574000E9408050E9408050E940805A0E282DF87
:1005840088EC90E00197F1F7A8E290DFA4E08EDF19
:10059400A5E88CDFA6E08ADFA2DF21960895BA934E
:1005A400AA931A930A93AA81BB8112960E94F40516
:1005B400309759F1AA81BB8114960E94F4058F01EA
:1005C400309761F00230E0E01E0798F0F8013197AF
:1005D4008F01AA81BB811496ED93FC93AA81BB8100
:1005E4001296ED91FD913196FE93EE933197AC8185
:1005F400A083AA81BB810E94F405FF232AF0ED9118
:10060400FD913196FE93EE9306C0AA81BB81EFEF74
:10061400FFEFED93FC931981088125960895BA9311
:10062400AA9326970E94140610E0AC85BD85E0E0ED
:10063400F0E0ED93FC93EA89FB893196EA8BFB8B1E
:100644003197E4912E2FE03009F415C1E12FE03009
:1006540039F4253211F411E002C00E9410050AC1D8
:10066400E130A9F4253219F40E94100502C112E008
:1006740040E000E02D3211F401E0FCC02B3211F413
:100684004BE2F8C0203211F440E2F4C002C0E23080
:1006940039F450E013E0203311F40068EBC003C0D8
:1006A400E33009F0E7C0203310F02A3308F007C024
:1006B400AAE05A9F502DE22FE0535E0FDBC0E22FD9
:1006C400E33649F40E941705E889F989A481AA93BD
:1006D4000E941D05CEC0E33741F40E9417050E9415
:1006E40023050E9479041E2F0AC0E03761F40E949A
:1006F40017050E9423050E9485041E2F08600260CE
:100704000F7730E034C0E43611F0E93611F40460B8
:1007140002C0E53731F4E4E5F0E0EE83FF8315E051
:100724000CC0E83511F4086003C0E83709F0A1C033
:10073400EEE5F0E0EE83FF8314E002FF14C00E94B4
:1007440017050E942D05AB85AA233AF4EA85FB859B
:100754000E944F05EA87FB874DE2403011F01F5F8E
:1007640001C00B7F04C00E9417050E942D0500FDE7
:1007740011C0151778F407FF08C002FF04C00B7FEF
:10078400242F115001C020E301C020E20E94100573
:100794005150EFCF312F01FF17C03030A1F003FFCC
:1007A40006C0EE81FF812591EE83FF8305C0AE81F3
:1007B400BF812D91AE83BF830E941005503009F094
:1007C40051503150EACF4BC020E3EE81FF810E94AB
:1007D400F805E887F987EE81FF813296EE83FF837F
:1007E400E885F985AA85BB85AE17BF0750F02F5F52
:1007F400A885B985EA85FB85EA1BFB0BEA87FB879D
:10080400EFCF2A3328F003FF02C0295F01C0295D1E
:1008140004FD1AC0213320F4A885B985119709F481
:1008240009C0531710F000FF01C013C020E207FFF6
:100834000BC020E3006102FF07C00B7F4A930E94B4
:100844001D05503009F051500E941005503009F038
:1008540051503150A885B985129708F0B5CF00FFE3
:1008640008C0503031F05150E0E2EA930E941D0577
:10087400F8CF10E0E0CEAC85BD850E94F4050E945F
:100884001B0664960895FF92F82E26970E9416067A
:100894000E943505309719F4EFEFFFEF23C0DE0116
:1008A40016960E9446058D010E943505EE83FF834E
:1008B400E0E0E887E987DE011A960E9446050E9477
:1008C400F405FA93EA931A930A93E1EDF2E0FA93AA
:1008D400EA93DE011A96A3DE9F01AE81BF81E0E0B8
:1008E400EC93F9010E941D062A96FF900895BA938D
:1008F400AA93A991B991EE27FF276D91662311F070
:100904003196FBCF0895BA93AA93AA27BB27E991FE
:10091400F9910590002011F01196FBCFFD01089587
:10092400E2E0EA93A0E00E946402E6E6F1E0FA93D2
:10093400EA930895FA93EA93E0916001FF2766270A
:1009440077270E940B060895E0916101FF2766272F
:1009540077270E940B060895E0916201FF2766271E
:1009640077270E940B060895E0916301FF2766270D
:1009740077270E940B06089584E00E944504289678
:10098400A6E6B1E00C949202F0E03196DF01ECE3CC
:10099400F0E00E94D3050895EA93A0E00E94640267
:1009A400E6E6F1E0FA93EA93E9E7F0E0FA93EA93F2
:1009B400089584E00E944504289608950A921A92A4
:1009C400FA926A937A938A939A93AA93BA93EA933C
:1009D400FA93EFB7EA930895E0916401F091650109
:1009E4000895E6E6F1E0FA93EA930895E8EEF3E079
:1009F40060E070E00E94CE0508950E94FC05089511
:100A04000E945802A3E0B0E00C943C05A0E30E94CD
:100A1400440288EC90E00197F1F708952A93AD859C
:100A2400BE85EF85F88909950895E889F989349791
:100A3400E88BF98B0895AD85BE85EF85F889099516
:100A44000895A889B98914960E94F405EE83FF835A
:100A5400AE81BF810895A889B98914960E94F405CE
:100A6400EA87FB870895DE011C960E9446050E94D2
:100A7400F4050895109639F080ED97E00197F1F7A9
:100A8400A8951197C9F708950024AF0DB01D0895D6
:100A9400EA1BFB0B680B790B0895F195E195F04087
:100AA4000895F09560957095E195FF4F6F4F7F4FD6
:100AB4000895EE230E2EFD01BC0131F07595679566
:100AC400F795E7950A94D1F70895EE0FFF1F661F77
:100AD400771F08956F2F660F660B762F08957A9F00
:100AE400702D6B9F700DF89F700DE99F700D6A9FBC
:100AF400602D710DFB9F600D711DE89F600D711DD0
:100B04008827FA9FF02D610D781FEB9FF00D611D72
:100B1400781FEA9FE02DF10D681F781F08954FD0CC
:100B2400DEDF0EF4BEDF08950024112490E1AA0F45
:100B3400BB1F001C111C0E1A1F0A18F40E0E1F1ED8
:100B440001C0A1609A9599F7FD01D00108953F93E2
:100B54004F935F93002411244427552730E2AA0FB2
:100B6400BB1F881F991F001C111C441F551F0E1A00
:100B74001F0A460B570B28F40E0E1F1E461F571F45
:100B840001C0A1603A9559F7FD01BC01D001CA0129
:100B94005F914F913F91089512D0D9DF0EF481DF18
:100BA4000895E894B7FF04C0A095B0951196689491
:100BB400F7FD73DFB9DFFD010EF46FDF0895E894EC
:100BC40077FF02C06EDF689497FF0BC00024A095E6
:100BD400B095809590951196801D901D00F8039412
:100BE40000FA0895ED91FC91119708950590F49100
:100BF400E02D0895E881F9816A817B810895A881B7
:100C0400B9818A819B810895E883F9836A837B8310
:100C140008957A936A93FA93EA93089500240A163E
:100C24000B0608955A934A933A932A931A930A9374
:100C340008955D814C813B812A8119810881089541
:00000001FF
