:0A0000000C94AA000C9400000C946C
:10000A00D1010C9400000C9400000C9400000C9494
:10001A0000000C9400000C9400000C9400000C9456
:10002A0000000C9400000C9400000C9400000C9446
:10003A0000000C9400000C9400000C9400000C9436
:10004A0000000C9400000C9400001027E8036400E0
:10005A000A000100001000011000010057656C63DE
:10006A006F6D6520746F20746865206F6E6C696EA1
:10007A0065206C616220636C6173736573206475BB
:10008A006520746F20436F726F6E612064697365B7
:10009A006173652E0039363236393033004D616866
:1000AA00646900001F2F4F8F3031323334353637B1
:1000BA00383941424344454654656D70203A3F3FC2
:1000CA002832302D383043290057656967743A3F22
:1000DA003F28302D39394629200054696D65203A68
:1000EA003F3F28302D3939732920005370656564E4
:1000FA003A3F3F28302D3530722920004E616D6518
:10010A00203D202573005374644E6F203D202573D3
:10011A0000454500696E6974203A00446F6E652196
:10012A00000080C001002D4E414E00494E4600009D
:10013A000400C501AE001000C901B2000200D901D5
:10014A002C010100DD012E010000F894EE27ECBB22
:10015A00F1E0FBBFEBBFE5BF8DE0A2E0BB27ED936B
:10016A008A95E9F780E094E0A0E6ED930197E9F734
:10017A00EAE3F1E085919591009761F0A591B59137
:10018A0005901590BF01F00105900D920197E1F7D6
:10019A00FB01F0CFEFE5EDBFE4E0EEBFC0E6D1E052
:1001AA000C94D700EF97289787E4A0E0B0E0E6E642
:1001BA00F0E00E9416064CD0FE01EF5BFF4FFA9367
:1001CA00EA93DE01DB960E943301A0EDB7E00E94BC
:1001DA00CE05DE010E944E010E945B05E0E0E0933D
:1001EA006001A0916001A43040F40E94B901E0913D
:1001FA006001EF5FE0936001F4CFE0E0E09360011B
:10020A000E9462057894A0916001A430E0F3F8940A
:10021A00A4EFB1E00E94CE050E94AD02FFCFFFCF4E
:10022A00EFEFEABBE0E0EBBBE0EFE7BBE8BBE1E006
:10023A00E4BBE0E0E5BBE1BBE2BB0895EBB7E068F5
:10024A00EBBFECE0E5BFE0E0E4BFE0E8EABF089519
:10025A00E7DFF4DFA0E10E944C030895BA93AA9362
:10026A000E945B050E946705E6E0F1E0FA93EA93D3
:10027A00EE81FF810E946C050E9462050E9467055B
:10028A00E0E1F1E0FA93EA93EC81FD810E946C05CA
:10029A0069C00E9478050E942D050E2FEA81FB8114
:1002AA000E947F05E02FF0E0AA81BB81EA0FFB1FC5
:1002BA000E947F0510E0E02FF0E03196A12FB0E018
:1002CA00AE17BF07E4F40E946705E12FAC81BD8138
:1002DA00F0E0EA0FFB1FFA93EA93A0E10E944605B9
:1002EA00E0E0E093710190D10E946205A1E6B1E0DD
:1002FA00ACD1A6E9B0E00E94CE051F5FDCCFA89A78
:10030A00198108812FC00E940A0610E0143038F5BE
:10031A0004E0E12FF0E0EB53FE4FE081E8BBB09937
:10032A0000E0B19901E0B29902E0B39903E0043028
:10033A00A1F0E4E0E19FF001DF01E02FF0E0EA0F35
:10034A00FB1FE753FE4F3081B099FECFB199FECF24
:10035A00B299FECFB399FECF02C01F5FD7CFE32F6A
:10036A000E941106249608951A930A93E0EFE8BBB7
:10037A000E9487051030D1F70E9487051030E1F3FB
:10038A000E9487051030C1F3BEDF0E2FA02F48D17F
:10039A00E02F0991199108950A921A92FA926A9392
:1003AA007A938A939A93AA93BA93EA93FA93EFB7B2
:1003BA00EA931A93A89B02C0A89801C0A89AE09150
:1003CA006001EF5FE09360019EDF1E2FA12F28D10D
:1003DA00E0EFE8BB1991E991EFBFF991E991B99181
:1003EA00A9919991899179916991F99019900990B6
:1003FA001895AA93E881F0E0E033A0E0FA0711F437
:10040A00E0E071C1E133A0E0FA0711F4E1E06BC169
:10041A00E233A0E0FA0711F4E2E065C1E333A0E0B9
:10042A00FA0711F4E3E05FC1E433A0E0FA0711F43C
:10043A00E4E059C1E533A0E0FA0711F4E5E053C15D
:10044A00E633A0E0FA0711F4E6E04DC1E733A0E095
:10045A00FA0711F4E7E047C1E833A0E0FA0711F41C
:10046A00E8E041C1E933A0E0FA0711F4E9E03BC151
:10047A00E134A0E0FA0711F4EAE035C1E234A0E081
:10048A00FA0711F4EBE02FC1E334A0E0FA0711F404
:10049A00ECE029C1E434A0E0FA0711F4EDE023C14D
:1004AA00E534A0E0FA0711F4EEE01DC1E634A0E05D
:1004BA00FA0711F4EFE017C1EFEF15C1AA93EA8129
:1004CA00A981EA1720F0E881AA81EA1708F402C094
:1004DA00E1E001C0E0E0D9C0AA930E940A0620E048
:1004EA0030E00E946205AE81BF81AFD0E6E0EA93B8
:1004FA00A1E07DD039DF1E2FA12F7BDF2E2F3327DE
:10050A0033DF1E2FF901AAE0B0E00E94E805FF934D
:10051A00EF93A12F6EDFF0E0AF91BF91EA0FFB1FBF
:10052A009F01A8EEB3E00E94CE052A93EE81EA93DA
:10053A00AE81C4DFE03041F4E6E0EA93A1E057D0AF
:10054A00ABE1B1E091D0D2CF0E941106289608956E
:10055A00EF97259784E4A0E0B0E0E2ECF0E00E9497
:10056A0016060E945B05AEE1B1E07ED0FE01F3966D
:10057A000E948F05A2E3B0DFFE01B2960E948F05AA
:10058A00A3E6AADFFE0171960E948F05A3E6A4DF07
:10059A00FE01FA93EA93E4E1EA93A0E59DDF0E9463
:1005AA005B05A5E2B1E060D0EF9625960895AA937F
:1005BA00EBB3EF70AE2FE881E07FEA2BEBBB8DE067
:1005CA008A95F1F7DA9A8DE08A95F1F7DA988DE053
:1005DA008A95F1F788C0AA93A881E9DFE881E295B4
:1005EA00E883A881E4DF85E88A95F1F77CC0AA93BD
:1005FA00E881F0E0E752FE4FE081A981AE0FEBDF20
:10060A005980488022960895A2E00E949405ACE0A1
:10061A00E2DFA1E00E949405E0E04E2E5E2E0895EE
:10062A00AA93A881AA3011F0571448F0E0E0EA939F
:10063A004394A42DDCDFA881AA3009F454C0539452
:10064A00D89AA881C8DFD8984EC0BA93AA931A93A9
:10065A00A981BA81ED91A983BA831E2FE03019F0DE
:10066A00A12FDEDFF5CF10C0BA93AA931A93E981BE
:10067A00FA813196E983FA833197E4911E2FE030AB
:10068A0019F0A12FCDDFF3CF188123960895AA93ED
:10069A00EAB3E06FEABBD29AD09AD19ADA98D8989C
:1006AA00D9987880E881E058E093DB01E881E0544A
:1006BA00E093DC01A4E1B0E00E94CE050E949A0515
:1006CA000E949A050E949A05A0E271DF88EC90E0E8
:1006DA000197F1F7A8E27FDFA4E07DDFA5E87BDFE1
:1006EA00A6E079DF91DF219608950E947805129697
:1006FA000E94FB05309759F1AA81BB8114960E948A
:10070A00FB058F01309761F00230E0E01E0798F098
:10071A00F80131978F01AA81BB811496ED93FC935E
:10072A00AA81BB811296ED91FD913196FE93EE93CB
:10073A003197AC81A083AA81BB810E94FB05FF236C
:10074A002AF0ED91FD913196FE93EE9306C0AA81AF
:10075A00BB81EFEFFFEFED93FC931981088176C11E
:10076A00BA93AA9326970E94080610E0AC85BD8525
:10077A00E0E0F0E0ED93FC93EA89FB893196EA8B9D
:10078A00FB8B3197E4912E2FE03009F415C1E12F4C
:10079A00E03039F4253211F411E002C00E94A205BA
:1007AA000AC1E130A9F4253219F40E94A20502C156
:1007BA0012E040E000E02D3211F401E0FCC02B32DF
:1007CA0011F44BE2F8C0203211F440E2F4C002C046
:1007DA00E23039F450E013E0203311F40068EBC042
:1007EA0003C0E33009F0E7C0203310F02A3308F0E1
:1007FA0007C0AAE05A9F502DE22FE0535E0FDBC0DC
:10080A00E22FE33649F40E94A905E889F989A4810F
:10081A00AA930E94AF05CEC0E33741F40E94A9050E
:10082A000E94B5050E942D051E2F0AC0E03761F40B
:10083A000E94A9050E94B5050E9439051E2F08606D
:10084A0002600F7730E034C0E43611F0E93611F473
:10085A00046002C0E53731F4E4E5F0E0EE83FF839B
:10086A0015E00CC0E83511F4086003C0E83709F058
:10087A00A1C0EEE5F0E0EE83FF8314E002FF14C0AE
:10088A000E94A9050E94BF05AB85AA233AF4EA850E
:10089A00FB850E94DC05EA87FB874DE2403011F0B8
:1008AA001F5F01C00B7F04C00E94A9050E94BF05FB
:1008BA0000FD11C0151778F407FF08C002FF04C035
:1008CA000B7F242F115001C020E301C020E20E94B7
:1008DA00A2055150EFCF312F01FF17C03030A1F0E0
:1008EA0003FF06C0EE81FF812591EE83FF8305C0D9
:1008FA00AE81BF812D91AE83BF830E94A205503085
:10090A0009F051503150EACF4BC020E3EE81FF810C
:10091A000E94FF05E887F987EE81FF813296EE8310
:10092A00FF83E885F985AA85BB85AE17BF0750F016
:10093A002F5FA885B985EA85FB85EA1BFB0BEA8749
:10094A00FB87EFCF2A3328F003FF02C0295F01C0DB
:10095A00295D04FD1AC0213320F4A885B9851197B1
:10096A0009F409C0531710F000FF01C013C020E2B8
:10097A0007FF0BC020E3006102FF07C00B7F4A9309
:10098A000E94AF05503009F051500E94A205503024
:10099A0009F051503150A885B985129708F0B5CFA2
:1009AA0000FF08C0503031F05150E0E2EA930E9453
:1009BA00AF05F8CF10E0E0CEAC85BD850E94FB05FF
:1009CA000E940F0664960895FF92F82E26970E94B9
:1009DA000A060E94C705309719F4EFEFFFEF23C00C
:1009EA00DE0116960E94D8058D010E94C705EE8386
:1009FA00FF83E0E0E887E987DE011A960E94D805BE
:100A0A000E94FB05FA93EA931A930A93EAE7F3E042
:100A1A00FA93EA93DE011A96A3DE9F01AE81BF81A3
:100A2A00E0E0EC93F9010E9411062A96FF900895DE
:100A3A00BA93AA93B981A881109631F0FC81EB810F
:100A4A006A8161931197E9F7EB81FC8125960895F4
:100A5A00BA93AA93A991B991EE27FF276D916623BC
:100A6A0011F03196FBCF0895BA93AA93AA27BB2710
:100A7A00E991F9910590002011F01196FBCFFD0143
:100A8A000895AA937991E991F991A991B991CD0122
:100A9A00772351F07A9561916D936623C9F777238D
:100AAA0019F07A956D93FBCFFC0108950E94090312
:100ABA00E0E0EA93A0E00C94FC02E0E0EA93A1E013
:100ACA000C94FC02E1E6F1E0FA93EA9308956627B2
:100ADA0077270E94030684E00E94E9042896A1E68B
:100AEA00B1E00C942A03BA93AA931A930A93AA819F
:100AFA00BB810895FA93EA93E0E2EA93AFE0B0E0AB
:100B0A000C941D05A4E1B0E00E94CE05E6B3EF7097
:100B1A001E2F0895FA93EA93E0E0EA9308950E945B
:100B2A00F002A3E0B0E00C94CE05A0E30E94DC0240
:100B3A0088EC90E00197F1F708952A93AD85BE8578
:100B4A00EF85F88909950895E889F9893497E88B3A
:100B5A00F98B0895AD85BE85EF85F88909950895C5
:100B6A00A889B98914960E94FB05EE83FF83AE819A
:100B7A00BF810895A889B98914960E94FB05EA875E
:100B8A00FB870895DE011C960E94D8050E94FB058A
:100B9A000895109639F080ED97E00197F1F7A8953E
:100BAA001197C9F708950024AF0DB01D0895F19566
:100BBA00E195F0400895FA9FF02DEB9FF00DEA9F22
:100BCA00E02DF10D089504D0F6DF0EF4F0DF08955C
:100BDA00E894F7FF02C0EBDF6894B7FF06C0A09560
:100BEA00B095119600F8039400FA0895ED91FC91DE
:100BFA00119708950590F491E02D08957A936A93D8
:100C0A00FA93EA9308955A934A933A932A931A9332
:100C1A000A9308955D814C813B812A81198108815B
:100C2A000895AC0FBD1F05900D928A95E1F70895BE
:00000001FF
