:0A0000000C942F000C9400000C94E7
:10000A0000000C9400000C9400000C9400000C9466
:10001A0000000C9400000C9400000C9400000C9456
:10002A0000000C9400000C9400000C9400000C9446
:10003A0000000C9400000C9400000C9400000C9436
:10004A0000000C9400000C940000001011223344AC
:10005A0055667080F894EE27ECBBF1E0FBBFEBBF6E
:10006A00E5BF8DE0A2E0BB27ED938A95E9F780E032
:10007A0094E0A0E6ED930197E9F7EFE5EDBFE4E040
:10008A00EEBFC0E6D1E00C944A0064978AE0AAE089
:10009A00B0E0E4E5F0E00E940601FE013A969F0115
:1000AA00FE01AF01E0E0EABBEBBBE7BBE8BBE4BBA8
:1000BA00E5BBE1BBE2BB789438D010E01A3060F4BB
:1000CA00E12FF0E03296DE011A96AE0FBF1FAC9117
:1000DA000E94E4001F5FF2CF0E94BF00AAE0B0E0D6
:1000EA000E94FC0022D00E94B000A1EA0E94E40013
:1000FA0010E01A30B0F4193049F422D0FF93EF938C
:10010A00A0E00E94C900AF91BF9108C019D0FF9327
:10011A00EF93A1E00E94C900AF91BF91EC931F5FDA
:10012A00E8CF0E94BF00FFCFFFCF0E94B000A0EA35
:10013A000E94E400A0E00E94E400A0E10C94E40024
:10014A00E12FF0E0DE01EA0FFB1F0895A898A998B5
:10015A00A09AA19815C0A198A098EE270000999B93
:10016A000895989B089504D0A19A02D0A09AE1E03C
:10017A006DE007C0A19AA09A03D0A098F9DFA198D0
:10018A006BE16A95F1F7089578E0A098F1DF989B02
:10019A00FECFEEDF889499990894A09AF1DFEE1FBA
:1001AA007A9599F77A2F772311F4A19801C0A19A29
:1001BA00DFDFA098E5DFA09ADBDFA198D9CF78E04E
:1001CA00AA0F10F4A19801C0A19ADADFA098D0DF93
:1001DA00989BFECFCDDFA09A7A9591F7A198C8DFB8
:1001EA00A098CEDFE1E09999EE27A09AC1CF1096A8
:1001FA0039F080ED97E00197F1F7A8951197C9F7C3
:10020A000895AC0FBD1F05900D928A95E1F70895E8
:00000001FF
