:0E0000000C946A010C9400000C9400000C9407
:10000E0000000C9400000C9400000C9400000C9462
:10001E0000000C9400000C9400000C9400000C9452
:10002E0097010C9400000C94C9010C9400000C94E0
:10003E0000000C9400000C9400000C9400000C9432
:10004E0000000C9400001027E80364000A00010071
:10005E000010000110000100000000000000000070
:10006E002D2D3E7061727420322069732072756E70
:10007E006E696E67210D0A003E456E7465722079B9
:10008E006F7572204E616D65203A20002573003E1B
:10009E00456E74657220796F7572204C6173744E63
:1000AE00616D65203A20000D0A3E3E202020204F33
:1000BE007574707574203A20282573202573290DC8
:1000CE000A002D2D3E706172742032206973204516
:1000DE006E64696E67210D0A0D0A002D2D3E70614A
:1000EE00727420332069732072756E6E696E67218B
:1000FE000D0A003E456E74657220796F757220632D
:10010E006F6D6D616E642063686172203A20000D20
:10011E000A3E3E202020204F7574707574203A20C0
:10012E0044617461206973206120696E746567652E
:10013E007220616E642031302A646174613D2564E1
:10014E000D0A006C63642064656C657465000D0AAD
:10015E0020202A2A2A2A2A2A2A2A2A2A2A2A2A2A05
:10016E002A2A2A2A2A2A2A2A2A0D0A202020204D23
:10017E006963726F2070726F636573736F72206C38
:10018E0061620D0A20202A2A2A2A2A2A2A2A2A2AA3
:10019E002A2A2A2A2A2A2A2A2A2A2A2A2A0D0A0018
:1001AE000D0A3E3E202020204F7574707574203A43
:1001BE00204E6F2066756E6374696F6E206465667F
:1001CE00696E6564210D0A002D2D3E7061727420DA
:1001DE003320697320456E64696E67210D0A0D0A1E
:1001EE00002D2D3E7061727420342069732072755B
:1001FE006E6E696E67210D0A003E456E7465722043
:10020E00796F7572206672616D65203A20002073D9
:10021E00686F756C6420737461727420776974688A
:10022E0020272827200D0A000D0A202020204C65AB
:10023E006E677468206F66206672616D65206E6FE2
:10024E007420636F72726563740D0A000D0A2020AC
:10025E0020204672616D65206D7573742062652075
:10026E003520696E74656765720D0A000D0A2020CF
:10027E0020204672616D6520697320636F7272650E
:10028E0063740D0A002D2D3E706172742034206946
:10029E007320456E64696E67210D0A0D0A0080C0D9
:1002AE0001002D4E414E00494E4600000100020055
:1002BE0066000600040068000200F002AC020100B5
:1002CE00F402AE020000F894EE27ECBBF1E0FBBFA7
:1002DE00EBBFE5BF8DE0A2E0BB27ED938A95E9F772
:1002EE0080E094E0A0E6ED930197E9F7EAEBF2E007
:1002FE0085919591009761F0A591B5910590159016
:10030E00BF01F00105900D920197E1F7FB01F0CFCF
:10031E00EFE5EDBFE4E0EEBFC0E6D1E00C94FB01EB
:10032E00EA93FA93EFB7EA931A930A931BB10CB1BF
:10033E00E12FEC7189F4E52D5394F0E0E05AFE4F75
:10034E000083E8ECE51509F455247394E8ECE71501
:10035E0019F47724689420F80991199125C01A93FD
:10036E007720F1F3E42D4394F0E0E05AFE4F108134
:10037E00E8ECE41509F44424F8947A947894E12F87
:10038E000C944503EA93FA93EFB7EA93882061F051
:10039E008A94E92D9394F0E0E85DFD4FE081ECB98D
:1003AE00E8ECE91509F49924E991EFBFF991E99187
:1003BE001895AA93E8ECE815E9F3F894882011F45F
:1003CE005D990DC0E62D6394F0E0E85DFD4FA881C8
:1003DE00A083E8ECE61509F46624839402C0E88154
:1003EE00ECB978940C9431041ED078940E94C70214
:1003FE000E9400030E944703F9CFFFCFE0E0EABB63
:10040E00EBBBE7BBE8BBE4BBE5BBE1BBE2BB0895DE
:10041E00E0E0EBB9E8EDEAB9E6E8E0BDE0E0E0BD2A
:10042E00E3E3E9B90895EADFF3DFA0E10E940504F2
:10043E000895FF920E945C08FF24ED81F0E0E23007
:10044E00A0E0FA0719F46894F3F804C0E130A0E0D4
:10045E00FA0711F46894F1F8EC81F0E0E230A0E0D4
:10046E00FA0719F46894F2F804C0E130A0E0FA0734
:10047E0011F46894F0F8E0E0EBB9A0E0F2FCA1E032
:10048E00EA2FE795E0E0E7950E2EA0E0F3FCA1E061
:10049E00EA2FE295E07FEE0FEE0FE0290E2EA0E0A0
:1004AE00F0FCA1E0EA2FE295E07F0E2AA0E0F1FC3D
:1004BE00A1E0EA2FEE0FEE0FEE0FE029EAB9E6E823
:1004CE00E0BDE0E0E0BD0E944607A030E6E9BE07D1
:1004DE00E0E08E07E0E09E0711F4ECE04DC00E94D4
:1004EE004607A030EBE4BE07E0E08E07E0E09E0793
:1004FE0011F4E9E141C00E944607A038E5E2BE07CB
:10050E00E0E08E07E0E09E0711F4E3E335C00E94C1
:10051E004607A03CE2E1BE07E0E08E07E0E09E0762
:10052E0011F4E7E629C00E944607A036E9E0BE07AF
:10053E00E0E08E07E0E09E0711F4EFEC1DC00E9494
:10054E004607A03BE4E0BE07E0E08E07E0E09E0732
:10055E0021F4E1E0E0BDEFE90FC00E944907E15050
:10056E00F04060407040DF01CB01E8E00E94DC0704
:10057E00E0BD0E944907E150E9B92696FF90089523
:10058E00A8970E945207EEE6F0E00E945B07E6E8AD
:10059E00F0E00E945B07EAE9F0E00E94620784E067
:1005AE000E94ED062696EDE9F0E00E945B07EAE96F
:1005BE00F0E0FA93EA93FE013296662777270E94BF
:1005CE00570884E00E94ED062696E5EBF0E00E94C7
:1005DE006207FE013696662777270E94570888E045
:1005EE000E9475052A96E0EDF0E00E945B07A89642
:1005FE0008951A930E945207E9EEF0E00E945B07FD
:10060E00E1E0F1E00E945B070E94B6011E2F10335D
:10061E0010F01A3308F014C0EDE1F1E0FA93EA930A
:10062E00E12FF0E0F097AAE0B0E00E94F5070E94FB
:10063E00E8070E94570884E00E94750526961AC0A6
:10064E00143459F4E0E0EA93A0E098D0A4D0A1E5E8
:10065E00B1E0C2D0E3E8F0E007C0183419F4ECE5DD
:10066E00F1E002C0EEEAF1E0FA93EA9380E00E9434
:10067E0075052296E6EDF1E00E945B07199108954B
:10068E0064970E9463080E945207EFEEF1E00E9409
:10069E005B0701E020E0E7E0F2E00E945B070E94CA
:1006AE00B6013E2F383229F0ECE1F2E00E945B07F2
:1006BE00F2CF10E01431A0F40E94B6013E2F393271
:1006CE0079F0303310F03A3308F000E0E22F2F5F6C
:1006DE00F0E0DE011496EA0FFB1F30831F5FEACFB6
:1006EE00153028F4E6E3F2E00E945B071FC01630D7
:1006FE0010F4003029F4EAE5F2E00E945B0716C020
:10070E00EAE7F2E00E945B0746D0E0E0EA93A0E061
:10071E0035D010E0121750F4E12FF0E0DE01149600
:10072E00AE0FBF1FAC9143D01F5FF4CFE3E9F2E0F1
:10073E000E945B070E946A0868960895AA93E5B323
:10074E00EF70AE2FE881E07FEA2BE5BB8DE08A9556
:10075E00F1F7AA9A8DE08A95F1F7AA988DE08A951D
:10076E00F1F778C0AA93A881E9DFE881E295E883E2
:10077E00A881E4DF85E88A95F1F76CC0AA93E88139
:10078E00F0E0E051FD4FE081A981AE0FEBDFB980C3
:10079E00A88022960895A2E00E946B07ACE0E2DFEB
:1007AE00A1E00E946B07E0E0AE2EBE2E0895AA9344
:1007BE00A881AA3011F0BD1448F0E0E0EA93A394AA
:1007CE00AA2DDCDFA881AA3009F444C0B394A89AFC
:1007DE00A881C8DFA8983EC0BA93AA931A93E9815C
:1007EE00FA813196E983FA833197E4911E2FE03036
:1007FE0019F0A12FDCDFF3CF18813AC0AA93E4B32E
:10080E00E06FE4BBA29AA09AA19AAA98A898A99878
:10081E00D880E881E058E093F202E881E054E0935A
:10082E00F302A4E1B0E00E94C2070E9471070E9489
:10083E0071070E947107A0E281DF88EC90E00197BA
:10084E00F1F7A8E28FDFA4E08DDFA5E88BDFA6E04D
:10085E0089DFA1DF21960895BA93AA93AA810E94F7
:10086E00E001A881B981ED91FD913196FE93EE9351
:10087E0023960895BA93AA9326970E94610810E0D2
:10088E00AC85BD85E0E0F0E0ED93FC93EA89FB8951
:10089E003196EA8BFB8B3197E4912E2FE03009F4E1
:1008AE0015C1E12FE03039F4253211F411E002C008
:1008BE000E9479070AC1E130A9F4253219F40E9489
:1008CE00790702C112E040E000E02D3211F401E0A0
:1008DE00FCC02B3211F44BE2F8C0203211F440E28E
:1008EE00F4C002C0E23039F450E013E0203311F4CA
:1008FE000068EBC003C0E33009F0E7C0203310F00E
:10090E002A3308F007C0AAE05A9F502DE22FE05379
:10091E005E0FDBC0E22FE33649F40E948007E889C0
:10092E00F989A481AA930E948607CEC0E33741F4C9
:10093E000E9480070E948C070E940A071E2F0AC081
:10094E00E03761F40E9480070E948C070E94160710
:10095E001E2F086002600F7730E034C0E43611F0CD
:10096E00E93611F4046002C0E53731F4E4E5F0E055
:10097E00EE83FF8315E00CC0E83511F4086003C068
:10098E00E83709F0A1C0EEE5F0E0EE83FF8314E056
:10099E0002FF14C00E9480070E949607AB85AA230F
:1009AE003AF4EA85FB850E94D007EA87FB874DE281
:1009BE00403011F01F5F01C00B7F04C00E94800702
:1009CE000E94960700FD11C0151778F407FF08C0A6
:1009DE0002FF04C00B7F242F115001C020E301C081
:1009EE0020E20E9479075150EFCF312F01FF17C03F
:1009FE003030A1F003FF06C0EE81FF812591EE831A
:100A0E00FF8305C0AE81BF812D91AE83BF830E944F
:100A1E007907503009F051503150EACF4BC020E3E6
:100A2E00EE81FF810E944908E887F987EE81FF81F8
:100A3E003296EE83FF83E885F985AA85BB85AE17CE
:100A4E00BF0750F02F5FA885B985EA85FB85EA1BA5
:100A5E00FB0BEA87FB87EFCF2A3328F003FF02C098
:100A6E00295F01C0295D04FD1AC0213320F4A88539
:100A7E00B985119709F409C0531710F000FF01C092
:100A8E0013C020E207FF0BC020E3006102FF07C086
:100A9E000B7F4A930E948607503009F051500E94F6
:100AAE007907503009F051503150A885B985129709
:100ABE0008F0B5CF00FF08C0503031F05150E0E2E1
:100ACE00EA930E948607F8CF10E0E0CEAC85BD8594
:100ADE000E9445080E94680864960895FF92F82EB9
:100AEE0026971A930A93DE0114960E94CC078D0165
:100AFE00E0E0EC83ED83EE83EF83DE0118960E9437
:100B0E009E07E3E3F4E0FA93EA93DE011896B2DE71
:100B1E00198108812896FF900895BA93AA931A9383
:100B2E00A981BA81E0E0EC93AB81BC81EC911E2FE0
:100B3E00E03019F0E0E0EC9303C00E94B6011E2FE6
:100B4E00E12F188125960895FF92BA93AA932497C0
:100B5E000E946108E0E0F0E0E887F9874E2FE8890F
:100B6E00F9893196E88BF98B3197E4913E2FE0307D
:100B7E0009F425C10E94A707C1F0EDB7FEB7FA939D
:100B8E00EA934F930E94AC074F913E2FE03019F03D
:100B9E000E94A70709F407C00E94B2071CF4EFEFEA
:100BAE00FFEF0FC1EACF432F09C1353209F0EEC076
:100BBE0050E0E889F9893591E88BF98B303310F0E4
:100BCE003A3308F007C0AAE05A9F502DE32FE053A6
:100BDE005E0FEFCF303009F4F2C0EDB7FEB7FA93E7
:100BEE00EA934F930E94AC074F912E2FAE2F0E9487
:100BFE002C07E03039F00E94B2071CF4EFEFFFEF44
:100C0E00E0C0EBCF203009F4D1C0422F503009F4B0
:100C1E005FEFE32FE33699F40E94B707EDB7FEB707
:100C2E00FA93EA934F930E94AC074F91D801EC933D
:100C3E000E94B2071CF4EFEFFFEFC3C0A1C0E33771
:100C4E0041F50E94B707E52F5150E030F1F0EDB7B6
:100C5E00FEB7FA93EA934F930E94AC074F913E2F43
:100C6E00E03019F00E94A70739F00E94B2071CF479
:100C7E00EFEFFFEFA6C009C01F930F930F5F1F4F3B
:100C8E00E32FAF91BF91EC93DECFD801E0E0EC9370
:100C9E0077C06894F1F8E894F2F8E32FE43611F097
:100CAE00E93619F4E894F1F802C0E53711F42AE0B8
:100CBE0008C0E83711F420E104C0E53209F466C03B
:100CCE007EC0E0E0EE83EF836894F0F8E52F51509C
:100CDE00E03009F446C0EDB7FEB7FA93EA934F93AE
:100CEE000E94AC074F913E2FE13238F40E94B207BA
:100CFE001CF4EFEFFFEF65C017C0F1FC08C068945D
:100D0E00F1F83D3211F4F2F8E1CF3B32F9F2203135
:100D1E0031F4A32F0E943707E03031F009C0A32F22
:100D2E000E942307E03021F4F0FC49C0432F19C084
:100D3E00313610F0375505C0313410F0375301C03D
:100D4E003053E22FAE81BF81F0E00E94ED07DF014C
:100D5E00E32FF0E0EA0FFB1FEE83FF83E894F0F839
:100D6E00B5CF0E94B707F2FE06C0EE81FF810E944A
:100D7E00D007EE83FF83EE81FF81D801ED93FC93C4
:100D8E00E885F9853196E887F98718C0EDB7FEB783
:100D9E00FA93EA934F930E94AC074F91E31771F0C9
:100DAE000E94B2071CF4EFEFFFEF0BC0E885F98548
:100DBE00309719F4EFEFFFEF04C001C0D0CEE885F5
:100DCE00F9850E9468086296FF900895FF92F82EAA
:100DDE0023971A930A93DE0111960E94CC078D0178
:100DEE00E0E0EB83EC83DE0115960E949E07E4E9BA
:100DFE00F5E0FA93EA93DE011896A6DE19810881D2
:100E0E002596FF900895BA93AA93A991B991EE27CA
:100E1E00FF276D91662311F03196FBCF0895BA939B
:100E2E00AA93AA27BB27E991F9910590002011F00A
:100E3E001196FBCFFD010895AA93E1E0F991F033ED
:100E4E0010F0FA3308F0EE270895AA93E1E0F99135
:100E5E00F03229F0F93010F0FE3008F0EE27089548
:100E6E00AA93E1E0F991F05340F0FA3038F0FF75B3
:100E7E00F750FA3010F0F03108F0EE2708950E9486
:100E8E00520808950E944D08A0E2B1EA87E090E072
:100E9E000E941F080895E2E0EA93EA93A0E8B5E203
:100EAE0080E090E00C942002FA93EA9380E00E9496
:100EBE00750522960895FA93EA93FE0176966627B3
:100ECE0077270E94570808950E94B903A3E0B0E067
:100EDE000C94C207A0E30E94A50388EC90E0019752
:100EEE00F1F708952A93AD85BE85EF85F8890995AA
:100EFE000895E889F9893497E88BF98B0895AD85C3
:100F0E00BE85EF85F88909950895A889B989149643
:100F1E000E944508EE83FF83AE81BF810895A889A4
:100F2E00B98914960E944508EA87FB8708950E94A6
:100F3E00CC070E944508FA93EA931A930A930895F0
:100F4E00A32F0E942C07E0300895AC85BD85EE8559
:100F5E00FF8509950895AA85BB85AC91A0300895AB
:100F6E00EE85FF853497EE87FF87AE85BF85149695
:100F7E000D911C910895109639F080ED97E0019730
:100F8E00F1F7A8951197C9F708950024AF0DB01D7C
:100F9E000895F195E195F0400895F095609570955E
:100FAE00E195FF4F6F4F7F4F0895EE230E2EFD01FB
:100FBE00BC0131F075956795F795E7950A94D1F7D1
:100FCE0008956F2F660F660B762F0895FA9FF02DFA
:100FDE00EB9FF00DEA9FE02DF10D08952ED0F6DF78
:100FEE000EF4D7DF08953F934F935F93002411249F
:100FFE004427552730E2AA0FBB1F881F991F001CDC
:10100E00111C441F551F0E1A1F0A460B570B28F4AE
:10101E000E0E1F1E461F571F01C0A1603A9559F7AD
:10102E00FD01BC01D001CA015F914F913F9108951E
:10103E0012D0D9DF0EF4B1DF0895E894F7FF02C0A5
:10104E00A8DF6894B7FF06C0A095B095119600F87A
:10105E00039400FA0895E89477FF02C09EDF689427
:10106E0097FF0BC00024A095B09580959095119692
:10107E00801D901D00F8039400FA0895ED91FC91E7
:10108E00119708950590F491E02D0895E881F98166
:10109E006A817B810895A881B9818A819B81089597
:1010AE007A936A93FA93EA9308959A938A93BA93EA
:1010BE00AA9308955A934A933A932A931A930A93AA
:1010CE0008955D814C813B812A81198108810895A3
:00000001FF
