:060000000C9438000C9482
:1000060000000C9400000C9400000C9400000C946A
:1000160000000C9400000C9400000C9400000C945A
:1000260000000C9400000C9400000C9400000C944A
:1000360000000C9400000C9400000C9400000C943A
:100046002D010C9400000C9400000C94000000009C
:100056000010102030405060708007000100020040
:1000660054000100620160000000F894EE27ECBB2A
:10007600F1E0FBBFEBBFE5BF8DE0A2E0BB27ED9350
:100086008A95E9F780E094E0A0E6ED930197E9F719
:10009600E2E6F0E085919591009761F0A591B59122
:1000A60005901590BF01F00105900D920197E1F7BB
:1000B600FB01F0CFEFE5EDBFE4E0EEBFC0E6D1E037
:1000C6000C94650064978AE0AAE0B0E0E6E5F0E00B
:1000D6000E94CC02FE013A968F01FE019F01E0E0EC
:1000E600EABBEBBBE7BBE8BBE4BBE5BBE1BBE2BB02
:1000F600A4E6B0E01BD07894E0E5EA931A930A935D
:10010600EAE0EA933A932A93A0E039D0A5E0B0E07A
:100116000E949202E0E5EA931A930A93E2E0EA93D8
:100126003A932A93AAE02BD0FFCFFFCFBA93AA9394
:100136001A93689421F8E7E0E0936201E0E0E09327
:100146006B01E0936C01E0936D01E0936E01A99A57
:10015600A89AE6BFE1B1EC7FE1B9E981FA81A0EAAC
:10016600BFE00E94A1021E2F183008F0185010B9E7
:10017600E6B7E078E564E6BF188123960895AA936A
:10018600249721FE64C0EA85EE0FE0936301E885BB
:10019600F985E0936401F0936501E0E0E093600186
:1001A600EF81E0936601ED81FE81E0936701F093B4
:1001B6006801E0E0E0936101EC81E0936901E6E02B
:1001C600E09362017894EF81E03081F0E885F9856B
:1001D600309709F43CC0EC81E03021F0AD81BE815E
:1001E600109709F001C033C068940DC0EC81E0306F
:1001F60041F1ED81FE81309751F1E0916301E160BB
:10020600E0936301E89420F8E89421F8E6B7EF70EC
:10021600E06AE6BFE0E2F1EA67E070E00E94B90258
:1002260021FC0FC00E94B4023197604070400E94CA
:10023600B90231F4E5E0E0936201689421F807C061
:10024600EFCFA0916201E0E00E949C0201C0E0E0D5
:100256002B9608950A921A92FA926A937A938A933F
:100266009A93AA93BA93EA93FA93EFB7EA930E9402
:10027600BE021091610100916001309166012091EA
:100286006201E12FA0916701B0916801F0E0EA0FE9
:10029600FB1FAF01E1B1E87FE83011F420E002C0B6
:1002A600E03119F4E091630110C0E83111F0E83251
:1002B60021F5031780F4E02F0F5FA0916401B09140
:1002C6006501F0E0AE0FBF1FEC91E3B9E6B7EF7042
:1002D600E068E6BF11C0E09169011E1760F4E09185
:1002E6006301E160E0936301E89420F8E6B7EF70FC
:1002F600E06AE6BFFBC033C0F9C0E03529F4E3B1DC
:10030600DA01EC931F5F02C0E03471F4E0916901F9
:10031600E1501E1720F0E6B7EF70E06803C0E6B7BD
:10032600EF70E06CE6BFE2C0E83529F4E3B1DA012C
:10033600EC931F5F02C0E03209F402C0E03309F417
:1003460002C0E83469F4203051F420FE03C00317DC
:1003560028F005C0E09169011E1708F424E0C0C02A
:10036600E83329F422E0E6B7EF70E068BCC0E8366F
:1003760011F0E83711F422E005C0E03611F0E0375D
:1003860091F420E010E0E89420F8E0916A01E03072
:1003960029F421E0E6B7EF70E06803C0E6B7EF7036
:1003A600E06CE6BFA3C0E03811F0E03929F520FE85
:1003B60002C021E095C0E3B1DA01EC931F5FE09142
:1003C6006A011E17B0F4E0916B01F0916C01309751
:1003D60011F426E085C0A0E0E0916B01F0916C017C
:1003E6000995E03029F0E6B7EF70E06CE6BF7EC015
:1003F60002C0689420F802C0E83809F402C0E8395F
:1004060029F4E6B7EF70E068E6BF70C0E03AA9F4F9
:10041600E6B7EF70E06CE6BF689421F8E0916B01F7
:10042600F0916C01309739F0A1E0E0916B01F09109
:100436006C01099501C026E059C0E03B11F422E0A9
:1004460002C0E83AB9F4E0916D01F0916E0130977F
:1004560059F0A0E0E0916D01F0916E0109953E2FF3
:10046600E03011F020E002C026E03AC000E0E89457
:1004760020F802C0E83BE1F420FE02C021E030C0D3
:10048600E02F0F5FA0916401B0916501F0E0AE0F1F
:10049600BF1FEC91E3B9031720F4E6B7EF70E06CE9
:1004A60005C0689420F8E6B7EF70E068E6BF1EC0A6
:1004B600E03C11F0E83C89F4E6B7EF70E06CE6BF8B
:1004C600E0916D01F0916E01309731F0A1E0E0917D
:1004D6006D01F0916E01099507C0E03039F423E013
:1004E600E6B7EF70E06DE6BF689421F810936101FE
:1004F6000093600120936201309366010E94C50259
:100506002696E991EFBFF991E991B991A99199914F
:10051600899179916991F990199009901895109699
:1005260039F080ED97E00197F1F7A8951197C9F793
:100536000895EA17E1E009F0EE2708950024112452
:1005460090E1AA0FBB1F001C111C0E1A1F0A18F4FB
:100556000E0E1F1E01C0A1609A9599F7FD01D001EC
:100566000895E881F9816A817B810895E883F9839A
:100576006A837B8308955A934A933A932A931A93EC
:100586000A9308955D814C813B812A8119810881F6
:100596000895AC0FBD1F05900D928A95E1F7089559
:00000001FF
