:0C0000000C94DF030C9400000C94000032
:10000C000C9400000C9400000C9400000C94000064
:10001C000C9400000C9400000C9400000C94F3045D
:10002C000C9451050C9400000C946F050C947F04F7
:10003C000C9400000C9400000C94B5080C94000077
:10004C000C9400000C9400000507206000000000D8
:10005C000000005F00000007000700147F147F14ED
:10006C00242A7F2A12231308646236495522500031
:10007C0005030000001C2241000041221C00082A3C
:10008C001C2A0808083E0808005030000008080820
:10009C000808003030000020100804023E51494589
:1000AC003E00427F400042615149462141454B315F
:1000BC001814127F1027454545393C4A49493001EF
:1000CC00710905033649494936064949291E003646
:1000DC003600000056360000000814224114141497
:1000EC0014144122140800020151090632497941C5
:1000FC003E7E1111117E7F494949363E41414122D4
:10010C007F4141221C7F494949417F090901013E38
:10011C00414151327F0808087F00417F4100204057
:10012C00413F017F081422417F404040407F020440
:10013C00027F7F0408107F3E4141413E7F0909093F
:10014C00063E4151215E7F091929464649494931EC
:10015C0001017F01013F4040403F1F2040201F7F95
:10016C002018207F6314081463030478040361517E
:10017C0049454300007F4141020408102041417F62
:10018C00000004020102044040404040000102040F
:10019C000020545454787F48444438384444442014
:1001AC00384444487F3854545418087E09010208D6
:1001BC001454543C7F0804047800447D40002040D3
:1001CC00443D00007F10284400417F40007C04180F
:1001DC0004787C0804047838444444387C1414149F
:1001EC0008081414187C7C0804040848545454203F
:1001FC00043F4440203C4040207C1C2040201C3CC0
:10020C004030403C44281028440C5050503C44642E
:10021C00544C44000836410000007F000000413679
:10022C00080002010204027F4141417F800040002E
:10023C00FEFEFEFCFFFFFFFFFFFFFFFFFFFFFF9F28
:10024C000B37E79FCFE9F2FE3DBEDFFFFFBF7DF12D
:10025C00EBCBED8E75ECB7D45D1BB79FFEFFFCF2BC
:10026C00EFFFFFFFF5E2F2FF3F5F5F2FBFB7235FAA
:10027C005B07B7BFB7EFDF3F5F3E3DFF1FBF1E6F92
:10028C00BE9E6F1FFF9D3C7A7DFFF7EFD3CDFBFF2A
:10029C003E5CB97BFE7FFFFFF6D3EDFCFFFFFFEF6B
:1002AC00F7E7F7FFFFE9E6FD7FBF3FFFDFFFFFFF4B
:1002BC00FFFFFFFFFFFFFFFFFFFFFFFFFFFFFF81C0
:1002CC00E4FB0403F8F3FFFFFDFFFBF7FBFBE1FC92
:1002DC00E5C3B7A7DF5EFCFBFDFFDF37CB09F5906D
:1002EC00DFD90DECAFA94FD2D7EFEBF7FAFD7BFBC3
:1002FC00FDFDFEFEFFFEFEFFFEEF7FFFFFFFFFFF9B
:10030C00FEFFFF7F3C7CBFFCF9FCF8FFFF3F4F9BDF
:10031C006493F8FDFFFB7C7AFDFBF5E5F1D1E7E397
:10032C00EBBBB3D75377378EDE1F9FBF3F3FFF7FAB
:10033C00E7FFEFEFFFFFFFFFFFFFFFFFFFFFFF3FB9
:10034C00E127F87E606F1FFCFFF7FF77FEF6EEF6F5
:10035C00F7E9E7FFE7F7F77FFFBF5E2A55378866B7
:10036C00D2FEF0FCFEBE7FCFF7F7FBFFFBFBF3F7F3
:10037C00FFBFAF97EFF5FBFCFFFDFEFDFEFFFD772A
:10038C00337FFF3EFFFFFF3F5F67B56AD1EDFB7E1A
:10039C009FBFAF63BC6E9D35CA6AF5FD4A4C4B0BD3
:1003AC003DF5F3C3CFD76F561FAFDFBCFBF9F6C9D2
:1003BC00BE1A5FEDFFFFFFFFFFFFFFFFFFFFFFE038
:1003CC00AF30BF4CD0CFBFBFBFFEFFFFFFFFF2F37C
:1003DC0074FCFFFF0F6315CB74B290D1FAFFFEFFD4
:1003EC00FFFFFFFFFFF4EFFFFFFFFFFFFF5F4FC7B4
:1003FC00EFF7FBFBFBFBFDF9F7EBF7EFDFDDFDFEAA
:10040C00FFFFFFFFBF318AB9C6F2FE3FDFB3CD4419
:10041C00FE9BC47B8D6C919B3FDF7EF4E3C84AC38B
:10042C00037804FEFEFCF3C90DCECCEFE8D6EDCB81
:10043C00CFEFC36BFFFFFFFFFFFFFFFFFFFFFFFFD0
:10044C00FFFEFCFFFEFA6517B08FFFFFFEFFF7FF04
:10045C007B7FBFFFFCF8F389B45BA4FEFFFFFFBFFB
:10046C00FFFF5FAFEBF3FDFDFCFEFFFFCC52FFFF88
:10047C00FFFFFFFFBF3F47CBE3FDF3FDF8FDFAFAAB
:10048C00FFFF4F3C021BC5FEFF1FCC33E6769A6282
:10049C00DBB4EFDEB973ECF1824BB42FFFFFFCE160
:1004AC009EF08A27FFFFC837147CECFF3FAB44CB90
:1004BC00FFFDF5FBFEFFFFFFFFFFFFFFFFFFFFFF51
:1004CC00FFFFFFFFFFFFFFBF7F9FEFD3E9FD79BF6A
:1004DC00FD7CAEFEFFFFDF673209E7FFFFFFFFFF8A
:1004EC00FFFFF3EADF9F7FFFFFBF37EBF7FFFEFC59
:1004FC00FDFFFFEFCAC7FFFFFFFFFFFFFFFFFFFF7F
:10050C00FFFFF37B956B90DFFFFED4683456AD5F35
:10051C007AB579E4FAF1CEB7AF3FDF7DFAF9CFDFE8
:10052C00FFFE7DF33FBF79B0B37FFFE7FCFCFE7F9E
:10053C007FFFF63D86FFFFFFFFFFFFFFFFFFFFFF83
:10054C00FFFFFFFFFFFFF6FAFF5FE72FD7F2FC7DFF
:10055C001C3F07AFDFFFFEFDF1DCB10BDF7FFFFFC0
:10056C00E7FFF9FFFF7F7FBFDF1E2EDF670FB3B7FB
:10057C00C7E3EDE5F3F7F4F8E3616DFCF2E2EDD1DE
:10058C00CBBFFFFEF1EE5B54ABB7EFFFFEF3FC38D5
:10059C007BBDF87ABDBBFF7BE7EFFEFFAF836D4BF6
:1005AC00567DABA6686A84B49BB0FDCCA3B36F1F19
:1005BC00FEFFFFFEFFFFFFFFFFFFFFFFFFFFFFFF41
:1005CC00FFFFFFFFFFFF4B0A74F3FC3FB7F58AE513
:1005DC00FBFF3FFFEBF2FB77B73FFFBF3E9EAF4FFA
:1005EC00D7B3E9E6E2F275F83EDD2EAFD72FBF03A5
:1005FC006D45D393F55D8AAA6DDDB26ADC7AECE1C8
:10060C00D32BF32BC7FFFFFF5F9F4B91692A6D35EF
:10061C00DD6C369A7163F499E6C9EFFFFEF6AB9583
:10062C00F9FFBCFE2F57E3E7FFF1F5EBDFE3972F64
:10063C001027E80364000A000100001000011000FC
:10064C000100000103070F1F3F7FFF0002000000A5
:10065C00000000000000000048656C6C6F2C20202E
:10066C0057656C636F6D6520746F206C61737420BB
:10067C006F6E6C696E6520636C61737320696E209C
:10068C00313339390D0A2020202020202020202031
:10069C00202A2A2A20202020204D41535445522024
:1006AC004D4943524F202020202A2A2A0D0D0D0A95
:1006BC00005720454550524F4D0D0A0052204545DC
:1006CC0050524F4D0D0A00446973706C61790D0ADC
:1006DC00000D0A2053656E64696E67203A20202055
:1006EC002020202000256420202020000D0A2052EC
:1006FC006563656976696E67203A2020202020208A
:10070C0020000D0A20414443303D25640D0A0000B1
:10071C00630063000D0A20414443303D2564206191
:10072C007064617465642121200D0A006572726F1A
:10073C0072205B25645D3D25640D0A006572726F45
:10074C0072205B25645D3D25642D2D25640D0A000A
:10075C006461746120636F72726563740D0A0000CA
:10076C00070001002D4E414E00494E46000001008D
:10077C00020058060A0004005A065900600164067B
:10078C000B00B901BD060B00C401C8060A00CF015D
:10079C00D3061400D901DD061600ED01F80603009E
:1007AC0005021C0701000C026C0701003A046E07DD
:1007BC000000F894EE27ECBBF1E0FBBFEBBFE5BF0C
:1007CC008DE0A2E0BB27ED938A95E9F780E094E0F9
:1007DC00A0E6ED930197E9F7EAE7F7E085919591AB
:1007EC00009761F0A591B59105901590BF01F001AE
:1007FC0005900D920197E1F7FB01F0CFEFE5EDBF0E
:10080C00E4E0EEBFC0E6D1E00C940C042C970E94FF
:10081C0045050E94EC040E94A305A0E6B1E00E94ED
:10082C00F806BED078940E94DF06A8EEB3E00E94D2
:10083C002912A9EBB1E00E94F8060E94AC06A4ECC8
:10084C00B1E00E94F806AFECB1E00E94F8060E94FD
:10085C00C8060E94AE05A9EDB1E00E94F806A0E220
:10086C000E94F8050E949A100A30E0E01E077CF402
:10087C000E94A110F8010E94A910A02F0E9412063C
:10088C00A4EFB1E00E9429120F5F1F4FEDCFADEE28
:10089C00B1E00E94F806A1E20E94CE050E949A10D7
:1008AC000A30E0E01E0704F50930E0E01E072CF4E6
:1008BC000E94A1100E94290604C00E94A1100E944F
:1008CC002F06FF27662777270E94711484E00E9469
:1008DC0081082896DE010E94F806A4EFB1E00E9480
:1008EC0029120F5F1F4FDCCF0E94F20530D0B1CF21
:1008FC00FFCF8A93AA93BA93EA93FA93EFB7EA934A
:10090C00E0912A02A3E0B2E0F0E0EE0FFF1FAE0F81
:10091C00BF1FE4B1F5B1ED93FC93A0912A02AF5F38
:10092C00A0932A02A13018F0E0E0E0932A02E091B3
:10093C002A02E05CE7B98BE18A95F1F7369AE991E6
:10094C00EFBFF991E991B991A991899118956497A3
:10095C00A0E02DD0E0930302F0930402A0910302D7
:10096C00B09104024A165B06C9F0E0910302EFB99C
:10097C00AAE0B0E00E942912E0910402F070EFB9F5
:10098C004090030250900402FE01FA93EA93EEE0C9
:10099C00F7E0FA93EA93F2010E94A9100C947F08F5
:1009AC00E0E4E7B9E7EEE6B9E0E0E0BF0895AA932A
:1009BC00E881E064E7B98BE18A95F1F7369A349BCC
:1009CC00FECF349AE4B1F5B10C94F70AE0EDEDB931
:1009DC00E0E0EEB9EEB1EFB108950A921A92FA92F4
:1009EC006A937A938A939A93AA93BA93EA93FA9313
:1009FC00EFB7EA936497E0910902A5E0B2E0F0E06A
:100A0C00EE0FFF1FAE0FBF1FEFB1F0E0ED93FC93A5
:100A1C00E0910902EF5FE0930902A0910902A23074
:100A2C0029F4689420F8E0E0E093090221FC18C056
:100A3C0020FE16C0FE01FA93EA93E0E2F7E0FA9387
:100A4C00EA93E0910502F0910602F070DF01F0915B
:100A5C000702E0E0EA2BFB2B0E94A910E89420F897
:100A6C006496E991EFBFF991E991B991A9919991A6
:100A7C00899179916991F990199009901895E0E014
:100A8C00EABBEBBBE0EBE7BBE0E0E8BBE4BBE5BB00
:100A9C00E1BBE2BB0895EA93FA93EFB7EA931A939A
:100AAC000A931BB10CB1E12FEC7161F4E72D739437
:100ABC00F0E0E55DFD4F0083F40131964F0111F438
:100ACC00689422F809911991E991EFBFF991E99194
:100ADC0018950A92EA93FA93EFB7EA930C2C0D2827
:100AEC0051F0F60131976F01EA2DA394F0E0E55D2A
:100AFC00FC4FE081ECB9E991EFBFF991E9910990D4
:100B0C001895AA93E0E0F1E0EC15FD05D9F3F89403
:100B1C000C2C0D2811F45D990BC0EB2DB394F0E067
:100B2C00E55DFC4FA881A083F60131966F0102C0F0
:100B3C00E881ECB978940C94F70AE0E0EBB9E8EDB5
:100B4C00EAB9E6E8E0BDE0E0E0BDE3E3E9B9089529
:100B5C00E0E0F0E060E870E40E947114E1B9FF2776
:100B6C00662777270E94BC12DF01CB010E94AE0FD3
:100B7C00A0E0B0E080E090E40E944613A0E0B0E07A
:100B8C0080E892E40E9494130E948312E0B90895C5
:100B9C00AA931A93E4EAE6BFE6B7E078E9F3E1B189
:100BAC00E87F1E2F103119F0E0E00C944F0A0E94E0
:100BBC00B410E6B7E078E9F3E1B1E87F1E2F10340A
:100BCC0019F4E1E00C944F0A103219F4E2E00C94A1
:100BDC004F0AE3E00C944F0AE4E9E6BFE6B7E4FD04
:100BEC00FDCF0895AA931A93E4EAE6BFE6B7E0783E
:100BFC00E9F3E1B1E87F1E2F1830B1F70E94B41071
:100C0C00E6B7E078E9F3E1B1E87F1E2F183111F077
:100C1C00E3DFEACF0C944F0AAA931A930E94B41004
:100C2C00E6B7E078E9F3E1B1E87F1E2F183219F44A
:100C3C00E0E00C944F0A103319F4E1E00C944F0AE5
:100C4C00E2E00C944F0AE4ECE6BFE6B7E078E9F397
:100C5C0005C0E4E8E6BFE6B7E078E9F3E3B1089550
:100C6C00BA93AA930E94B814E885F985309719F0C5
:100C7C0024E030E002C020E030E00E94DD11A0EA68
:100C8C000E941112A9850E941112E885AE2F0E94B4
:100C9C0011120E94DD11A1EA0E9411128901EE814C
:100CAC00FF810E171F072CF53197E017F10759F448
:100CBC00F801E050F040FF93EF93A0E00E94F61192
:100CCC00AF91BF910AC0F801E050F040FF93EF9351
:100CDC00A1E00E94F611AF91BF910E949414A0E084
:100CEC00B0E0A00FB11F0E9488145E2F0F5F1F4F42
:100CFC00D6CF0E94EC11E52F0E94BF142A960895BE
:100D0C00BA93AA931A930E94DD11A0EA0E941112C1
:100D1C00AA810E941112A9810E94111210E01031B7
:100D2C0068F4E12FF0E0A981BA81EA0FFB1FE85CBF
:100D3C00FD4FA4910E9411121F5FF1CF0E94EC1184
:100D4C00AAE0B0E00E9429120C940A0724971A9387
:100D5C000A930E94D81100E010E00034E0E01E0776
:100D6C006CF4F8010E9419140E9428140E94B91006
:100D7C00AA81BB81C5DF0F5F1F4FEFCF198108819F
:100D8C000C94D00B64971A930A930E94710BE0E0B9
:100D9C00F0E00E94BE10E0E00E94C710E4E0F2E038
:100DAC000E94BE10E0E20E94C7101981088166966D
:100DBC0008952697E4E5F0E0E883F983E0E0EA8320
:100DCC00EB83EC83ED83DE010E940C0BE0E0EA93F5
:100DDC00EA93E8E3F2E0FA93EA93A0E00E94030EB0
:100DEC000C94D00BBA93AA931A93A981BA81ED9162
:100DFC00A983BA831E2FE03021F0A12F0E94870512
:100E0C00F4CFAAE00E948705188123960895BA931F
:100E1C00AA931A930A93AA81BB8112960E94551425
:100E2C00309759F1AA81BB8114960E9455148F01F9
:100E3C00309761F00230E0E01E0798F0F80131972E
:100E4C008F01AA81BB811496ED93FC93AA81BB817F
:100E5C001296ED91FD913196FE93EE933197AC8104
:100E6C00A083AA81BB810E945514FF232AF0ED9127
:100E7C00FD913196FE93EE9306C0AA81BB81EFEFF4
:100E8C00FFEFED93FC931981088125960895BA9391
:100E9C00AA9326970E94B81410E0AC85BD85E0E0BB
:100EAC00F0E0ED93FC93EA89FB893196EA8BFB8B9E
:100EBC003197E4912E2FE03009F415C1E12FE03089
:100ECC0039F4253211F411E002C00E94CF100AC18E
:100EDC00E130A9F4253219F40E94CF1002C112E0BE
:100EEC0040E000E02D3211F401E0FCC02B3211F493
:100EFC004BE2F8C0203211F440E2F4C002C0E23000
:100F0C0039F450E013E0203311F40068EBC003C057
:100F1C00E33009F0E7C0203310F02A3308F007C0A3
:100F2C00AAE05A9F502DE22FE0535E0FDBC0E22F58
:100F3C00E33649F40E94D610E889F989A481AA9372
:100F4C000E94DC10CEC0E33741F40E94D6100E9400
:100F5C00E2100E9410101E2F0AC0E03761F40E94AC
:100F6C00D6100E94E2100E941C101E2F0860026016
:100F7C000F7730E034C0E43611F0E93611F4046038
:100F8C0002C0E53731F4ECE3F6E0EE83FF8315E0C5
:100F9C000CC0E83511F4086003C0E83709F0A1C0B3
:100FAC00E6E4F6E0EE83FF8314E002FF14C00E9437
:100FBC00D6100E94EC10AB85AA233AF4EA85FB8587
:100FCC000E94FD13EA87FB874DE2403011F01F5F52
:100FDC0001C00B7F04C00E94D6100E94EC1000FDD3
:100FEC0011C0151778F407FF08C002FF04C00B7F6F
:100FFC00242F115001C020E301C020E20E94CF1029
:10100C005150EFCF312F01FF17C03030A1F003FF4B
:10101C0006C0EE81FF812591EE83FF8305C0AE8172
:10102C00BF812D91AE83BF830E94CF10503009F049
:10103C0051503150EACF4BC020E3EE81FF810E942A
:10104C005E14E887F987EE81FF813296EE83FF8389
:10105C00E885F985AA85BB85AE17BF0750F02F5FD1
:10106C00A885B985EA85FB85EA1BFB0BEA87FB871C
:10107C00EFCF2A3328F003FF02C0295F01C0295D9E
:10108C0004FD1AC0213320F4A885B985119709F401
:10109C0009C0531710F000FF01C013C020E207FF76
:1010AC000BC020E3006102FF07C00B7F4A930E9434
:1010BC00DC10503009F051500E94CF10503009F024
:1010CC0051503150A885B985129708F0B5CF00FF63
:1010DC0008C0503031F05150E0E2EA930E94DC102D
:1010EC00F8CF10E0E0CEAC85BD850E9455140E946F
:1010FC00BF1464960895FF92F82E26970E94BA1496
:10110C000E94F410309719F4EFEFFFEF23C0DE01CB
:10111C0016960E94F9138D010E94F410EE83FF8342
:10112C00E0E0E887E987DE011A960E94F9130E9435
:10113C005514FA93EA931A930A93EDE0F7E0FA93B5
:10114C00EA93DE011A96A3DE9F01AE81BF81E0E037
:10115C00EC93F9010E94C1142A96FF9008950A920B
:10116C001A92FA926A937A938A939A93AA93BA935D
:10117C00EA93FA93EFB7EA930E94B81410910B021A
:10118C0000910A0230912E0420910C02E12FA091C3
:10119C002F04B0913004F0E0EA0FFB1FAF01E1B176
:1011AC00E87FE83011F420E002C0E03119F4E0915E
:1011BC002B0410C0E83111F0E83221F5031780F44C
:1011CC00E02F0F5FA0912C04B0912D04F0E0AE0F36
:1011DC00BF1FEC91E3B9E6B7EF70E068E6BF11C052
:1011EC00E09131041E1760F4E0912B04E160E09370
:1011FC002B04E89423F8E6B7EF70E06AE6BFFBC077
:10120C0033C0F9C0E03529F4E3B1DA01EC931F5F88
:10121C0002C0E03471F4E0913104E1501E1720F06B
:10122C00E6B7EF70E06803C0E6B7EF70E06CE6BFBE
:10123C00E2C0E83529F4E3B1DA01EC931F5F02C098
:10124C00E03209F402C0E03309F402C0E83469F476
:10125C00203051F423FE03C0031728F005C0E091A1
:10126C0031041E1708F424E0C0C0E83329F422E04E
:10127C00E6B7EF70E068BCC0E83611F0E83711F45F
:10128C0022E005C0E03611F0E03791F420E010E0E8
:10129C00E89423F8E0913204E03029F421E0E6B739
:1012AC00EF70E06803C0E6B7EF70E06CE6BFA3C078
:1012BC00E03811F0E03929F523FE02C021E095C099
:1012CC00E3B1DA01EC931F5FE09132041E17B0F426
:1012DC00E0913304F0913404309711F426E085C08A
:1012EC00A0E0E0913304F09134040995E03029F04A
:1012FC00E6B7EF70E06CE6BF7EC002C0689423F8DE
:10130C0002C0E83809F402C0E83929F4E6B7EF70F6
:10131C00E068E6BF70C0E03AA9F4E6B7EF70E06CA5
:10132C00E6BF689424F8E0913304F09134043097CC
:10133C0039F0A1E0E0913304F0913404099501C037
:10134C0026E059C0E03B11F422E002C0E83AB9F4BF
:10135C00E0913504F0913604309759F0A0E0E0911B
:10136C003504F091360409953E2FE03011F020E061
:10137C0002C026E03AC000E0E89423F802C0E83B43
:10138C00E1F423FE02C021E030C0E02F0F5FA091FA
:10139C002C04B0912D04F0E0AE0FBF1FEC91E3B91B
:1013AC00031720F4E6B7EF70E06C05C0689423F8DF
:1013BC00E6B7EF70E068E6BF1EC0E03C11F0E83C19
:1013CC0089F4E6B7EF70E06CE6BFE0913504F0917C
:1013DC003604309731F0A1E0E0913504F0913604F9
:1013EC00099507C0E03039F423E0E6B7EF70E06D03
:1013FC00E6BF689424F810930B0200930A02209322
:10140C000C0230932E040E94BF142696E991EFBF74
:10141C00F991E991B991A9919991899179916991F0
:10142C00F9901990099018950000DA9A0000089527
:10143C00DA98DF9ADE9A08951A93F6DF10E0B099E5
:10144C0011E0B199126082991460839918608499A3
:10145C001061859910628699106487991068DA98E2
:10146C00E12F19910895AA931A930E94FB10DC980E
:10147C00A981E2E0EA1B1E2F10FF02C0DF9A01C017
:10148C00DF9811FF02C0DE9A01C0DE98D5DFE0784C
:10149C00E9F7188122960895AA93A981E4DF0E94A6
:1014AC00051111F0C09A01C0C098E881E27011F0EA
:1014BC00C19A01C0C198E881E47011F0929A01C000
:1014CC009298E881E87011F0939A01C09398E881A2
:1014DC00E07111F0949A01C09498E881E07211F0D7
:1014EC00959A01C09598E881E07411F0969A01C024
:1014FC009698E881E07811F0979A01C0979894DF5C
:10150C0097DF0C943210E0913804EA93E0913704A1
:10151C00EF73E064AE2FC0DFE0913804EA93E09102
:10152C003904E86BAE2FB8DF0895AA93E981E093F4
:10153C003704E295EF70E695E695E0933804E88180
:10154C00E0933904E0DF0C943210A0913704AF5FC4
:10155C00A0933704A03818F0E0E0E0933704E09152
:10156C003704EF7331F4E0913704EA93A091390416
:10157C00DCDF0895AA93A091380475DFDC9A0E94F1
:10158C00051111F0C09A01C0C098E881E27011F009
:10159C00C19A01C0C198E881E47011F0929A01C01F
:1015AC009298E881E87011F0939A01C09398E881C1
:1015BC00E07111F0949A01C09498E881E07211F0F6
:1015CC00959A01C09598E881E07411F0969A01C043
:1015DC009698E881E07811F0979A01C0979824DFEB
:1015EC0027DF21960895A09138043DDF0E94FB105F
:1015FC00DC9A22DF0895AA93E981EA93E9810E949B
:10160C001111F1DF80DFEFDF0C943210BA93AA9343
:10161C001A93D29AD39AD49AD59ADD9AD79AD69A03
:10162C0007DFDD98A4E6B0E00E942912DD9A10E0F5
:10163C00123040F41A93AFE32FDF1A931395A0ECFA
:10164C002BDFF6CFE1E0E0930D02E0E0E0930E0239
:10165C00E981FA813097A9F0A981BA810E945514C9
:10166C00E0931102F093120212960E945514E0932B
:10167C002602F0932702A981BA8114960E94551470
:10168C000AC0E0E0F0E0E0931102F0931202E09364
:10169C002602F0932702E0932802F0932902E1E05E
:1016AC00E0931302E0931402E0931502EFEFE09342
:1016BC001602E1E0E0931D02EEE1F2E0FA93EA9308
:1016CC00EFEFEA93A8E0B0E00E94001004D0E1E054
:1016DC0018810C9479100E94BA1400E030E0E0916B
:1016EC000E02E03009F00FEF383078F4E0E0EA93C6
:1016FC00A32F3F5F1ADF10E0A12F1F5FA03820F44B
:10170C00A02F0E941711F8CFEFCFE0E0EA93A0E0F2
:10171C000CDFE0E0EA93A0E0ABD20E94C1140C9481
:10172C009810AA931A93ED81EA93AD8164DF1E2F72
:10173C00EADEE981E73011F0E83039F4EB81EA9325
:10174C00AA810E943410EB8308C0E33021F4EB81B2
:10175C00E095EB8302C0E03021F4EA81E0951E2392
:10176C0002C0E23029F4EA81AB81EA231E2B0EC0C1
:10177C00E13029F4EA81AB81EA231E2707C0E4306B
:10178C0029F4EA81E095AB81EA2B1E23A12F0E945C
:10179C001711188126960895AA9323970E94B814BE
:1017AC00A889A03848F4AF85A03430F4AE85A030B9
:1017BC0019F0AD85A03009F4C8C1EE85E887A88979
:1017CC00BB27EE85F0E0AE0FBF1FA138E0E0BE07EF
:1017DC0020F0A889E0E8EA1BEE872D85AF85BB27B2
:1017EC00ED85F0E0AE0FBF1FA134E0E0BE0720F0A6
:1017FC00AF85E0E4EA1BED87A985A63009F05BC054
:10180C00EC85E13009F4A1C1E33039F4E091280210
:10181C00F0912902309709F498C10885ED85E69579
:10182C00E695E6953E2FE22FE77019F4AD852A1761
:10183C00E9F0A02FBB27E32FF0E00E942D14AA851E
:10184C00BB850E941B11269526952695532F5F93D9
:10185C005F5FE22FAF91EA1748F0102FE12F115084
:10186C00E03019F00E942011F9CFF1CFAE850A17A4
:10187C0011F1EE85AA85BB85F0E00E941B11ED8568
:10188C00E77009F03F5F20E02F932F5FE32FAF91BC
:10189C00AE1788F41E851F931F5FE02FAF91AE1714
:1018AC0018F40E942011F7CFEE85AE81BF81F0E0D5
:1018BC000E941B11E9CFEF85E7703E2FED85E030DC
:1018CC0009F443C1EA85FB85EE83FF8310E00889A8
:1018DC00303009F065C0AD85A83008F45CC0E985EE
:1018EC00E03011F0E33009F402C0E73009F402C033
:1018FC00E83009F402C0E63009F402C0E93009F41A
:10190C0002C0EA3021F40A93E8890E9411111F9356
:10191C001F5FEE85AF91AE17B8F5A985A63061F4BF
:10192C0062DEF1DD0E942D11FA93EA935CDEAE2F9C
:10193C000E947B100ADE27C0E985E93011F450E0E3
:10194C000EC0EA3011F45FEF0AC00E942D110E9404
:10195C0036115E2FE985E73011F0E83021F40E9452
:10196C003C115E2F06C0E33011F4509502C0E030FC
:10197C0021F4A52F0E94171106C00E944011EFEF11
:10198C00EA93AD85CEDEC3CFEF85E85FEF87ED85BB
:10199C00E850ED87D1C05D8520E0E0E0ED877AC0AE
:1019AC00E32FAD85AE0FA93020F42D85E0E0ED8757
:1019BC0003C0E8E0E31B2E2F3A93A22F0E942910BC
:1019CC004E2FE985E630F1F41F931F5FEE85AF9142
:1019DC00AE17B8F40E944611AE2FE32F0E941114DB
:1019EC000E944D11E32FA42F0E941114E095E121C8
:1019FC005E2B0E942D11FA93EA93A52F0E947B1067
:101A0C00E3CF2CC0E93011F450E003C0EA30A9F464
:101A1C005FEF0E943C11AE2FE32F0E9409145E2F42
:101A2C001F931F5FEE85AF91AE1730F40E944011EB
:101A3C004A93A0E076DEF4CF11C01F931F5FEE85B2
:101A4C00AF91AE1758F40E945811AE2FE32F0E949D
:101A5C000914EA934A93AD8564DEEFCFED85E0304F
:101A6C0009F473C0AD85A83028F4ED85E21B5E2F18
:101A7C00E0E003C0532FED85E850ED8710E0EF85D3
:101A8C00E85FEF87E8E0E31B2E2F0889EA85FB85EA
:101A9C00EE83FF83E52FF0E0E25BF94F4491E9859B
:101AAC00E630F1F41F931F5FEE85AF91AE17B8F4DB
:101ABC000E944611AE2FE22F0E9409140E944D1174
:101ACC00E22FA42F0E940914E095E1215E2B0E94C5
:101ADC002D11FA93EA93A52F0E947B10E3CF2CC013
:101AEC00E93011F450E003C0EA30A9F45FEF0E9432
:101AFC003C11AE2FE22F0E9411145E2F1F931F5F1B
:101B0C00EE85AF91AE1730F40E9440114A93A0E0DD
:101B1C0008DEF4CF11C01F931F5FEE85AF91AE1797
:101B2C0058F40E945811AE2FE22F0E941114EA9320
:101B3C004A93AD85F6DDEFCFE885AA85BB85F0E04D
:101B4C00EA0FFB1FEA87FB87B9CE0E94BF14619690
:101B5C0008950E94651124F0E0E0F0E00C9432103E
:101B6C00A881B981A038E0E0BE0724F0EFE7F0E0EF
:101B7C000C943210E881F9810C9432100E9465119A
:101B8C0024F0E0E0F0E00C943210A881B981A0348C
:101B9C00E0E0BE0724F0EFE3F0E00C943210E881B3
:101BAC00F9810C943210AA931A93AA81A03818F4D4
:101BBC00A981A03428F00E946C1118810C94791022
:101BCC00E981E7701E2FE981E695E695E695E983B4
:101BDC00103011F0EF5FE983AA81BB278827992782
:101BEC00E981FF27662777270E943514EC5FFF4FAA
:101BFC006F4F7F4F18810C947910AA930E94BA14DE
:101C0C00AC81A530A0F4ED81FE8105910E9471118B
:101C1C0015910E94711125910E9471113591ED83DE
:101C2C00FE830E947411E1E00E947B111DC018C05C
:101C3C00AA930E94BA14AC81A53090F40E9487112B
:101C4C000E2F0E9487111E2F0E9487112E2F0E948B
:101C5C0087113E2F0E947411E2E00E947B1104C098
:101C6C00E0E0F0E060E070E00E94C1142996089575
:101C7C00AA93A981BB276DDFE0930F02A881BB2734
:101C8C007DDFE09310020C9432100E9476147B815D
:101C9C006A81F981E88177FB770F67FD7160972F77
:101CAC009E5781F078F0983190F4AA27BB278827AB
:101CBC0008948795B795A7959A95D1F7EA23FB23B6
:101CCC00682305C0E8947727EE27FF2766276F77F0
:101CDC00769508F4606877F9A991B99189919991F1
:101CEC00EA17FB076807790797FB08950E9476149B
:101CFC000E9467140E944B0E0E946C1421F40E94E7
:101D0C0090110C949810DEF70E9490110E94931180
:101D1C000C9498100E94761424971A930A930E949C
:101D2C009A110E94AD142CF0EFEFFFEF6FE77FEFED
:101D3C0073C00E949F110E947114ADB7BEB711976A
:101D4C001F930F930E9433120F911F910E94A411A5
:101D5C000E949A11E3EFF4E065E37FE30E94D9134C
:101D6C0040F40E94A9110E94F6120E94A411015085
:101D7C0010400E949F110E9493117F936F93FF93C9
:101D8C00EF930E949F11A0E0B0E080E89FE30E94D7
:101D9C00F612AF91BF918F919F910E9494130E9464
:101DAC00A4110E94A9110E94AB11A6E2B2E485E62F
:101DBC009FE30E94B311EEE4F1E164E570E40E944C
:101DCC00B8110E949A110E9446137F936F93FF9350
:101DDC00EF930E94BD11ADE4B1E184ED9FE30E944D
:101DEC00EF12AF91BF918F919F910E9494137F93AB
:101DFC006F93FF93EF93F8010E9428140E94BC127A
:101E0C00A8E1B2E781E39FE30E944613AF91BF9133
:101E1C008F919F910E94F612198108812A9608953C
:101E2C000E94761428971A930A930E94C211E0E537
:101E3C00FCEA6EEA72EC0E94D91318F40E946C1141
:101E4C0083C0EA85FB856C857D850E94A51429F4E9
:101E5C00E0E0F0E060E87FE377C00E94C211E8E1C7
:101E6C00F2E761EB72E40E94D91309F008F405C0A3
:101E7C00EFEFFFEF6FE77FE767C00E94C211EBE364
:101E8C00FAEA68EB7FE30E944613EA87FB876C87CC
:101E9C007D870E94C2112ADF0E9485128F010E9449
:101EAC00C2110E9428140E94BC120E94B811DF01BA
:101EBC00CB01E0E0F0E060E07FE30E94B8110E940B
:101ECC00A4110E94A9110E94AB11ADE6BCE48CE6F2
:101EDC009DE30E944613A6EAB3EE86EE90E40E94C0
:101EEC00F6120E949A110E9446130E94A4110E949D
:101EFC00BD11A8E2BDE886EA91E40E94F6120E94A8
:101F0C00B9100E949F11AA81BB818C819D810E9476
:101F1C00F612A3EFB4E085EB9FE30E9446137F9388
:101F2C006F93FF93EF930E949A110E94BD110E9430
:101F3C00EF12AF91BF918F919F910E9494130E94C9
:101F4C007114D8010E944412198108812E960895AB
:101F5C000E94761424970E94C7110E94A51419F4AC
:101F6C000E946C1145C0A885B9858A859B850E9405
:101F7C00AD1494F40E94CC110E94A51429F4E0E055
:101F8C00F0E060E87FE334C0A885B9858A859B853D
:101F9C000E94D11145DF2CC00E94CC11DE010E94A1
:101FAC0085120E9459140E9490110E94BC12DF01EC
:101FBC00CB010E94CC110E94B31419F00E946C1139
:101FCC0017C00E94C7110E945012DF01CB010E9462
:101FDC00D11126DFE887F9876A877B87E881E17072
:101FEC0019F40E94C71104C00E94C7110E9450121C
:101FFC002C960895BA93AA93B981A881109631F0C2
:10200C00FC81EB816A8161931197E9F7EB81FC818B
:10201C0025960895BA93AA93A991B991EE27FF2713
:10202C006D91662311F03196FBCF0895BA93AA9364
:10203C00AA27BB27E991F9910590002011F0119680
:10204C00FBCFFD010895AA93E881F0E0E25BF94F24
:10205C00A491E9810E94091422960895AA931A93D7
:10206C00E981E73011F0EA3019F410910D0209C042
:10207C00E93019F410910E0204C0E830A1F410916B
:10208C001D02E0910E02E03049F0103019F0EFEF34
:10209C00188129C0EA81E095188125C0103019F407
:1020AC00E0E0188120C0EA8118811DC0BA93AA9380
:1020BC00EA81E13021F4E881F981E49114C0E23045
:1020CC0029F4A881B9810E9488140DC0E33041F431
:1020DC00A881B981E0912602F0912702099503C0ED
:1020EC00A881B981EC9123960895AA93EB81E030F5
:1020FC0029F4E881A981BA81EC9314C0E23031F45F
:10210C00E881A981BA810E9494140CC0E33051F487
:10211C00E981FA81FA93EA93AA81E0912802F0917D
:10212C002902099524960895A5E0B0E00E94291291
:10213C0000E010E00895FE01FA93EA93E1EFF6E077
:10214C00FA93EA9308950E9428140E94711484E073
:10215C000E9481082896DE010C94F806E981E3B907
:10216C00E4E8E6BF0895EA83FB836C837D830895DE
:10217C00FA93EA93A0E0B2E00E943606E4E0EA9318
:10218C000895EA93E0E0F0E0FA93EA93A0E00C946F
:10219C001E0E2A93AD85BE85EF85F88909950895A5
:1021AC00E889F9893497E88BF98B0895AD85BE855C
:1021BC00EF85F88909950895A889B98914960E9424
:1021CC005514EE83FF83AE81BF810895A889B98928
:1021DC0014960E945514EA87FB870895DE011C961D
:1021EC000E94F9130E9455140895B898B9988A98CA
:1021FC008B988C988D988E988F98DB9A0895DB9895
:10220C00B89AB99A8A9A8B9A8C9A8D9A8E9A8F9A36
:10221C00E881E1700895E695E695E695AE2F0C946D
:10222C009B0A0E94C00A0C94AB0AEA0FFB1FEE83B8
:10223C00FF830895EC85EA93EF81F8853196EF835F
:10224C00F8873197FA93EA93A0E00C947B10EC8515
:10225C00EA93EF81F8853196EF83F88731970895EB
:10226C0066277727DF01CB010C945C105A93AA8563
:10227C000C9434100A930395E889EA935A930895C1
:10228C000A930395A8890E94010BE42308955E2FFD
:10229C00EC85EA93AF81B885882799270E945C105A
:1022AC001E2E08950A930395E889EA93EE85EA9326
:1022BC00E985FA853196E987FA873197D1CFBA93B8
:1022CC00AA93A881B9810E94A9140895E0E0F0E0D6
:1022DC0060E070E00895ED83FE830895E885EA934D
:1022EC00E885EA930A932A930895EA93EA85FB8595
:1022FC00FA93EA93AB850E94D20B0A93A22F0C940B
:10230C00D90DAD81BE811196AD83BE8311970E940C
:10231C00881408950E9462140895A0E0B0E080E84B
:10232C009FE30E94EF120895AE81BF818885998545
:10233C000895EE81FF81688579850895EE83FF838A
:10234C00688779870895F5DFEFCF0E9446130BDF7E
:10235C00EA81FB816C817D8108950E944613DF0127
:10236C00CB0108950E947B140E94EF120895EA811C
:10237C00FB816C817D810895AA85BB858C859D85AB
:10238C000895E885F9856A857B850895EC81FD8142
:10239C006E817F8108950E94900EAC81BD818E81EB
:1023AC009F81DBCFA898A998A09AA19815C0A19855
:1023BC00A098EE270000999B0895989B089504D04F
:1023CC00A19A02D0A09AE1E06DE007C0A19AA09A70
:1023DC0003D0A098F9DFA1986BE16A95F1F7089505
:1023EC0078E0A098F1DF989BFECFEEDF8894999966
:1023FC000894A09AF1DFEE1F7A9599F77A2F77233C
:10240C0011F4A19801C0A19ADFDFA098E5DFA09A92
:10241C00DBDFA198D9CF78E0AA0F10F4A19801C006
:10242C00A19ADADFA098D0DF989BFECFCDDFA09ADF
:10243C007A9591F7A198C8DFA098CEDFE1E0999941
:10244C00EE27A09AC1CF109639F080ED97E0019756
:10245C00F1F7A8951197C9F70895E991F991699148
:10246C00799177FB660F771F88277E57880B7D93B2
:10247C008C937EE7769567956EF00895E991F991C6
:10248C006991799177FB660F771F7A0F769567952F
:10249C000EF0089530976040704009F07058089520
:1024AC00552342F4503811F4E0FF04C03196691FF3
:1024BC00791F6BF050E8572711F45F93CFC05F3F43
:1024CC0031F0660F000C57956795752F08955F9343
:1024DC0000200AF0CFC0C8C050E8192E1522880F72
:1024EC00991F9527550F879550E8072E0522660FE3
:1024FC00771F7527550F67950895689401C0E89468
:10250C005F93F2DF703818F07F3F08F4A7C056E1F4
:10251C00571BAAF4519558300EF4593030F0EFEFA8
:10252C00FFEF6FEF7FE777F91AC077275523B9F0E4
:10253C00EE0FFF1F661F771F5A95D1F710C0772734
:10254C00583028F0EF2FF62F672F5850F9CF55231E
:10255C0031F076956795F795E7955A95D1F7002068
:10256C000AF449D15F910895689401C0E8943097BA
:10257C0060407040B1F0002426F0772312F40094F0
:10258C003AD1172E7EE1112032F07A95EE0FFF1F13
:10259C00661F111CF9CFEF2FF62F612D5F938ADF89
:1025AC005F9108954F93AF01FD01DA01AB01BC01BE
:1025BC00CA01402D012C142E4F910895EA0FFB1FD8
:1025CC00681F0895E095F0956095EF5FFF4F6F4F92
:1025DC0008955F9381DF903871F150E8152604C09F
:1025EC005F937ADF903839F1703821F1572F591BEE
:1025FC002BF112F4D7DFFACF583118F0AA27BB27EA
:10260C008827583028F0AB2FB82F88275850F9CF8F
:10261C00552329F08695B795A7955A95D9F7502D3E
:10262C00512572F0CBDF38F46795F795E7957395E4
:10263C0013F420C0B7DF3EDF5F910895D8F7FBCFCE
:10264C00EA1BFB0B680B51F010F40094BBDF662304
:10265C0092F3EE0FFF1F661F7A95CBF7EE27FF273D
:10266C00662777275F910895EFEFFFEF6FE77FEF16
:10267C005F910895EFEFFFEF6FE77FE75F910895AC
:10268C005F932ADF703851F3903841F3012408949A
:10269C00791F23F41CF300203AF3ECCF0F921F9315
:1026AC002F933F934F93112722279927689FA001BF
:1026BC008F9F302D410D591F6B9F300D411D591FA0
:1026CC008E9F27D0BF9F25D06A9F23D0BE9F1DD041
:1026DC00AF9F1BD0AE9F110D291F391F491F591FCA
:1026EC00E32FF42F652F522F4F913F912F911F9174
:1026FC000F9066232AF0550FEE1FFF1F661F02C0B6
:10270C0073954BF2CDDE5F910895100D211D391F8D
:10271C0002C0200D311D491F591F08955F93DCDE47
:10272C00703821F411200AF49FCFA4CF903809F40B
:10273C0095CF01240894970B1BF4D4F30020F3CF0E
:10274C00792F1F932F933F934F93112411272227F7
:10275C0033274427552790E2AE17BF07860741075A
:10276C0030F0AE1BBF0B860B410B089401C0889454
:10277C00551F221F331F111CAA1FBB1F881F441F6C
:10278C009A9551F7F901612D4F913F912F911F911E
:10279C00662332F0550FEE1FFF1F661F7A9543F22A
:1027AC007FDE5F91089599239AF0772342F0971773
:1027BC0048F029F4AE17BF07860720F031F0989443
:1027CC00889408959894089408951894889408957A
:1027DC007723C2F7971798F3A9F7EA17FB0768074F
:1027EC0088F399F3ECCF0024AF0DB01D0895F1954B
:1027FC00E195F0400895F09560957095E195FF4F47
:10280C006F4F7F4F0895EE230E2EEA2F19F0EE0F27
:10281C000A94E9F70895EE230E2EEA2F19F0E695A7
:10282C000A94E9F70895EE0FFF1FEE0FFF1FEE0F4E
:10283C00FF1FEE0FFF1F0895FE2FFF0FFF0B6F2FD3
:10284C007F2F08956F2F660F660B762F0895FA9FD2
:10285C00F02DEB9FF00DEA9FE02DF10D08957A9F7E
:10286C00702D6B9F700DF89F700DE99F700D6A9F16
:10287C00602D710DFB9F600D711DE89F600D711D2A
:10288C008827FA9FF02D610D781FEB9FF00D611DCD
:10289C00781FEA9FE02DF10D681F781F0895ED91C8
:1028AC00FC9111970895ED93FD936D937C9308958E
:1028BC000590F491E02D0895E881F9816A817B817E
:1028CC000895A881B9818A819B810895E883F98351
:1028DC006A837B8308957A936A93FA93EA930895B3
:1028EC009A938A93BA93AA930895182E862F612DE2
:1028FC00192E972F712D1B2EBF2FF12D1A2EAE2FA7
:10290C00E12D0895E199FECFFF93FFB7F894AEBB8C
:10291C00BFBBE09AEDB3FFBFFF910895E19B02C0EE
:10292C00A895FCCF9FB7F894AEBBBFBBE09A8DB314
:10293C00E81719F0EDBBE29AE19A9FBF0895309722
:10294C0060407040089500240A160B060895002478
:10295C000A160B06080609060895EA17FB0768070E
:10296C00790708955A934A933A932A931A930A93A0
:10297C0008955D814C813B812A81198108810895DC
:00000001FF
