:0C0000000C9451030C9400000C940000C0
:10000C000C9400000C9400000C9400000C94000064
:10001C000C9400000C94DD050C9400000C94F5037A
:10002C000C9439040C9400000C9457040C940605A1
:10003C000C9400000C9400000C9448080C940000E4
:10004C000C9400000C9400000507206000000000D8
:10005C000000005F00000007000700147F147F14ED
:10006C00242A7F2A12231308646236495522500031
:10007C0005030000001C2241000041221C00082A3C
:10008C001C2A0808083E0808005030000008080820
:10009C000808003030000020100804023E51494589
:1000AC003E00427F400042615149462141454B315F
:1000BC001814127F1027454545393C4A49493001EF
:1000CC00710905033649494936064949291E003646
:1000DC003600000056360000000814224114141497
:1000EC0014144122140800020151090632497941C5
:1000FC003E7E1111117E7F494949363E41414122D4
:10010C007F4141221C7F494949417F090901013E38
:10011C00414151327F0808087F00417F4100204057
:10012C00413F017F081422417F404040407F020440
:10013C00027F7F0408107F3E4141413E7F0909093F
:10014C00063E4151215E7F091929464649494931EC
:10015C0001017F01013F4040403F1F2040201F7F95
:10016C002018207F6314081463030478040361517E
:10017C0049454300007F4141020408102041417F62
:10018C00000004020102044040404040000102040F
:10019C000020545454787F48444438384444442014
:1001AC00384444487F3854545418087E09010208D6
:1001BC001454543C7F0804047800447D40002040D3
:1001CC00443D00007F10284400417F40007C04180F
:1001DC0004787C0804047838444444387C1414149F
:1001EC0008081414187C7C0804040848545454203F
:1001FC00043F4440203C4040207C1C2040201C3CC0
:10020C004030403C44281028440C5050503C44642E
:10021C00544C44000836410000007F000000413679
:10022C00080002010204027F4141417F400040006E
:10023C000000000000000000000000008080C0E012
:10024C00E0F0F078783C3C1C1E1E1E0E0E0E0ECEFE
:10025C00CECE0E0E0E0E1E1E1E1C3C3C7878F0F000
:10026C00E0E0C08080000000000000000000000002
:10027C00000000000080C0F0F8FC7E1F0F07070391
:10028C0001000E3E7E7C7800000000000000000F94
:10029C000F0F0000000000000000707C7E3E0E007E
:1002AC00010303070F1F3EFCF8F0E0800000000084
:1002BC000000E0F8FE7F1F07013C3C7C787070006A
:1002CC000000000000000000000000000000000022
:1002DC000000000000000000000000000000000012
:1002EC000020707078783C3C01071F7FFEF8E0001E
:1002FC00C0FFFFFF0700808080808080000000002E
:10030C0000000000000000000000000000000000E1
:10031C0000000000000000000000000000000000D1
:10032C0000000000008080808080800007FFFFFFBD
:10033C0007FFFFFFC00103030303030300000000DA
:10034C0000000000000000000000000000000000A1
:10035C000000000000000000000000000000000091
:10036C0000000000000303030303030380FFFFFFEF
:10037C0000010F7FFFFCF0C0007078783C3C1C0043
:10038C000000000000000000000000000000000061
:10039C000000000000000000000000000000000051
:1003AC0000001C3C3C78787000C0F0FCFF7F0F0113
:1003BC000000000000030F1F3F7EF8F0E0C08080BB
:1003CC000000C0F0FCFC3C0000000000000000E05D
:1003DC00E0E000000000000000003C7CFCF8E000C5
:1003EC00000080C0E0F0F87C3F1F0F03010000000C
:1003FC000000000000000000000000010307070FD0
:10040C001F1E3E3C3C787870F0F0E0E0E0E0E0EF5E
:10041C00EFEFE0E0E0E0E0F0F0F07878783C3E1EC2
:10042C001F0F070703010000000000000000000080
:10043C0000000B0015001F00290032003B00430098
:10044C004A00510057005B005F00620063006400CB
:10045C00630062005F005B00570051004A004300DC
:10046C003B00320029001F0015000B000000F6FFB6
:10047C00EBFFE1FFD7FFCEFFC5FFBDFFB6FFAFFF20
:10048C00A9FFA5FFA1FF9EFF9DFF9CFF9DFF9EFF67
:10049C00A1FFA5FFA9FFAFFFB6FFBDFFC5FFCEFFB4
:1004AC00D7FFE1FFEBFFF5FF000064006300620083
:1004BC005F005B00570051004A0043003B003200D4
:1004CC0029001F0015000A000000F6FFEBFFE1FFFA
:1004DC00D7FFCEFFC5FFBDFFB6FFAFFFA9FFA5FF3E
:1004EC00A1FF9EFF9DFF9CFF9DFF9EFFA1FFA5FF0F
:1004FC00A9FFAFFFB6FFBDFFC5FFCEFFD7FFE1FFE2
:10050C00EBFFF5FF00000A0015001F002900320068
:10051C003B0043004A00510056005B005F00620044
:10052C00630064001027E80364000A000100001057
:10053C00000110000100000103070F1F3F7FFF00A7
:10054C0002000000000000000000000048656C6C18
:10055C006F2C2020454E44206F66204F4E4C494E48
:10056C004520434C415353200D0A2020202A2A2A8F
:10057C0020202020204D4153544552204D494352B8
:10058C004F2032202020202A2A2A0D0D0D0A00543B
:10059C00494D453A20000D0A20526563656976691C
:1005AC006E67203A20202020202020002564202067
:1005BC002020000D0A2053656E64696E67203A2076
:1005CC002020202020200000630063000D0A204121
:1005DC004443303D2564206170646174656421215D
:1005EC00200D0A000D0A20414443303D25640D0ABC
:1005FC00000000060A0C0A0600FAF6F4F6FAF4F605
:10060C00FA00060A0C0A0600FAF6F4001E001E0098
:10061C0025643A25643A2564200048656C6C6F00AB
:10062C0054696D65002532643A2532643A2532648A
:10063C000000070001002D4E414E00494E460000BF
:10064C00010002004C050A0004004E054300600145
:10065C0058051600A301A2051400B901BF0503003B
:10066C00DA01D4050C000004FE050D000D040A0689
:10067C0001001A04180601001B041A060600CD011D
:10068C0026060500D3012C060100E1013E060100FF
:10069C00310440060000F894EE27ECBBF1E0FBBF00
:1006AC00EBBFE5BF8DE0A2E0BB27ED938A95E9F7A0
:1006BC0080E094E0A0E6ED930197E9F7ECE4F6E036
:1006CC0085919591009761F0A591B5910590159044
:1006DC00BF01F00105900D920197E1F7FB01F0CFFE
:1006EC00EFE5EDBFE4E0EEBFC0E6D1E00C947E0395
:1006FC0010E0E89421F80E94E2030E94EE030E94AD
:10070C008B040E9440060E941F067894A0E6B1E07C
:10071C000E9490060E942F10EBE9F5E0FA93EA9301
:10072C0080E00E9414082496E0E5EA93A0E20E947F
:10073C00920EDE010E943D0EA0E20E9496040E94E1
:10074C009D04E030B9F4A3EAB1E00E9490060E9447
:10075C00E4041E2F0E942F10E8EBF5E0FA93EA93C5
:10076C00E12F0E943310DE010E9490061F3F79F7A3
:10077C0010E020C0E130F1F421970AE0A9EBB1E0E0
:10078C000E949006A02F0E94BE04E883FE013196C1
:10079C00FA93EA93E8EBF5E0FA93EA93E02F0E94E0
:1007AC003310DE0111960E9490060F5FE881E03055
:1007BC0049F32196C4CFFFCFE0E0EABBEBBBE0EB03
:1007CC00E7BBE0E0E8BBE4BBE5BBE1BBE2BB089503
:1007DC00E0ECEDB9E0E0EEB9EEB1EFB108950E94B6
:1007EC003D106497E091DE01AAEDB1E0F0E0EE0F70
:1007FC00FF1FAE0FBF1FEFB1F0E0ED93FC93E09144
:10080C00DE01EF5FE093DE01A091DE01A23029F45E
:10081C00689420F8E0E0E093DE0121FC20C020FE8B
:10082C001EC00E942F10E8EDF5E0FA93EA93E091D8
:10083C00DA01F091DB01F070DF01F091DC01E0E016
:10084C00EA2BFB2B0E94A6110E940B1284E00E9443
:10085C0014082896DE010E949006E89420F864960D
:10086C000E944B101895EA93FA93EFB7EA931A93F8
:10087C000A931BB10CB1E12FEC7161F4E52D53948B
:10088C00F0E0E150FE4F0083F30131963F0111F48B
:10089C00689422F809911991E991EFBFF991E991C6
:1008AC0018950A92EA93FA93EFB7EA930A2C0B285D
:1008BC0051F0F50131975F01E82D8394F0E0E150A0
:1008CC00FD4FE081ECB9E991EFBFF991E991099005
:1008DC001895AA93E0E0F1E0EA15FB05D9F3F8943A
:1008EC000A2C0B2811F45D990BC0E92D9394F0E0C0
:1008FC00E150FD4FA881A083F50131965F0102C044
:10090C00E881ECB978940C941B0AE0E0EBB9E8EDC3
:10091C00EAB9E6E8E0BDE0E0E0BDE3E3E9B908955B
:10092C00AA93E881E2B9E4ECE6BF0C941B0A219788
:10093C00E6B7E078E9F3E1B1E87FE883A881A03677
:10094C0011F0A83619F4E0E00C941B0AA881A83A1F
:10095C0011F0A03B19F4E1E00C941B0AA881A0371C
:10096C0011F0A83719F4E2E00C941B0A2196DFCFA2
:10097C00AA931A93E981E3B9E4ECE6BFE6B7E07811
:10098C00E9F3E1B1E87F1E2F103A29F4E6B7E068ED
:10099C00E6BFEFEF10C0183B11F4E0E00CC0103CC8
:1009AC0029F4E6B7E068E6BFEEEF05C0183C11F499
:1009BC00EDEF01C0ECEF1881229608951A93E4EC48
:1009CC00E6BFE6B7E078E9F3E1B1E87F1E2F103817
:1009DC0011F0103919F4E3B10C94BA09183811F06C
:1009EC00183919F4E3B10C94BA09103A31F4E6B79A
:1009FC00E068E6BFEFEF0C94BA09EEEF0C94BA097D
:100A0C008A93AA93BA93EA93FA93EFB7EA93E09195
:100A1C00FF03A8EDB1E0F0E0EE0FFF1FAE0FBF1F1C
:100A2C00E4B1F5B1ED93FC93A091FF03AF5FA093FC
:100A3C00FF03A13018F0E0E0E093FF03E091FF0327
:100A4C00E05CE7B98BE18A95F1F7369AE991EFBF53
:100A5C00F991E991B991A9918991189564971A9393
:100A6C000A93FE013296FA93EA93ECE1F6E0FA93DC
:100A7C00EA93E0911E040E945910E0911F040E9419
:100A8C005910E09120040E9459108CE00E94140827
:100A9C006096E0E5EA93A8E20E94920EDE011296BF
:100AAC000E943D0E0E945F10E3E1EA93E0911A046C
:100ABC00EA93A0911B04EAD00E946610E0912004F6
:100ACC000E946A100E947410E05EEA93E091200488
:100ADC000E947E100E947410A0E2AE1B0E949F0E1A
:100AEC0024FE08C0EFE0EA93E0911C04EA93A09185
:100AFC001D04CCD00E946610E0911F040E946A1065
:100B0C000E948810E05EEA93E0911F040E947E1020
:100B1C000E948810A0E2AE1B0E949F0EE0911E0462
:100B2C00F0E00F01DF01E050FC4F808160911F0469
:100B3C007727FD01EF5FFB4FA081B0E0F001E050A3
:100B4C00FC4F0E9492101E2FE0911E04F0E00F014A
:100B5C00DF01E35FFB4F808160911F047727FD016C
:100B6C00E25FFB4FA081B0E0F001E35FFB4F0E941E
:100B7C0092100E2F0E946610E12FE05EEA93A02FD8
:100B8C00A05E0E949F0EE0912004E0931B04E09174
:100B9C002004E0931A04E0911F04E0931C04E091FC
:100BAC001F04E0931D0419810881669608950E9424
:100BBC003D10E8EDEDBDE0EFECBDE0912104EF5F01
:100BCC00E0932104A0912104A43181F5E0E0E093AD
:100BDC002104E0912004EF5FE0932004A0E023FCCB
:100BEC00A1E0E1E00E94AB11A0912004AC33E9F448
:100BFC00E0E0E0932004E0911F04EF5FE0931F041A
:100C0C00689424F8A0911F04AC3379F4E0911E048D
:100C1C00EF5FE0931E0425F8E0E0E0931F04A09141
:100C2C001E04AC3011F4E0931E0418DF0E944B102C
:100C3C001895E0E0EFBDE2E0EEBDE8EDEDBDE0EFD4
:100C4C00ECBDE0E0E7BDE6BDEBBDEABDE9BDE8BD4E
:100C5C00E4E0E9BF08952697E4E5F0E0E883F98342
:100C6C00E0E0EA83EB83EC83ED83DE010E94310A42
:100C7C000C94190BF0DFE0E0EA93EA93E8E3F2E07E
:100C8C00FA93EA93A0E00E94490E0895AA930E9459
:100C9C003A1211E0EE81F0E03196A12FB0E0AE17E0
:100CAC00BF07A4F5612F7727ED810E946A100E947F
:100CBC00A210E05E0E2F612F7727EC810E947E1030
:100CCC000E94A210A0E2AE1B3A2F0A930E94220DA2
:100CDC000A93A32FAF5F0E94220D0A93A32FA1505A
:100CEC000E94220DE02FE1500E94AB100E94AB102D
:100CFC00EA93A32FAF5F0E94220DE02FEF5FEA93E0
:100D0C00A32FA1500E94220D1F5FC4CF0E9441123D
:100D1C0027960895BA93AA931A930E94B21021F0C1
:100D2C00A12F0E946F04F9CFAAE00E946F041881D2
:100D3C0023960895BA93AA931A930A93AA81BB8116
:100D4C0012960E940312309759F1AA81BB81149616
:100D5C000E9403128F01309761F00230E0E01E0711
:100D6C0098F0F80131978F01AA81BB811496ED930D
:100D7C00FC93AA81BB811296ED91FD913196FE9365
:100D8C00EE933197AC81A083AA81BB810E940312A0
:100D9C00FF232AF0ED91FD913196FE93EE9306C060
:100DAC00AA81BB81EFEFFFEFED93FC9319810881D2
:100DBC0025960895BA93AA9326970E94381210E0AC
:100DCC00AC85BD85E0E0F0E0ED93FC93EA89FB890E
:100DDC003196EA8BFB8B3197E4912E2FE03009F49E
:100DEC0015C1E12FE03039F4253211F411E002C0C5
:100DFC000E94BA100AC1E130A9F4253219F40E94FC
:100E0C00BA1002C112E040E000E02D3211F401E012
:100E1C00FCC02B3211F44BE2F8C0203211F440E24A
:100E2C00F4C002C0E23039F450E013E0203311F486
:100E3C000068EBC003C0E33009F0E7C0203310F0CA
:100E4C002A3308F007C0AAE05A9F502DE22FE05336
:100E5C005E0FDBC0E22FE33649F40E94C110E88933
:100E6C00F989A481AA930E94C710CEC0E33741F43C
:100E7C000E94C1100E94CD100E94A50F1E2F0AC007
:100E8C00E03761F40E94C1100E94CD100E94B10F96
:100E9C001E2F086002600F7730E034C0E43611F08A
:100EAC00E93611F4046002C0E53731F4E0E3F5E013
:100EBC00EE83FF8315E00CC0E83511F4086003C025
:100ECC00E83709F0A1C0EAE3F5E0EE83FF8314E014
:100EDC0002FF14C00E94C1100E94D710AB85AA2338
:100EEC003AF4EA85FB850E949211EA87FB874DE272
:100EFC00403011F01F5F01C00B7F04C00E94C11075
:100F0C000E94D71000FD11C0151778F407FF08C018
:100F1C0002FF04C00B7F242F115001C020E301C03D
:100F2C0020E20E94BA105150EFCF312F01FF17C0B1
:100F3C003030A1F003FF06C0EE81FF812591EE83D6
:100F4C00FF8305C0AE81BF812D91AE83BF830E940C
:100F5C00BA10503009F051503150EACF4BC020E359
:100F6C00EE81FF810E940712E887F987EE81FF81ED
:100F7C003296EE83FF83E885F985AA85BB85AE178B
:100F8C00BF0750F02F5FA885B985EA85FB85EA1B62
:100F9C00FB0BEA87FB87EFCF2A3328F003FF02C055
:100FAC00295F01C0295D04FD1AC0213320F4A885F6
:100FBC00B985119709F409C0531710F000FF01C04F
:100FCC0013C020E207FF0BC020E3006102FF07C043
:100FDC000B7F4A930E94C710503009F051500E9469
:100FEC00BA10503009F051503150A885B98512977C
:100FFC0008F0B5CF00FF08C0503031F05150E0E29E
:10100C00EA930E94C710F8CF10E0E0CEAC85BD8506
:10101C000E9403120E943F1264960895FF92F82ECC
:10102C0026970E943A120E94DF10309719F4EFEFC6
:10103C00FFEF23C0DE0116960E948E118D010E94D7
:10104C00DF10EE83FF83E0E0E887E987DE011A9684
:10105C000E948E110E940312FA93EA931A930A9338
:10106C00E0EAF6E0FA93EA93DE011A96A3DE9F011A
:10107C00AE81BF81E0E0EC93F9010E9441122A9607
:10108C00FF9008950A921A92FA926A937A938A932D
:10109C009A93AA93BA93EA93FA93EFB7EA930E94BE
:1010AC0038121091E0010091DF013091250420915C
:1010BC00E101E12FA0912604B0912704F0E0EA0FA2
:1010CC00FB1FAF01E1B1E87FE83011F420E002C072
:1010DC00E03119F4E091220410C0E83111F0E8324B
:1010EC0021F5031780F4E02F0F5FA0912304B0913A
:1010FC002404F0E0AE0FBF1FEC91E3B9E6B7EF703C
:10110C00E068E6BF11C0E09128041E1760F4E0917E
:10111C002204E160E0932204E89426F8E6B7EF702D
:10112C00E06AE6BFFBC033C0F9C0E03529F4E3B197
:10113C00DA01EC931F5F02C0E03471F4E0912804F3
:10114C00E1501E1720F0E6B7EF70E06803C0E6B779
:10115C00EF70E06CE6BFE2C0E83529F4E3B1DA01E8
:10116C00EC931F5F02C0E03209F402C0E03309F4D3
:10117C0002C0E83469F4203051F426FE03C0031792
:10118C0028F005C0E09128041E1708F424E0C0C024
:10119C00E83329F422E0E6B7EF70E068BCC0E8362B
:1011AC0011F0E83711F422E005C0E03611F0E03719
:1011BC0091F420E010E0E89426F8E0912904E03066
:1011CC0029F421E0E6B7EF70E06803C0E6B7EF70F2
:1011DC00E06CE6BFA3C0E03811F0E03929F526FE3B
:1011EC0002C021E095C0E3B1DA01EC931F5FE091FE
:1011FC0029041E17B0F4E0912A04F0912B043097C7
:10120C0011F426E085C0A0E0E0912A04F0912B04B3
:10121C000995E03029F0E6B7EF70E06CE6BF7EC0D0
:10122C0002C0689426F802C0E83809F402C0E83914
:10123C0029F4E6B7EF70E068E6BF70C0E03AA9F4B5
:10124C00E6B7EF70E06CE6BF689427F8E0912A04EB
:10125C00F0912B04309739F0A1E0E0912A04F09141
:10126C002B04099501C026E059C0E03B11F422E0A3
:10127C0002C0E83AB9F4E0912C04F0912D043097B7
:10128C0059F0A0E0E0912C04F0912D0409953E2F2B
:10129C00E03011F020E002C026E03AC000E0E89413
:1012AC0026F802C0E83BE1F426FE02C021E030C083
:1012BC00E02F0F5FA0912304B0912404F0E0AE0F57
:1012CC00BF1FEC91E3B9031720F4E6B7EF70E06CA5
:1012DC0005C0689426F8E6B7EF70E068E6BF1EC05C
:1012EC00E03C11F0E83C89F4E6B7EF70E06CE6BF47
:1012FC00E0912C04F0912D04309731F0A1E0E091B5
:10130C002C04F0912D04099507C0E03039F423E04A
:10131C00E6B7EF70E06DE6BF689427F81093E00134
:10132C000093DF012093E101309325040E943F12CA
:10133C002696E991EFBFF991E991B991A99199910B
:10134C00899179916991F9901990099018950000FB
:10135C00AA9A00000895AA98AF9AAE9A08951A9383
:10136C00F6DF19B3AA98E12F19910895AA931A934D
:10137C00E0E0EABBAB9AAC98A981E2E0EA1B1E2F35
:10138C0010FF02C0AF9A01C0AF9811FF02C0AE9A15
:10139C0001C0AE98E4DFE078E9F718810C94C70F30
:1013AC00AA93A981E3DF0E94E6100C94C70FE09189
:1013BC002F04EA93E0912E04EF73E064AE2FF0DF7C
:1013CC00E0912F04EA93E0913004E86BAE2FE8DF54
:1013DC000895AA93E981E0932E04E295EF70E695C7
:1013EC00E695E0932F04E881E0933004E0DF0C9461
:1013FC00C70FA0912E04AF5FA0932E04A03818F055
:10140C00E0E0E0932E04E0912E04EF7331F4E091D0
:10141C002E04EA93A0913004DCDF0895AA93A091E6
:10142C002F04A4DFAC9A0E94E61021960895A09197
:10143C002F049CDFE0E0EABBAB9AAC9A90DF0895F6
:10144C00AA93E981EA93E9810E94EF10F0DFAFDF04
:10145C00EEDF0C94C70FBA93AA931A93A29AA39A8D
:10146C00A49AA59AAD9AA79AA69A75DFAD98A4E608
:10147C00B0E00E948411AD9A10E0123040F41A933F
:10148C00AFE38EDF1A931395A0EC8ADFF6CFE1E081
:10149C00E093E201E0E0E093E301E981FA81309727
:1014AC00A9F0A981BA810E940312E093E601F0939E
:1014BC00E70112960E940312E093FB01F093FC01EA
:1014CC00A981BA8114960E9403120AC0E0E0F0E0F0
:1014DC00E093E601F093E701E093FB01F093FC014C
:1014EC00E093FD01F093FE01E1E0E093E801E0936D
:1014FC00E9010E945F10E1E0E093F201E3EFF1E01B
:10150C00FA93EA93EFEFEA93A8E0B0E00E94950F0C
:10151C0004D0E1E018810C940E100E943A1200E005
:10152C0030E0E091E301E03009F00FEF383078F46F
:10153C00E0E0EA93A32F3F5F4CDF10E0A12F1F5F89
:10154C00A03820F4A02F0E94F510F8CFEFCFE0E0E8
:10155C00EA93A0E03EDFE0E0EA93A0E0DDD30E9456
:10156C0041120C942D10AA931A930A93AC81A038B3
:10157C0018F4AB81A03420F0198108810C94A30FCE
:10158C00EC81EA93AC815CDF1E2F11DFEB81E770FD
:10159C00A1E00E9496110E2FEA81E03011F0102B81
:1015AC0003C0E02FE0951E23A12F38DF198108819D
:1015BC000C94A30FAA931A93ED81EA93AD8140DFAB
:1015CC001E2FF5DEE981E73011F0E83039F4EB81BC
:1015DC00EA93AA810E94C90FEB8308C0E33021F47F
:1015EC00EB81E095EB8302C0E03021F4EA81E095D9
:1015FC001E2302C0E23029F4EA81AB81EA231E2BC0
:10160C000EC0E13029F4EA81AB81EA231E2707C022
:10161C00E43029F4EA81E095AB81EA2B1E23A12F5B
:10162C000E94F510188126960895AA9323970E947C
:10163C003812A889A03848F4AF85A03430F4AE85B0
:10164C00A03019F0AD85A03009F4C8C1EE85E8874B
:10165C00A889BB27EE85F0E0AE0FBF1FA138E0E0F4
:10166C00BE0720F0A889E0E8EA1BEE872D85AF8540
:10167C00BB27ED85F0E0AE0FBF1FA134E0E0BE0745
:10168C0020F0AF85E0E4EA1BED87A985A63009F0D0
:10169C005BC0EC85E13009F4A1C1E33039F4E09191
:1016AC00FD01F091FE01309709F498C10885ED8594
:1016BC00E695E695E6953E2FE22FE77019F4AD8599
:1016CC002A17E9F0A02FBB27E32FF0E00E94B011FE
:1016DC00AA85BB850E94F910269526952695532F31
:1016EC005F935F5FE22FAF91EA1748F0102FE12F65
:1016FC001150E03019F00E94FE10F9CFF1CFAE85F9
:10170C000A1711F1EE85AA85BB85F0E00E94F9104D
:10171C00ED85E77009F03F5F20E02F932F5FE32FFB
:10172C00AF91AE1788F41E851F931F5FE02FAF910A
:10173C00AE1718F40E94FE10F7CFEE85AE81BF8174
:10174C00F0E00E94F910E9CFEF85E7703E2FED85B0
:10175C00E03009F443C1EA85FB85EE83FF8310E09A
:10176C000889303009F065C0AD85A83008F45CC03C
:10177C00E985E03011F0E33009F402C0E73009F4F8
:10178C0002C0E83009F402C0E63009F402C0E930C6
:10179C0009F402C0EA3021F40A93E8890E94EF10A0
:1017AC001F931F5FEE85AF91AE17B8F5A985A630D4
:1017BC0061F43DDEFCDD0E940B11FA93EA9337DEF7
:1017CC00AE2F0E94101015DE27C0E985E93011F408
:1017DC0050E00EC0EA3011F45FEF0AC00E940B110A
:1017EC000E9414115E2FE985E73011F0E83021F4E6
:1017FC000E941A115E2F06C0E33011F4509502C0FE
:10180C00E03021F4A52F0E94F51006C00E941E1195
:10181C00EFEFEA93AD85CEDEC3CFEF85E85FEF87C0
:10182C00ED85E850ED87D1C05D8520E0E0E0ED87E7
:10183C007AC0E32FAD85AE0FA93020F42D85E0E002
:10184C00ED8703C0E8E0E31B2E2F3A93A22F0E94F2
:10185C00BE0F4E2FE985E630F1F41F931F5FEE8526
:10186C00AF91AE17B8F40E942411AE2FE32F0E9453
:10187C009E110E942B11E32FA42F0E949E11E09524
:10188C00E1215E2B0E940B11FA93EA93A52F0E9483
:10189C001010E3CF2CC0E93011F450E003C0EA3053
:1018AC00A9F45FEF0E941A11AE2FE32F0E9496113C
:1018BC005E2F1F931F5FEE85AF91AE1730F40E9421
:1018CC001E114A93A0E076DEF4CF11C01F931F5F68
:1018DC00EE85AF91AE1758F40E943611AE2FE32F60
:1018EC000E949611EA934A93AD8564DEEFCFED85A5
:1018FC00E03009F473C0AD85A83028F4ED85E21B07
:10190C005E2FE0E003C0532FED85E850ED8710E02B
:10191C00EF85E85FEF87E8E0E31B2E2F0889EA8567
:10192C00FB85EE83FF83E52FF0E0EE5BFA4F4491ED
:10193C00E985E630F1F41F931F5FEE85AF91AE178A
:10194C00B8F40E942411AE2FE22F0E9496110E942F
:10195C002B11E22FA42F0E949611E095E1215E2B12
:10196C000E940B11FA93EA93A52F0E941010E3CF5B
:10197C002CC0E93011F450E003C0EA30A9F45FEF59
:10198C000E941A11AE2FE22F0E949E115E2F1F9300
:10199C001F5FEE85AF91AE1730F40E941E114A9373
:1019AC00A0E008DEF4CF11C01F931F5FEE85AF914E
:1019BC00AE1758F40E943611AE2FE22F0E949E11E2
:1019CC00EA934A93AD85F6DDEFCFE885AA85BB8512
:1019DC00F0E0EA0FFB1FEA87FB87B9CE0E943F12AB
:1019EC00619608950E94431124F0E0E0F0E00C941D
:1019FC00C70FA881B981A038E0E0BE0724F0EFE75B
:101A0C00F0E00C94C70FE881F9810C94C70F0E9489
:101A1C00431124F0E0E0F0E00C94C70FA881B981E9
:101A2C00A034E0E0BE0724F0EFE3F0E00C94C70F25
:101A3C00E881F9810C94C70FAA93E981EA93E981B3
:101A4C00EA93A091E3018FDD0C94C70FAA931A932C
:101A5C00AA81A03818F4A981A03438F0E0E0F0E0B5
:101A6C0060E070E018810C940E10E981E7701E2F75
:101A7C00E981E695E695E695E983103011F0EF5F84
:101A8C00E983AA81BB2788279927E981FF27662745
:101A9C0077270E94B811EC5FFF4F6F4F7F4F188173
:101AAC000C940E10BA93AA9323970E944A118F019B
:101ABC00002E012A19F4E0E0F0E05FC00E94511101
:101ACC000F820E9451110E820E9451110886EB85E3
:101ADC00A885EA1718F4E0E0F0E04FC0F8010F5FBA
:101AEC001F4F5491A885BB27EE27A50FBE1FEB8572
:101AFC00F0E0EA17FB0718F0E0E0F0E03EC0EE8102
:101B0C00E695E695E6954E2FEE81E77009F04F5F6E
:101B1C00EF81E030A1F0A985BA85EC93A885EB851F
:101B2C00EA1BF0E0DF01EF81F0E00E94B011DF0171
:101B3C00E42FF0E00E94B011E00FF11F1EC09801DD
:101B4C00E52FF0E00E0F1F1FA885AF5FA887A150EF
:101B5C00EB85AE1760F4F9012F5F3F4FA491B0E015
:101B6C00E42FF0E00E94B0110E0F1F1FEDCFF90112
:101B7C00E491A985BA85EC93F8010E943F122C964A
:101B8C000895E0E0E093E401A091E501BB270E94F9
:101B9C005611F0E0AE0FBF1FE091E901F0E0AE0F7F
:101BAC00BF1F35DFE093E5010895AA9321970E94AA
:101BBC004A11309709F455C0AF81AA3009F44FC0CF
:101BCC00EF81EA93DE0117966DDFAF01309709F4D0
:101BDC004AC0E091E801AE81EA0F3E2FA091E401EA
:101BEC00BB27F0E0EA0FFB1F8F010138E0E01E0776
:101BFC0018F0032F1127C5DFE091E401EA93E0917F
:101C0C00E501EA93E885EA930E945611EA93E1E034
:101C1C00EA935A934A93A7E008DDE091E401AE8180
:101C2C00EA0FEA93E091E501EA93E091E801EA9387
:101C3C000E9456110E945D11E091E401EA93A0917B
:101C4C00E5010E945611EA0FEA933A93E091E901FB
:101C5C000E945D11E0E8F0E0E017F10711F491DF6C
:101C6C0002C00093E4010E943F1228960895BA9393
:101C7C00AA931A930E94B21019F0A12F96DFFACFF3
:101C8C0018810C940E10AA930E943A12AC81A530C4
:101C9C0000F5ED81FE8105910E94671115910E945E
:101CAC00671125910E9467113591ED83FE83E885BC
:101CBC00EA93E885EA930A932A93E1E0EA93EA85AA
:101CCC00FB85FA93EA93AB85B0DC0A93A22FBEDEB8
:101CDC0004C0E0E0F0E060E070E00E944112299660
:101CEC000895AA93EA81EA93EA81EA93E091EB01E1
:101CFC00AA81EA2319F0E091E20102C0E091E3012C
:101D0C00AE2F31DCE881EE0FE883E03011F4E1E036
:101D1C00E883E8810C940E10AA93A981BB2762DE9C
:101D2C00E093E401A881BB2772DEE093E5010C94FB
:101D3C00C70FAA932B970E943812AC89BB2752DE8F
:101D4C00EC8BAA89BB274EDEEA8BAB89BB275FDE07
:101D5C00EB8BA989BB275BDEE98BEA89E093E40175
:101D6C00E989E093E501E1E0E887E989AB89EA17C5
:101D7C0071F51C89AA891A1731F41A93EC89EA9324
:101D8C00A1E0AFDFC8C0AA891A1730F4EA89E11BB9
:101D9C000E2F41E050E006C0AA89E12FEA1B0E2F5E
:101DAC004FEF5FEF3B89E0E0EE830E946A1138F45D
:101DBC001A933A933395AA8594DFEF83F6CFEF818C
:101DCC00E887140FE02F0150E03061F7A4C0EA89D6
:101DDC00AC89EA1739F53B89A9893A1730F4E989B6
:101DEC00E31B2E2FE1E0F0E006C0A989E32FEA1BEC
:101DFC002E2FEFEFFFEFED87FE871C89E0E0EE83DF
:101E0C000E946A1130F41A9313950E947211EF8399
:101E1C00F7CFEF81E887ED853E0FE22F2150E030C0
:101E2C0061F779C0E0E0EE830E946A1108F073C09C
:101E3C001C893B89E1E02E2F0E2FAA89BB27EC8948
:101E4C00F0E0AE1BBF0BAD0155232AF40FEFFA01E6
:101E5C000E949211AF01FA01EE0FFF1FEF87F88B72
:101E6C00A989BB27EB89F0E0AE1BBF0BAD87BE8702
:101E7C00AE85AA233AF42FEFED85FE850E949211D0
:101E8C00ED87FE87ED85FE85EE0FFF1FEB87FC8748
:101E9C001A933A93A1E025DFE887E0E0E987EA8727
:101EAC00AD85BE854A175B07BCF0100FEB85FC8532
:101EBC000E947611A985BA854A175B072CF4320F5C
:101ECC00AF85B8890E947D111A930E947211E88720
:101EDC00EA89E11751F718C0320FEF85F8890E9493
:101EEC007611ED85FE85A985BA85EA17FB072CF4DA
:101EFC00100FAB85BC850E947D111A930E94721144
:101F0C00E887E989E31741F7EB89EF5FEB8BE98908
:101F1C00EF5FE98B89CF0E943F1265960895BA93C3
:101F2C00AA93B981A881109631F0FC81EB816A816A
:101F3C0061931197E9F7EB81FC8125960895BA938B
:101F4C00AA93A991B991EE27FF276D91662311F001
:101F5C003196FBCF0895BA93AA93AA27BB27E99190
:101F6C00F9910590002011F01196FBCFFD01089519
:101F7C00AA93E881F0E0EE5BFA4FA491E9810E940C
:101F8C00961122960895AA931A93E981E73011F0DD
:101F9C00EA3019F41091E20109C0E93019F41091FA
:101FAC00E30104C0E830A1F41091F201E091E301E7
:101FBC00E03049F0103019F0EFEF188129C0EA81B8
:101FCC00E095188125C0103019F4E0E0188120C08C
:101FDC00EA8118811DC0BA93AA93EA81E13021F4F9
:101FEC00E881F981E49114C0E23029F4A881B98127
:101FFC000E9417120DC0E33041F4A881B981E09121
:10200C00FB01F091FC01099503C0A881B981EC9109
:10201C0023960895AA93EB81E03029F4E881A981F5
:10202C00BA81EC9314C0E23031F4E881A981BA8111
:10203C000E9423120CC0E33051F4E981FA81FA9327
:10204C00EA93AA81E091FD01F091FE010995249695
:10205C000895FE01FA93EA930895FF2766277727E0
:10206C000E940B1284E00E941408289608950A928C
:10207C001A92FA926A937A938A939A93AA93BA933E
:10208C00EA93FA93EFB7EA930895E991EFBFF991C8
:10209C00E991B991A9919991899179916991F99065
:1020AC00199009900895FF27662777270E940B1235
:1020BC000895E1E0E093EA01EFEFE093EB0108957E
:1020CC00E0E2EA93EA930895ACE3B4E0F0E0EE0FBB
:1020DC00FF1FEA0FFB1F0E9407120895A3E1B0E057
:1020EC000E94D811DF01E4E6F0E00E94F01108959F
:1020FC00A6EBB4E0F0E0EE0FFF1FEA0FFB1F0E940F
:10210C0007120895AFE0B0E00E94D811DF01E4E6B9
:10211C00F0E00E94F0110895E081F0E00E941012AE
:10212C00EA1BFB0BDB010E94D811DF01ECE3F0E0B2
:10213C000E94F011E80F0895DB010E94D811DF0115
:10214C00E4E6F0E00E94F0110895EA93A32F0E94B8
:10215C00220DE02FEF5F0895A981BA81ED91A9833B
:10216C00BA831E2FE03008952A93AD85BE85EF8586
:10217C00F88909950895E889F9893497E88BF98BE2
:10218C000895AD85BE85EF85F88909950895A889D0
:10219C00B98914960E940312EE83FF83AE81BF812E
:1021AC000895A889B98914960E940312EA87FB87BF
:1021BC000895DE011C960E948E110E940312089550
:1021CC00AB98EFEFEABBE881EBBB0E94AD090C9436
:1021DC00B109E695E695E695AE2F0C94EF090E94B1
:1021EC00140A0C94FF09EA0FFB1FEE83FF8308957A
:1021FC00EC85EA93EF81F8853196EF83F887319778
:10220C00FA93EA93A0E00C941010EC85EA93EF811A
:10221C00F8853196EF83F8873197089566277727ED
:10222C00DF01CB010C94F10F5A93AA850C94C90FC2
:10223C000A930395E889EA935A9308950A930395B0
:10224C00A8890E94260AE42308955E2FEC85EA9360
:10225C00AF81B885882799270E94F10F1E2E08950B
:10226C000A930395E889EA93EE85EA93E985FA8562
:10227C003196E987FA873197D1CFBA93AA93A8817F
:10228C00B9810E94341208950E943812E091E6013F
:10229C00F091E7010895F8010F5F1F4F0490089526
:1022AC00E091E601F091E7013196E4910895EA930B
:1022BC00E0E0EA93E0E0F0E0FA93EA93A9E00C9412
:1022CC001B0BED83FE830895AE81AF5FAE83A150EF
:1022DC00E091EA01AE1708953A93AA850C94770E13
:1022EC00A985BA85EA0FFB1FE987FA870895E98566
:1022FC00FA85EA1BFB0BE987FA870895109639F0EB
:10230C0080ED97E00197F1F7A8951197C9F708951B
:10231C000024AF0DB01D0895F195E195F04008959E
:10232C00EE230E2EEA2F19F0EE0F0A94E9F708951A
:10233C00EE230E2EEA2F19F0E6950A94E9F708958C
:10234C006F2F660F660B762F0895EA17E1E009F000
:10235C00EE270895FA9FF02DEB9FF00DEA9FE02DEC
:10236C00F10D08957A9F702D6B9F700DF89F700D75
:10237C00E99F700D6A9F602D710DFB9F600D711DA3
:10238C00E89F600D711D8827FA9FF02D610D781F55
:10239C00EB9FF00D611D781FEA9FE02DF10D681F7A
:1023AC00781F08951CD0D6DF0EF4B6DF08950024F4
:1023BC00112490E1AA0FBB1F001C111C0E1A1F0A3E
:1023CC0018F40E0E1F1E01C0A1609A9599F7FD011D
:1023DC00D001089504D0EBDF0EF49EDF0895E8944D
:1023EC00F7FF02C099DF6894B7FF06C0A095B095BF
:1023FC00119600F8039400FA0895ED91FC91119751
:10240C0008950590F491E02D08957A936A93FA93C8
:10241C00EA9308951B2EBF2FF12D1A2EAE2FE12D0E
:10242C000895E199FECFFF93FFB7F894AEBBBFBB05
:10243C00E09AEDB3FFBFFF910895E19B02C0A89510
:10244C00FCCF9FB7F894AEBBBFBBE09A8DB3E81737
:10245C0019F0EDBBE29AE19A9FBF089500240A1689
:10246C000B0608955A934A933A932A931A930A9314
:10247C0008955D814C813B812A81198108810895E1
:00000001FF
