:060000000C946E000C944C
:1000060000000C9400000C9400000C9400000C946A
:1000160000000C9400000C9400000C9400000C945A
:1000260000000C9400000C946B010C9400000C94DE
:1000360089010C9400000C9400000C9400000C94B0
:1000460000000C9400000C9400000C940000102793
:10005600E80364000A00010000100001100001001E
:10006600000000000000000000004D61737465721E
:10007600204465766963650053656E64696E672022
:100086003A20202020202020002564202020200047
:10009600526563656976696E67203A2020202020C4
:1000A6002020000001002D4E414E00494E46000022
:1000B6000100020066000800040068000E006001EE
:1000C600700011006E017E0013007F019600010092
:1000D6009203AA000000F894EE27ECBBF1E0FBBF08
:1000E600EBBFE5BF8DE0A2E0BB27ED938A95E9F76C
:1000F60080E094E0A0E6ED930197E9F7E6EBF0E007
:1001060085919591009761F0A591B591059015900F
:10011600BF01F00105900D920197E1F7FB01F0CFC9
:10012600EFE5EDBFE4E0EEBFC0E6D1E00C941D01C3
:10013600E0E0F0E060E870E40E94E707E1B9FF273D
:10014600662777270E947306DF01CB010E942C03E6
:10015600A0E0B0E080E090E40E94FD06A0E0B0E000
:1001660080E892E40E944B070E943A06E0B908959F
:10017600AA931A93E4EAE6BFE6B7E078E9F3E1B1B9
:10018600E87F1E2F103111F0E0E044C00E945405B4
:10019600E6B7E078E9F3E1B1E87F1E2F103411F4F9
:1001A600E1E038C0103211F4E2E034C0E3E032C0DE
:1001B600E4E9E6BFE6B7E4FDFDCF0895AA931A93F6
:1001C600E4EAE6BFE6B7E078E9F3E1B1E87F1E2F9F
:1001D6001830B1F70E945405E6B7E078E9F3E1B1CB
:1001E600E87F1E2F183111F0E3DFEACF13C0AA9380
:1001F6001A930E945405E6B7E078E9F3E1B1E87F87
:100206001E2F183211F4E0E005C0103311F4E1E0BE
:1002160001C0E2E0188122960895E4ECE6BFE6B755
:10022600E078E9F305C0E4E8E6BFE6B7E078E9F38D
:10023600E3B108952A979ED07BDFA0E6B1E00E9445
:100246007E03AEE6B1E00E947E03A0E2B7DFA5E042
:10025600B0E00E94E00510E01A3098F40E945905BB
:10026600E12FFF27662777270E946105DE010E949E
:100276007E03A12FBCDFA4EFB1E00E94E0051F5F63
:10028600EBCFAFE7B1E00E947E03A1E271DFA5E00C
:10029600B0E00E94E00510E01A30B8F4193020F4FE
:1002A6000E945905BADF03C00E945905BCDFFF272B
:1002B600662777270E946105DE010E947E03A4EF70
:1002C600B1E00E94E0051F5FE7CF72DFBACFFFCF34
:1002D600EA93FA93EFB7EA931A930A931BB10CB118
:1002E600E12FEC7161F4E52D5394F0E0EE56FE4FEC
:1002F6000083F30131963F0111F4689420F80991C7
:100306001991E991EFBFF991E99118950A92EA934B
:10031600FA93EFB7EA930A2C0B2851F0F5013197BF
:100326005F01E82D8394F0E0EE56FD4FE081ECB9D5
:10033600E991EFBFF991E99109901895AA93E0E048
:10034600F1E0EA15FB05D9F3F8940A2C0B2811F411
:100356005D990BC0E92D9394F0E0EE56FD4FA88110
:10036600A083F50131965F0102C0E881ECB978946B
:1003760021960895E0E0EBB9E8EDEAB9E6E8E0BDDC
:10038600E0E0E0BDE3E3E9B908950E94EC077B8174
:100396006A81F981E88177FB770F67FD7160972F96
:1003A6009E5781F078F0983190F4AA27BB278827CA
:1003B60008948795B795A7959A95D1F7EA23FB23D5
:1003C600682305C0E8947727EE27FF2766276F770F
:1003D600769508F4606877F9A991B9918991999110
:1003E600EA17FB076807790797FB08950E94EC0751
:1003F6000E94DD070E94C8010E94E20719F40E94CC
:10040600680505C0E6F70E9468050E946B052496FC
:1004160008950E94EC0724971A930A930E94720586
:100426000E9402082CF0EFEFFFEF6FE77FEF73C03B
:100436000E9477050E94E707ADB7BEB711971F93D5
:100446000F930E94EA050F911F910E947C050E945E
:100456007205E3EFF4E065E37FE30E94900740F462
:100466000E9481050E94AD060E947C050150104045
:100476000E9477050E946B057F936F93FF93EF931E
:100486000E947705A0E0B0E080E89FE30E94AD06F9
:10049600AF91BF918F919F910E944B070E947C055F
:1004A6000E9481050E948305A6E2B2E485E69FE3E9
:1004B6000E948A05EEE4F1E164E570E40E948F058E
:1004C6000E9472050E94FD067F936F93FF93EF9340
:1004D6000E949405ADE4B1E184ED9FE30E94A60677
:1004E600AF91BF918F919F910E944B077F936F931E
:1004F600FF93EF93F8010E94C6070E947306A8E1D6
:10050600B2E781E39FE30E94FD06AF91BF918F9111
:100516009F910E94AD06198108812A9608950E942E
:10052600EC0728971A930A930E949905E0E5FCEADE
:100536006EEA72EC0E94900718F40E949E0585C030
:10054600EA85FB856C857D850E94FE0729F4E0E03F
:10055600F0E060E87FE379C00E949905E8E1F2E700
:1005660061EB72E40E94900709F008F405C0EFEF12
:10057600FFEF6FE77FE769C00E949905EBE3FAEAB0
:1005860068EB7FE30E94FD06EA87FB876C877D8721
:100596000E9499052BDF0E943C068F010E94990557
:1005A6000E94C6070E9473060E948F05DF01CB01D9
:1005B600E0E0F0E060E07FE30E948F050E947C05AA
:1005C6000E9481050E948305ADE6BCE48CE69DE3AE
:1005D6000E94FD06A6EAB3EE86EE90E40E94AD0602
:1005E6000E9472050E94FD060E947C050E949405E9
:1005F600A8E2BDE886EA91E40E94AD06EA83FB83A1
:100606006C837D830E947705AA81BB818C819D8145
:100616000E94AD06A3EFB4E085EB9FE30E94FD06C2
:100626007F936F93FF93EF930E9472050E94940548
:100636000E94A606AF91BF918F919F910E944B0792
:100646000E94E707D8010E94FB05198108812E96B2
:1006560008950E94EC0724970E94A3050E94FE07B6
:1006660019F40E949E0545C0A885B9858A859B8593
:100676000E94020894F40E94A8050E94FE0729F42D
:10068600E0E0F0E060E87FE334C0A885B9858A85BC
:100696009B850E94AD0543DF2CC00E94A805DE01A4
:1006A6000E943C060E94CF070E9468050E947306BE
:1006B600DF01CB010E94A8050E94080819F00E94DC
:1006C6009E0517C00E94A3050E940706DF01CB0105
:1006D6000E94AD0524DFE887F9876A877B87E88172
:1006E600E17019F40E94A30504C00E94A3050E94AC
:1006F60007062C960895BA93AA931A93A981BA81EC
:10070600ED91A983BA831E2FE03021F0A12F0E941C
:10071600A101F4CFAAE00E94A101188123960895B1
:10072600BA93AA931A930A93AA81BB8112960E943E
:10073600CB07309759F1AA81BB8114960E94CB074B
:100746008F01309761F00230E0E01E0798F0F80163
:1007560031978F01AA81BB811496ED93FC93AA81F0
:10076600BB811296ED91FD913196FE93EE933197F2
:10077600AC81A083AA81BB810E94CB07FF232AF00C
:10078600ED91FD913196FE93EE9306C0AA81BB8151
:10079600EFEFFFEFED93FC931981088125960895FD
:1007A600BA93AA9326970E940D0810E0AC85BD85E2
:1007B600E0E0F0E0ED93FC93EA89FB893196EA8B61
:1007C600FB8B3197E4912E2FE03009F415C1E12F10
:1007D600E03039F4253211F411E002C00E94B4056C
:1007E6000AC1E130A9F4253219F40E94B40502C108
:1007F60012E040E000E02D3211F401E0FCC02B32A3
:1008060011F44BE2F8C0203211F440E2F4C002C009
:10081600E23039F450E013E0203311F40068EBC005
:1008260003C0E33009F0E7C0203310F02A3308F0A4
:1008360007C0AAE05A9F502DE22FE0535E0FDBC09F
:10084600E22FE33649F40E94BB05E889F989A481C1
:10085600AA930E94C105CEC0E33741F40E94BB05AE
:100866000E94C7050E943B051E2F0AC0E03761F4AF
:100876000E94BB050E94C7050E9447051E2F0860FF
:1008860002600F7730E034C0E43611F0E93611F437
:10089600046002C0E53731F4E4E5F0E0EE83FF835F
:1008A60015E00CC0E83511F4086003C0E83709F01C
:1008B600A1C0EEE5F0E0EE83FF8314E002FF14C072
:1008C6000E94BB050E94D105AB85AA233AF4EA85AE
:1008D600FB850E94B407EA87FB874DE2403011F0A2
:1008E6001F5F01C00B7F04C00E94BB050E94D1059B
:1008F60000FD11C0151778F407FF08C002FF04C0F9
:100906000B7F242F115001C020E301C020E20E947A
:10091600B4055150EFCF312F01FF17C03030A1F091
:1009260003FF06C0EE81FF812591EE83FF8305C09C
:10093600AE81BF812D91AE83BF830E94B405503036
:1009460009F051503150EACF4BC020E3EE81FF81D0
:100956000E94D407E887F987EE81FF813296EE83FD
:10096600FF83E885F985AA85BB85AE17BF0750F0DA
:100976002F5FA885B985EA85FB85EA1BFB0BEA870D
:10098600FB87EFCF2A3328F003FF02C0295F01C09F
:10099600295D04FD1AC0213320F4A885B985119775
:1009A60009F409C0531710F000FF01C013C020E27C
:1009B60007FF0BC020E3006102FF07C00B7F4A93CD
:1009C6000E94C105503009F051500E94B4055030C4
:1009D60009F051503150A885B985129708F0B5CF66
:1009E60000FF08C0503031F05150E0E2EA930E9417
:1009F600C105F8CF10E0E0CEAC85BD850E94CB07DF
:100A06000E94140864960895FF92F82E26970E9475
:100A16000F080E94D905309719F4EFEFFFEF23C0B6
:100A2600DE0116960E94B0078D010E94D905EE835D
:100A3600FF83E0E0E887E987DE011A960E94B007A7
:100A46000E94CB07FA93EA931A930A93E3E9F3E039
:100A5600FA93EA93DE011A96A3DE9F01AE81BF8167
:100A6600E0E0EC93F9010E9416082A96FF9008959B
:100A7600BA93AA93A991B991EE27FF276D916623A0
:100A860011F03196FBCF0895BA93AA93AA27BB27F4
:100A9600E991F9910590002011F01196FBCFFD0127
:100AA6000895E981E3B9E4E8E6BF0895FE01FA9303
:100AB600EA93EFE8F0E0FA93EA9308950E94E707D5
:100AC60084E00E940705289608950E94D807089595
:100AD600A0E0B0E080E89FE30E94A6060895AE81FC
:100AE600BF81888599850895EE81FF81688579851E
:100AF6000895EE83FF83688779870895F5DFEFCF42
:100B06000E94FD06EA83FB836C837D8308950E9421
:100B1600FD06DF01CB0108950E94F1070E94A6069B
:100B26000895EA81FB816C817D810895AA85BB8544
:100B36008C859D850895E0E0F0E060E070E0089522
:100B4600E885F9856A857B850895EC81FD816E814E
:100B56007F8108950E940C02AC81BD818E819F81A8
:100B6600D6CF2A93AD85BE85EF85F8890995089578
:100B7600E889F9893497E88BF98B0895AD85BE85A8
:100B8600EF85F88909950895A889B98914960E9470
:100B9600CB07EE83FF83AE81BF810895A889B9890B
:100BA60014960E94CB07EA87FB870895DE011C9600
:100BB6000E94B0070E94CB070895109639F080ED89
:100BC60097E00197F1F7A8951197C9F70895E9916C
:100BD600F9916991799177FB660F771F88277E5780
:100BE600880B7D938C937EE7769567956EF00895D6
:100BF600E991F9916991799177FB660F771F7A0FE1
:100C0600769567950EF0089530976040704009F02C
:100C160070580895552342F4503811F4E0FF04C08B
:100C26003196691F791F6BF050E8572711F45F93CF
:100C3600CFC05F3F31F0660F000C57956795752F53
:100C460008955F9300200AF0CFC0C8C050E8192E5F
:100C56001522880F991F9527550F879550E8072E5F
:100C66000522660F771F7527550F679508956894B7
:100C760001C0E8945F93F2DF703818F07F3F08F404
:100C8600A7C056E1571BAAF4519558300EF45930B7
:100C960030F0EFEFFFEF6FEF7FE777F91AC07727B6
:100CA6005523B9F0EE0FFF1F661F771F5A95D1F730
:100CB60010C07727583028F0EF2FF62F672F58509F
:100CC600F9CF552331F076956795F795E7955A95BF
:100CD600D1F700200AF449D15F910895689401C0C4
:100CE600E894309760407040B1F0002426F07723F6
:100CF60012F400943AD1172E7EE1112032F07A9543
:100D0600EE0FFF1F661F111CF9CFEF2FF62F612D77
:100D16005F938ADF5F9108954F93AF01FD01DA017A
:100D2600AB01BC01CA01402D012C142E4F91089530
:100D3600EA0FFB1F681F0895E095F0956095EF5F39
:100D4600FF4F6F4F08955F9381DF903871F150E840
:100D5600152604C05F937ADF903839F1703821F197
:100D6600572F591B2BF112F4D7DFFACF583118F051
:100D7600AA27BB278827583028F0AB2FB82F8827FB
:100D86005850F9CF552329F08695B795A7955A95CA
:100D9600D9F7502D512572F0CBDF38F46795F795CA
:100DA600E795739513F420C0B7DF3EDF5F91089592
:100DB600D8F7FBCFEA1BFB0B680B51F010F400943D
:100DC600BBDF662392F3EE0FFF1F661F7A95CBF704
:100DD600EE27FF27662777275F910895EFEFFFEF4E
:100DE6006FE77FEF5F910895EFEFFFEF6FE77FE724
:100DF6005F9108955F932ADF703851F3903841F37D
:100E060001240894791F23F41CF300203AF3ECCF55
:100E16000F921F932F933F934F93112722279927C2
:100E2600689FA0018F9F302D410D591F6B9F300D7C
:100E3600411D591F8E9F27D0BF9F25D06A9F23D063
:100E4600BE9F1DD0AF9F1BD0AE9F110D291F391F0E
:100E5600491F591FE32FF42F652F522F4F913F91B2
:100E66002F911F910F9066232AF0550FEE1FFF1F3B
:100E7600661F02C073954BF2CDDE5F910895100D8B
:100E8600211D391F02C0200D311D491F591F08950C
:100E96005F93DCDE703821F411200AF49FCFA4CFD3
:100EA600903809F495CF01240894970B1BF4D4F3DA
:100EB6000020F3CF792F1F932F933F934F93112445
:100EC6001127222733274427552790E2AE17BF075D
:100ED6008607410730F0AE1BBF0B860B410B08940B
:100EE60001C08894551F221F331F111CAA1FBB1F48
:100EF600881F441F9A9551F7F901612D4F913F9133
:100F06002F911F91662332F0550FEE1FFF1F661FAC
:100F16007A9543F27FDE5F91089599239AF07723BD
:100F260042F0971748F029F4AE17BF07860720F05E
:100F360031F0989488940895989408940895189494
:100F4600889408957723C2F7971798F3A9F7EA17B5
:100F5600FB07680788F399F3ECCF0024AF0DB01DAB
:100F66000895F195E195F0400895F0956095709596
:100F7600E195FF4F6F4F7F4F0895FE2FFF0FFF0B39
:100F86006F2F7F2F08956F2F660F660B762F0895AC
:100F9600ED91FC9111970895ED93FD936D937C93DC
:100FA60008950590F491E02D0895E881F9816A810C
:100FB6007B810895A881B9818A819B810895E88300
:100FC600F9836A837B8308957A936A93FA93EA9303
:100FD60008959A938A93BA93AA930895182E862F02
:100FE600612D192E972F712D1B2EBF2FF12D1A2E25
:100FF600AE2FE12D0895309760407040089500248B
:101006000A160B06080609060895EA17FB0768077D
:10101600790708955A934A933A932A931A930A930F
:1010260008955D814C813B812A811981088108954B
:00000001FF
