:0E0000000C9439000C9400000C9400000C9439
:10000E0000000C9400000C9400000C9400000C9462
:10001E0000000C9400000C9400000C9400000C9452
:10002E0000000C9400000C9400000C9400000C9442
:10003E0000000C9400000C9400000C9400000C9432
:10004E0000000C9400003F065B4F666D7D077F6FCE
:10005E0001002D4E414E00494E4600000100600148
:10006E005E000000F894EE27ECBBF1E0FBBFEBBFA7
:10007E00E5BF8DE0A2E0BB27ED938A95E9F780E01E
:10008E0094E0A0E6ED930197E9F7EAE6F0E08591BA
:10009E009591009761F0A591B59105901590BF01CE
:1000AE00F00105900D920197E1F7FB01F0CFEFE51E
:1000BE00EDBFE4E0EEBFC0E6D1E00C946600E0E0F8
:1000CE00EABBEFEFE7BBE4BBEFE0E1BBE2E0EA93B4
:1000DE00EA93A4EFB1E053D0E2E0EA93E0E0EA93D2
:1000EE00A8EBBBE062D0EFE0EA93A1E095D0E2E0AE
:1000FE00EA93A1E084D0E1E0EA93A5E0D5D0F7CF72
:10010E00FFCFAA931A9310E0E981F0E0E130A0E06E
:10011E00FA0711F419B311C0E230A0E0FA0711F496
:10012E0016B30BC0E330A0E0FA0711F413B305C009
:10013E00E430A0E0FA0709F410B3E12F18816AC089
:10014E00AA93E981F0E0E130A0E0FA0719F4E88122
:10015E00EBBB14C0E230A0E0FA0719F4E881E8BB6B
:10016E000DC0E330A0E0FA0719F4E881E5BB06C044
:10017E00E430A0E0FA0711F4E881E2BB4BC0BA9379
:10018E00AA931A9310E0EB811E1760F4EC81EA93A8
:10019E00AFEF0E94BA01EC81EA93A0E00E94BA018F
:1001AE001F5FF1CF188125960895BA93AA931A93DB
:1001BE000A930C8110E01830D8F4ED81EA93E02F09
:1001CE00A1E00E94FB01AE2FBBDFAA81BB81E8E05C
:1001DE00F0E00E941602DF010E94ED01E02FF0E038
:1001EE003196A7E0B0E00E9429020E2F1F5FE3CFE9
:1001FE00ED81EA93A0E0A4DF1981088145C0AA939E
:10020E00E981EA93A9817DDFAE2F9ADFA4E6B0E003
:10021E000E94ED0122960895AA930E944302E2B332
:10022E00E07FE2BBAC81A13011F4E9E001C0E0E077
:10023E003E2F10E01A3024F500E00A30CCF4ED81A8
:10024E00E17011F00E94C001ED81E27019F0EDE055
:10025E000E94CC01ED81E47019F0EBE00E94CC011C
:10026E00ED81E87019F0E7E00E94CC010F5FE5CF59
:10027E00AC81A13011F4315001C03F5F1F5FDACF66
:10028E00E0E0E5BB0E944A0226960895AA93A98152
:10029E00EA81EA1BEA83AA81A0301CF4E881EA0F06
:1002AE00EA83EA8123960895AA930E944102AF81C0
:1002BE0028DF0E2FA02FB0E0E4E6F0E00E94D70179
:1002CE003E2FA02FB0E0EAE0F0E00E94D7012E2FE3
:1002DE00A02FBB27EAE0F0E00E941B025E2F40E059
:1002EE0010E01A30D8F40E94C001EDE0E2BBE22F1C
:1002FE000E94DF01EBE0E2BBE52FF0E0EC5AFF4F8E
:10030E00E491E068E5BBAAE0B0E00E94ED01E7E011
:10031E00E2BBE42F0E94DF011F5FE3CFE22FE32B4E
:10032E00E52BE42BE1F0E52FE22BE42B21F43A93BD
:10033E000E94E8013E2FE42FE52B21F42A930E9420
:10034E00E8012E2F403021F45A930E94E8015E2FCF
:10035E004A93EF81EA93AAE099DF4E2FC1CF0E9414
:10036E004802289608950E94A700A981BA810C948C
:10037E00ED01EEE0E2BBE32FF0E0EC5AFF4F04900C
:10038E0005BAAAE0B0E00C94ED01E2BBE32FF0E079
:10039E00EC5AFF4F049005BAAAE0B0E00C94ED01C0
:1003AE000E941602DF01EAE0F0E00E941B020895AF
:1003BE00F0E0EC5AFF4F049005BAAAE0B0E00C94BE
:1003CE00ED01E1E0EA93AAE00C944D01109639F0AC
:1003DE0080ED97E00197F1F7A8951197C9F7089569
:1003EE00F195E195F0400895EE230E2EEA2F19F0C7
:1003FE00EE0F0A94E9F708950024112490E1AA0F54
:10040E00BB1F001C111C0E1A1F0A18F40E0E1F1E05
:10041E0001C0A1609A9599F7FD01D00108951CD0F5
:10042E00EBDF0EF4DDDF0895E894B7FF04C0A0956E
:10043E00B09511966894F7FDD3DFDEDFFD010EF463
:10044E00CFDF0895E894F7FF02C0CADF6894EA236D
:10045E00FB230EF4C5DF0895E894F7FF02C0C0DF5A
:10046E006894B7FF06C0A095B095119600F8039456
:10047E0000FA08955A934A933A932A931A930A9339
:10048E0008955D814C813B812A81198108810895EF
:00000001FF
