:040000000C945A0002
:100004000C940F010C9410010C9400000C94120138
:100014000C9411010C9400000C9400000C9400004A
:100024000C9400000C9400000C9400000C9400004C
:100034000C9400000C9400000C9400000C9400003C
:100044000C9400000C9400000C9400000C9400002C
:100054001027E80364000A000100001000011000EA
:100064000100000000002020203072706D002B344D
:10007400353872706D002D34353872706D0044431C
:100084003D253364004F4352303D2533640080C026
:1000940001002D4E414E00494E460000040004006C
:1000A40066000200C50192000100C901940000002D
:1000B400F894EE27ECBBF1E0FBBFEBBFE5BF8DE0AE
:1000C400A2E0BB27ED938A95E9F780E094E0A0E6EF
:1000D400ED930197E9F7E0EAF0E0859195910097B7
:1000E40061F0A591B59105901590BF01F0010590BF
:1000F4000D920197E1F7FB01F0CFEFE5EDBFE4E0EE
:10010400EEBFC0E6D1E00C9487007DD0789410E077
:100114001431E0F5E9B3AE2F0E948001AE2F0E94A6
:100124005201A12FB0E0E5E0F0E00E94BC05E093AD
:100134006001A0916001A03011F0A23041F40E944E
:10014400EB03AAE6B0E00E94E901909818C0A091E0
:100154006001A13049F40E94EB03A2E7B0E00E94E1
:10016400E9019098919A0CC0A0916001A33041F4E8
:100174000E94EB03AAE7B0E00E94E901909A9198EB
:10018400A8EEB3E00E944B041F5FC2CFC0CFFFCFE5
:10019400E0E0EABBEBBBEFEFE7BBE0E0E8BBE4BBCE
:1001A400E5BBEFE0E1BBE0E0E2BB0895E5E6E3BFD9
:1001B400E0E0E2BFEAE1ECBF0895E0E4EFBDE9E08E
:1001C400EEBDE0E0EDBDECBDE7BDE6BDECE9EBBDA9
:1001D400EFE3EABDE0E0E9BDE8BD0895E0E0E2BD9B
:1001E400E7E0E5BDE0E0E4BDE3BD0895E0E6E9BF96
:1001F4000895EBB7E06CEBBFEEE0E5BFE0E0E4BFF1
:10020400E0ECEABF0895C4DFD1DFD7DFE7DFEEDF3C
:10021400F0DFA0E10E94FC01089518951895189547
:100224000A921A929A93AA93BA93EA93FA93EFB71B
:10023400EA93E72DF0E03196DF01E6E0F0E00E947A
:10024400C1057E2EA0916001A13019F4E5E0E71507
:1002540009F00CC00E94F003E42DF0E0E7FDFFEF8D
:100264003196A3E0B0E00E94CF050FC0A0916001D9
:10027400A33019F4E5E0E71509F008C00E94F00383
:100284004A94E0E04E1614F4E3E04E2EE991EFBFF9
:10029400F991E991B991A9919991199009901895B9
:1002A400AA93E0E00E94FB03E2E8F0E0FA93EA9309
:1002B400EC810E940404E881E515F9F0F0E00E9465
:1002C400A4050E94BB04A0E0B0E080E290E40E9498
:1002D4003E05A0E0B0E080E89FE30E94EE040E94A7
:1002E4008204ECBFE8E00E94FB03E9E8F0E0FA9343
:1002F400EA93ECB70E9404045880A8C0AA93A8818A
:10030400E2E1EA9FF001DF01E3E3F0E00E94BC05D3
:10031400EB5F9CC0AA93E5B3EF70AE2FE881E07F5A
:10032400EA2BE5BB8DE08A95F1F7AA9A8DE08A95D0
:10033400F1F7AA988DE08A95F1F788C0AA93A8816D
:10034400E9DFE881E295E883A881E4DF85E88A951E
:10035400F1F77CC0AA93E881F0E0EB53FE4FE08113
:10036400A981AE0FEBDF6980988022960895A2E000
:100374000E941104ACE0E2DFA1E00E941104E0E07D
:100384009E2E6E2E0895AA93A881AA3011F06814A7
:1003940048F0E0E0EA939394A92DDCDFA881AA3029
:1003A40009F454C06394A89AA881C8DFA8984EC0E1
:1003B400BA93AA931A93A981BA81ED91A983BA83B6
:1003C4001E2FE03019F0A12FDEDFF5CF10C0BA9355
:1003D400AA931A93E981FA813196E983FA833197D2
:1003E400E4911E2FE03019F0A12FCDDFF3CF188157
:1003F40023960895AA93E4B3E06FE4BBA29AA09A6B
:10040400A19AAA98A898A9988880E881E058E093CE
:10041400C701E881E054E093C801A4E1B0E00E9480
:100424004B040E9417040E9417040E941704A0E2C0
:1004340071DF88EC90E00197F1F7A8E27FDFA4E098
:100444007DDFA5E87BDFA6E079DF91DF21960895C3
:10045400BA93AA931A930A93AA81BB8112960E9413
:10046400E705309759F1AA81BB8114960E94E705EC
:100474008F01309761F00230E0E01E0798F0F80138
:1004840031978F01AA81BB811496ED93FC93AA81C5
:10049400BB811296ED91FD913196FE93EE933197C7
:1004A400AC81A083AA81BB810E94E705FF232AF0C7
:1004B400ED91FD913196FE93EE9306C0AA81BB8126
:1004C400EFEFFFEFED93FC931981088125960895D2
:1004D400BA93AA9326970E94F40510E0AC85BD85D3
:1004E400E0E0F0E0ED93FC93EA89FB893196EA8B36
:1004F400FB8B3197E4912E2FE03009F415C1E12FE5
:10050400E03039F4253211F411E002C00E941F04D6
:100514000AC1E130A9F4253219F40E941F0402C172
:1005240012E040E000E02D3211F401E0FCC02B3277
:1005340011F44BE2F8C0203211F440E2F4C002C0DE
:10054400E23039F450E013E0203311F40068EBC0DA
:1005540003C0E33009F0E7C0203310F02A3308F079
:1005640007C0AAE05A9F502DE22FE0535E0FDBC074
:10057400E22FE33649F40E942604E889F989A4812C
:10058400AA930E942C04CEC0E33741F40E942604AF
:100594000E9432040E94D2031E2F0AC0E03761F485
:1005A4000E9426040E9432040E94DE031E2F08606B
:1005B40002600F7730E034C0E43611F0E93611F40C
:1005C400046002C0E53731F4E4E5F0E0EE83FF8334
:1005D40015E00CC0E83511F4086003C0E83709F0F1
:1005E400A1C0EEE5F0E0EE83FF8314E002FF14C047
:1005F4000E9426040E943C04AB85AA233AF4EA85AF
:10060400FB850E949005EA87FB874DE2403011F09C
:100614001F5F01C00B7F04C00E9426040E943C049B
:1006240000FD11C0151778F407FF08C002FF04C0CD
:100634000B7F242F115001C020E301C020E20E944F
:100644001F045150EFCF312F01FF17C03030A1F0FC
:1006540003FF06C0EE81FF812591EE83FF8305C071
:10066400AE81BF812D91AE83BF830E941F045030A1
:1006740009F051503150EACF4BC020E3EE81FF81A5
:100684000E94EB05E887F987EE81FF813296EE83BD
:10069400FF83E885F985AA85BB85AE17BF0750F0AF
:1006A4002F5FA885B985EA85FB85EA1BFB0BEA87E2
:1006B400FB87EFCF2A3328F003FF02C0295F01C074
:1006C400295D04FD1AC0213320F4A885B98511974A
:1006D40009F409C0531710F000FF01C013C020E251
:1006E40007FF0BC020E3006102FF07C00B7F4A93A2
:1006F4000E942C04503009F051500E941F045030C5
:1007040009F051503150A885B985129708F0B5CF3A
:1007140000FF08C0503031F05150E0E2EA930E94EB
:100724002C04F8CF10E0E0CEAC85BD850E94E7052F
:100734000E94FB0564960895FF92F82E26970E9466
:10074400F6050E944404309719F4EFEFFFEF23C03D
:10075400DE0116960E948C058D010E944404EE83EE
:10076400FF83E0E0E887E987DE011A960E948C05A2
:100774000E94E705FA93EA931A930A93EAE2F2E0F5
:10078400FA93EA93DE011A96A3DE9F01AE81BF813C
:10079400E0E0EC93F9010E94FD052A96FF9008958C
:1007A400BA93AA93A991B991EE27FF276D91662375
:1007B40011F03196FBCF0895BA93AA93AA27BB27C9
:1007C400E991F9910590002011F01196FBCFFD01FC
:1007D4000895E0E0EA93A1E00C94AC01E8B3EF7073
:1007E4001E2EE42DEC5FA1E00E949C05E129E8BBEC
:1007F4000895EA93A0E00E94AC01E1E6F1E0FA93E7
:10080400EA930895FF27662777270E94EF0584E07F
:100814000E949E032896A1E6B1E00C94DA010E949E
:10082400A001A3E0B0E00C944B04A0E30E948C016F
:1008340088EC90E00197F1F708952A93AD85BE8581
:10084400EF85F88909950895E889F9893497E88B43
:10085400F98B0895AD85BE85EF85F88909950895CE
:10086400A889B98914960E94E705EE83FF83AE81B7
:10087400BF810895A889B98914960E94E705EA877B
:10088400FB870895DE011C960E948C050E94E705F3
:100894000895109639F080ED97E00197F1F7A89547
:1008A4001197C9F70895552342F4503811F4E0FF25
:1008B40004C03196691F791F6BF050E8572711F473
:1008C4005F93C8C05F3F31F0660F000C5795679582
:1008D400752F08955F9300200AF0C8C0C1C050E886
:1008E400192E1522880F991F9527550F879550E8C3
:1008F400072E0522660F771F7527550F67950895F4
:10090400689401C0E8945F93F2DF703818F07F3F79
:1009140008F4A0C056E1571BAAF4519558300EF4C0
:10092400593030F0EFEFFFEF6FEF7FE777F91AC040
:1009340077275523B9F0EE0FFF1F661F771F5A95CF
:10094400D1F710C07727583028F0EF2FF62F672FF4
:100954005850F9CF552331F076956795F795E7957B
:100964005A95D1F700200AF4DDD05F910895689478
:1009740001C0E894309760407040B1F0002426F044
:10098400772312F40094CED0172E7EE1112032F09A
:100994007A95EE0FFF1F661F111CF9CFEF2FF62F6C
:1009A400612D5F938ADF5F9108954F93AF01FD013D
:1009B400DA01AB01BC01CA01402D012C142E4F9168
:1009C4000895EA0FFB1F681F0895E095F095609560
:1009D400EF5FFF4F6F4F08955F9381DF903839F1D8
:1009E400703821F1572F591B2BF112F4DEDFFACFA7
:1009F400583118F0AA27BB278827583028F0AB2F86
:100A0400B82F88275850F9CF552329F08695B795E4
:100A1400A7955A95D9F7502D512572F0D2DF38F4A5
:100A24006795F795E795739513F420C0BEDF45DF0E
:100A34005F910895D8F7FBCFEA1BFB0B680B51F0CD
:100A440010F40094C2DF662392F3EE0FFF1F661FBB
:100A54007A95CBF7EE27FF27662777275F910895CE
:100A6400EFEFFFEF6FE77FEF5F910895EFEFFFEF99
:100A74006FE77FE75F9108955F9331DF703851F33B
:100A8400903841F301240894791F23F41CF30020C7
:100A94003AF3ECCF0F921F932F933F934F93112769
:100AA40022279927689FA0018F9F302D410D591F40
:100AB4006B9F300D411D591F8E9F27D0BF9F25D09E
:100AC4006A9F23D0BE9F1DD0AF9F1BD0AE9F110D38
:100AD400291F391F491F591FE32FF42F652F522F48
:100AE4004F913F912F911F910F9066232AF0550F3C
:100AF400EE1FFF1F661F02C073954BF2D4DE5F9199
:100B04000895100D211D391F02C0200D311D491FEC
:100B1400591F08950024AF0DB01D0895F195E19576
:100B2400F0400895F09560957095E195FF4F6F4FF3
:100B34007F4F0895EE230E2EEA2F19F0EE0F0A943C
:100B4400E9F708956F2F660F660B762F089500243A
:100B5400112490E1AA0FBB1F001C111C0E1A1F0ABE
:100B640018F40E0E1F1E01C0A1609A9599F7FD019D
:100B7400D00108951CD0EBDF0EF4D0DF0895E89483
:100B8400B7FF04C0A095B09511966894F7FDC6DF31
:100B9400DEDFFD010EF4C2DF0895E894F7FF02C022
:100BA400BDDF6894EA23FB230EF4B8DF0895E894CC
:100BB400F7FF02C0B3DF6894B7FF06C0A095B095F5
:100BC400119600F8039400FA0895ED91FC911197A1
:100BD40008950590F491E02D08957A936A93FA9319
:100BE400EA9308955A934A933A932A931A930A9349
:100BF40008955D814C813B812A8119810881089582
:00000001FF
