:020000000C945E
:100002004E070C9400000C9400000C9400000C9419
:1000120000000C9400000C9400000C9400000C945E
:1000220024090C9400000C9400000C9400000C9421
:1000320000000C9400000C9400000C9400000C943E
:1000420000000C9400000C9400000C9400000C942E
:10005200000005072060000000000000005F0000B3
:100062000007000700147F147F14242A7F2A12231A
:100072001308646236495522500005030000001C33
:100082002241000041221C00082A1C2A0808083EBE
:100092000808005030000008080808080030300046
:1000A2000020100804023E5149453E00427F4000B4
:1000B20042615149462141454B311814127F1027A4
:1000C200454545393C4A49493001710905033649DC
:1000D200494936064949291E00363600000056367F
:1000E20000000008142241141414141441221408AC
:1000F200000201510906324979413E7E1111117EF9
:100102007F494949363E414141227F4141221C7F7C
:10011200494949417F090901013E414151327F0864
:1001220008087F00417F41002040413F017F0814C1
:1001320022417F404040407F0204027F7F0408103A
:100142007F3E4141413E7F090909063E4151215E00
:100152007F09192946464949493101017F01013F79
:100162004040403F1F2040201F7F2018207F631403
:100172000814630304780403615149454300007F76
:100182004141020408102041417F000004020102A3
:10019200044040404040000102040020545454787E
:1001A2007F484444383844444420384444487F38E3
:1001B20054545418087E090102081454543C7F0810
:1001C20004047800447D40002040443D00007F103C
:1001D200284400417F40007C041804787C08040411
:1001E2007838444444387C14141408081414187CD5
:1001F2007C080404084854545420043F4440203CE2
:100202004040207C1C2040201C3C4030403C442884
:100212001028440C5050503C4464544C440008365E
:10022200410000007F000000413608000201020484
:10023200027F4141417F00000000000000000000F9
:1002420000000000000000003F000000000000006D
:100252000000000000000300000003000000000096
:1002620000000000000034001F0034000F000000F6
:10027200000000000000120025007B003A00000090
:100282000000000000000600050037000C003B00E3
:1002920028003000000010002A002D003200380033
:1002A2000000000000000300000000000000000049
:1002B2000000000000001800E7000000000000003D
:1002C20000000000000081007E000000000000002D
:1002D200000000000000060003000600000000000D
:1002E200000000000000080008001E0008000000D6
:1002F200000000000000000060000000000000009C
:1003020000000000000008000800000000000000DB
:1003120000000000000000002000000000000000BB
:10032200000000000000380007000000000000008C
:100332000000000000001E00210021003E0000001D
:10034200000000000000000002003F00000000006A
:1003520000000000000022003100290026000000F9
:100362000000000000001200210025003E000000F5
:10037200000000000000180014003F001000000000
:1003820000000000000010002700250039000000D6
:100392000000000000001E00250025003A000000B9
:1003A2000000000000000100210019000700000009
:1003B20000000000000012002D0029003E00000095
:1003C2000000000000001600290029001E000000A5
:1003D20000000000000000002400000000000000F7
:1003E20000000000000000006400000000000000A7
:1003F20000000000000008000C00140012000000C1
:100402000000000000000C000C000C000C000000BA
:10041200000000000000120014000C0008000000A0
:100422000000000000000200010039000600000088
:1004320000000000000038004600B900A500A50039
:10044200BD0022001C0030000C000B000E0030002A
:1004520000000000000000003F00290025001A00F3
:100462000000000000000C003200210021003200D8
:1004720000000000000000003F00210021001E00DB
:1004820000000000000000003F00290029002900B0
:1004920000000000000000003F0009000900010008
:1004A2000000000000000C00320021002900290099
:1004B2003A000000000000003F00040004003F007A
:1004C20000000000000000003F00000000000000EB
:1004D200000000000000100020003F0000000000AB
:1004E20000000000000000003F0004001A0021008C
:1004F20000000000000000003F002000200000007B
:1005020000000000000000003F001C0030000E0050
:100512003F000000000000003F00040018003F0000
:100522000000000000000C00320021002100210028
:100532001E000000000000003F0009000900060044
:100542000000000000000C003200210031002100F8
:100552003E000000000000003F00090009003700D3
:1005620000000000000012002500250029001A00EA
:10057200000000000000010001003F000100010036
:1005820000000000000000003F00200020003F00AB
:1005920000000000000003000C00300018000700FB
:1005A20000000000000003001C00380007000E00DD
:1005B20030000F000000210012000C001200210088
:1005C20000000000000001000600380004000300E3
:1005D200000000000000210031002D002300210056
:1005E2000000000000000000FF000000000000000A
:1005F20000000000000007003800000000000000BA
:100602000000000000008100FF0000000000000068
:1006120000000000000004000300060000000000CB
:1006220000000000000040004000400040000000C8
:1006320000000000000001000100000000000000B6
:1006420000000000000034002C002C003C000000E0
:1006520000000000000000003F0024003C000000F9
:100662000000000000001800240024002400000004
:100672000000000000001800240024003F000000D9
:1006820000000000000018002C002C002C000000CC
:1006920000000000000004003F0000000000000015
:1006A2000000000000005800A400A4007C0000002C
:1006B20000000000000000003F0004003C000000B9
:1006C20000000000000000003D00000000000000EB
:1006D200000000000000FD0000000000000000001B
:1006E20000000000000000003F0014002400000091
:1006F20000000000000000003F00000000000000B9
:1007020000000000000000003C0004003C00040067
:100712003C000000000000003C0004003C0000001F
:100722000000000000001800240024003C0000002B
:100732000000000000000000FC0024003C0000005B
:10074200000000000000180024002400FC0000004B
:1007520000000000000000003C0004000000000057
:100762000000000000002C002C00340014000000E7
:1007720000000000000004003E0000000000000035
:1007820000000000000000003C0020003C000000CF
:1007920000000000000004003800380004000000DF
:1007A2000000000000000C0030000C0018003800AF
:1007B20004000000000024001C001C0024000000B3
:1007C20000000000000084007800380004000000EF
:1007D200000000000000240034002C00240000006F
:1007E2000000000000000800FF0000000000000000
:1007F2000000000000000000FF00000000000000F8
:1008020000000000000081007E00000000000000E7
:1008120000000000000002000100010003000000CF
:100822000000000000003F003F0000000000000048
:1008320000000000000080004000000000000000F6
:10084200C0B0C8F0FFFDE0FCF8E8FCFCF4FAFAFAEC
:10085200FAFAFAFEFAFFFDFDFDFFFDFEFFFFFFFFC4
:10086200FFFFFFFEFFFFFDFDFDFFFAFAFFFDFDFDAD
:10087200FDFDFFFEFEFEFEFEFEFEFFFDFDFDFDFF99
:10088200FEFEFFFFFFFFFFFFFFFFFFFFFFFEFFFD7B
:10089200FFFAF4F8D8B060C0800000000000000049
:1008A2000000000000000000000000000000000046
:1008B2000000000000000000000000C030C8F6F98F
:1008C200FEFFFFFFFFFFFFFFFFFFFFFFFFFFFFFF37
:1008D200FFFFFFFFFFFFFFFFFFFFFFFFFFFFFFFF26
:1008E200FFFFFFFFFFFFFFFFFFFFFFFFFFFFFFFF16
:1008F200FFFFFFFFFFFFFFFFFFFFFFFFFFFFFFFF06
:10090200FFFFFFFFFFFFFFFFFFFFFFFFFFFFFFFFF5
:10091200FFFFFFFFFFFFFFFEFDFFFAF4E8D020C05C
:1009220000000000000000000000000000000000C5
:100932000000000000000000000001FEFFFFFFFFBA
:10094200FFFFFFFFFFFFFFFFFFFFFFFFFFFFFFFFB5
:10095200FFFFFFFFFFFFFFFFFFFFFFFFFFFFFFFFA5
:10096200FFFFFFFFFFFFFFFFFFFFFFFFFFFFFFFF95
:10097200FFFFFFFFFFFFFFFFFFFFFFFFFFFFFFFF85
:10098200FFFFFFFFFFFFFFFFFFFFFFFFFFFFFFFF75
:10099200FFFFFFFFFFFFFFFFFF8F7FBF7FFFFFFE16
:1009A200FDF2ECD8A0408000000000000000000032
:1009B20000000000F000FCF4F0FCFCFFFFFFFFFF72
:1009C200FFFFFFFFFFFF7FBFFFFFBFFF7FFFFFFFB5
:1009D200FFFFFFFFFFFFFFFFFFFFFFFFFFFFFFFF25
:1009E200FFFFFFFFFFFFFFFFFFFFFFFFFFFFFFFF15
:1009F200FFFFFFFFFFFFFFFFFFFFFFFFFFFFFFFF05
:100A0200FFFFFFFFFFFFFFFFFFFFFFFFFFFFFFFFF4
:100A1200FFFFFFFFFFFFFFFFFFFFFEF1CF36CD1B02
:100A22002F5FBF7FFFFFFEFDFAF4E8D0A040C08039
:100A32008080807CC3FCFFFFFFFF1F1F3F2F5FBF33
:100A4200BFFF0F130D020100000000010102C7BD2C
:100A5200C3FFFFFFFFFFFFFFFFFFFFFFFFFFFFFFE0
:100A6200FFFFFFFFFFFFFFFFFFFFFFFFFFFFFFFF94
:100A7200FFFFFFFFFFFFFFFFBF9F7FFFFFFFFFFFA4
:100A8200FFFFFFFFFFFFFF7F9F6F1B0D02050B178D
:100A92002F5FFFBF7FFFFFFFFFFFFFFFFFFFFEFD97
:100AA200F6E8D0E146CD9B172F5FFFBF7FFFFFFE29
:100AB200FFFFFEFFFFFF7FBF47390000000000007D
:100AC2000000000000000000806090ECF2FDFEFFDC
:100AD200FFFFFFFFFFFFFFFFFFFFFF7F9F6719176A
:100AE2002FDF3FFFFFFFFFFFFFFFFFFFF79F378B68
:100AF2000B0B070502030101003FC03FFFFFFFFF91
:100B0200FFFFFFFFFF3FC33C0300000000000000A7
:100B1200000000010107050B1F171F2F6FBF7FFF8A
:100B2200FFFFFFFFFFFFFFFCE218E00001030305E8
:100B32000505050507020100000000000000000095
:100B42000000008040B0CCF2FDFEFFFFFFFFFFFF80
:100B5200FF3FDF7F7F2F1F1F0B05020100000000F8
:100B620000010E112F5F7FBFFF7FFFFFFFFFFEF926
:100B7200FEFCE0904080000080C0B9C2F9FFFFFF98
:100B8200FFFFFFFF3F807F00000000000000000029
:100B92000000000000000000000000000000010250
:100BA2000D132F5FBF7FFFFFFFFFF8FFC038C000AC
:100BB2000000000000000000000000E010E0FCFE69
:100BC200FEFAFDFFFFFFFFFFFFFFFF7F8F770B05A1
:100BD2000201000000000000000000000000000010
:100BE200000000000000000001010307050B073FA1
:100BF200DF3FDFFFFEF9FEFDFFFEFFFFFFFFFFFF0E
:100C02001FE71B04030000000000000000000000BA
:100C120000000000000000000000000000000000D2
:100C220000000000010619275FBFBFBFBFBEB806A4
:100C320038000000000000000000400040000000FA
:100C420000000000000000000000000000000000A2
:100C52000000000000000000000000000000000092
:100C620000000000000000000000FFFFFFFEFCF893
:100C7200F0E0E0F8FEFFFFFC800000000000000052
:100C82000000000000000000000000000000000062
:100C92000000000000000000000000000000000052
:100CA2000000000000C0E0F0F8F8FFFFFFFFFFFFC8
:100CB200FFFFFFFFFFFFFFFFFFFFE0C0800000001C
:100CC2000000000000000000000000000000000022
:100CD20000000000808080C0C0C0E0E0E0E0F0F8EA
:100CE200F8FCFCFEFFFFFFFFFFFFFFFFFFFFFFFF20
:100CF200FFFFFFFFFF0F0F1F1F1F1F1F1F06000019
:100D0200000000000000000080C0E0F0F0F8FCFEEF
:100D1200FEFFFFFFFFFFFFFFFFFFFFFFFFFFFFFFE2
:100D2200FFFFFFFFFFFFFFFFFFFFFFFFFFFFFFFFD1
:100D3200FFFFFF7F0700000000000000000000002E
:100D42000000000080F0FEFFFFFFFFFFFFFFFFFF3C
:100D5200FFFFFFFFFFFFFFFFFFFFFFFFFFFFFFFFA1
:100D6200FFFFFFFFFFFFFFFFFFFFFFFFFFFFFFFF91
:100D72007F070300000000000000000000000000E8
:100D8200000000027FFFFFFFFFFFFFFFFFFFFFFFEB
:100D9200BF7F7FFFFFFFFFFFFFFF03010101010193
:100DA20001010103C7FFFFFFFFBFFFFFFFFFFF1F9F
:100DB2000000000000000000000000000000000031
:100DC2000000000000FEFFFFFF0F1F1F1F1F3F3F1D
:100DD2003F808083C3C7C70FBFFFFFFEF8F0E0E08C
:100DE200E0C0E0EEFFFFFFFFF1FFFFFFFFFFFFF0BC
:100DF200F0E0E0C0C08000000000000000000080C1
:100E0200C0C0F0F8F8FFFFFFFFFEFEFFFFFFFFFF8D
:100E1200FFFFFFFFFFFFFFFFFFFFFFFFFFFFFFFFE0
:100E2200FFFFFFFFFFFFFFFFFFFFFFFFFFFFFFFFD0
:100E3200FFFFFFFFFFFFFFFFFFFFFEFEFEFE0001C1
:100E420003070F1F3F7FFF001027E80364000A001B
:100E5200010000100001100001004D480000202098
:100E6200257320200054494D453A00253032643A1A
:100E7200253032643A253032640001002D4E414E55
:100E820000494E460000030060015C0E060063014B
:100E9200670E010054027C0E0000F894EE27ECBBB2
:100EA200F1E0FBBFEBBFE5BF8DE0A2E0BB27ED9316
:100EB2008A95E9F780E094E0A0E6ED930197E9F7DF
:100EC200E8E8FEE085919591009761F0A591B591D2
:100ED20005901590BF01F00105900D920197E1F781
:100EE200FB01F0CFEFE5EDBFE4E0EEBFC0E6D1E0FD
:100EF2000C947B07E3E0E0938601EBE3E093870148
:100F0200E2E3E09388013AD00E944B087894A0E68D
:100F1200B1E00E94C407FBCFFFCFEFEFEABBE0E0F6
:100F2200EBBBEFEFE7BBE0E0E8BBE4BBE5BBE0E82F
:100F3200E1BBE0E0E2BB0895E0E0EFBDE4E0EEBD3E
:100F4200E5E8EDBDEEEEECBDE0E0E7BDE6BDEBBDF4
:100F5200EABDE9BDE8BD0895E4E0E9BF089526973A
:100F6200E4E5F0E0E883F983E0E0EA83EB83EC83F5
:100F7200ED83DE010E94EB090C94EB0ACEDFDCDF8D
:100F8200EBDFEDDF08950E948014E9E8F1E0FA93C7
:100F9200EA93E0E6FEE0FA93EA93ED85FE856627A2
:100FA20077270E948E1884E00E94D5122896A9E81D
:100FB200B1E00E941913EE8300E010E0AE81E8E098
:100FC200EA9FF00170970E171F070CF05FC0E0E078
:100FD200EF83AF81A83008F056C09801E0E0E887BF
:100FE200F80170962E173F070CF049C0A885B0E0B3
:100FF200E8E0F0E00E944C18DF01E2E0F0E00E943D
:1010020051180E940C18E03011F4979801C0979A79
:10101200D901E8E0F0E00E944C185E2FF901A7E048
:10102200B0E00E945F184E2FE885F0E0A7E0B0E044
:101032000E945F18A1E00E94E617EBBBE52FF0E0EB
:10104200E757FE4FE081F0E0B0970E94F617DF010C
:10105200E42FF0E0EA0FFB1FA8E3B2E0EE0FFF1F60
:10106200EA0FFB1FE491E095E8BBA2E0B0E00E942A
:1010720023162F5F3F4FE885EF5FE887B1CFEF81FF
:10108200EF5FEF83A6CF0F5F1F4F98CF0E94D2185A
:101092002B9608950E948614E8E3F8E00E948C14CF
:1010A2000E948614ECE3FCE00E948C140895BA932B
:1010B200AA93E881F9810E9402180E949916A5E379
:1010C200BAEF8EE89CE30E9423170C94F60CAA93C5
:1010D2000E94CB181FE10FE13FE12AE054E14CE10D
:1010E200DDD1E6E4EA93E8E2EA93A3E6B1E00E9406
:1010F200110EEDEEF1E0FA93EA93EDE6FEE0FA93DB
:10110200EA93EC850E949514EF850E949514EA8972
:101112000E9495148CE00E94D5126096E6E4EA9350
:10112200E6E3EA93ADEEB1E00E94110E1A930A9340
:10113200A32F0E945711E3E0E0937101EFEF0E94A9
:101142009B14FF93EF93E22FF0E0FF93EF93EA8576
:101152000E94A2140E947713AF91BF910E94AB1418
:101162000E942317AF91BF910E94B014FF93EF9397
:10117200E22FF0E0FF93EF93EB850E94A2140E940E
:101182000314AF91BF910E94B914AF91BF910E9415
:10119200BD14E2E0E0937101E3E30E949B14FF932C
:1011A200EF93E52FF0E0FF93EF930E94C7140E94A4
:1011B2007713AF91BF910E94B914AF91BF910E9472
:1011C200B014FF93EF93E52FF0E0FF93EF93EA85DE
:1011D2000E94D1140E940314AF91BF910E94B914CE
:1011E200AF91BF910E94BD14E1E0E0937101E5E58A
:1011F2000E949B14FF93EF93E42FF0E0FF93EF9391
:10120200E8850E94D1140E947713AF91BF910E948A
:10121200B914AF91BF910E94B014FF93EF93E42FE2
:10122200F0E0FF93EF930E94C7140E940314AF9162
:10123200BF910E94B914AF91BF910E94BD140E9448
:10124200D218299608950A921A92FA926A937A9378
:101252008A939A93AA93BA93EA93FA93EFB7EA938B
:10126200E5E8EDBDEEEEECBDA0918801AB33A9F44B
:10127200A0918701AB3359F4E0918601F0E03196F9
:10128200DF01E8E1F0E00E945118E0938601E0916D
:1012920087010E94DA14E0938701E09188010E949D
:1012A200DA14E0938801E0918601EA93E0918701E4
:1012B200EA93A09188010BDFE991EFBFF991E991DF
:1012C200B991A9919991899179916991F99019901E
:1012D200099018950000909A000008959098959AA8
:1012E200949A08951A93F6DF13B39098E12F199107
:1012F2000895AA931A93E0E0E4BB919A9298A98187
:10130200E2E0EA1B1E2F10FF02C0959A01C09598D9
:1013120011FF02C0949A01C09498E4DFE078E9F7E3
:10132200188163C3AA93A981E4DF0E94E2145DC31A
:10133200E0915202EA93E0915102EF73E064AE2F22
:10134200F1DFE0915202EA93E0915302E86BAE2F93
:10135200E9DF0895AA93E981E0935102E295EF70E3
:10136200E695E695E0935202E881E0935302E0DFCE
:101372003CC3A0915102AF5FA0935102A03818F074
:10138200E0E0E0935102E0915102EF7331F4E09119
:101392005102EA93A0915302DDDF0895AA93A0912E
:1013A2005202A7DF929A0E94E21421960895A09118
:1013B20052029FDFE0E0E4BB919A929A93DF089594
:1013C200AA93E981EA93E9810E94EB14F0DFB0DF8E
:1013D200EEDF0BC3BA93AA931A93889A899A8A9AD0
:1013E2008B9A939A8D9A8C9A79DF9398A4E6B0E0BF
:1013F2000E942316939A10E0123040F41A93AFE33E
:1014020091DF1A931395A0EC8DDFF6CFE1E0E09324
:101412006901E0E0E0936A01E981FA813097A9F07D
:10142200A981BA810E947718E0936D01F0936E0151
:1014320012960E947718E0938201F0938301A981AA
:10144200BA8114960E9477180AC0E0E0F0E0E093B7
:101452006D01F0936E01E0938201F0938301E093BA
:101462008401F0938501E1E0E0936F01E093700164
:10147200E0937101EFEFE0937201E1E0E093790113
:10148200EAE7F1E0FA93EA93EFEFEA93A8E0B0E03B
:101492000E94091303D0E1E0188121C40E94CD18F3
:1014A20000E030E0E0916A01E03009F00FEF3830FF
:1014B20078F4E0E0EA93A32F3F5F4CDF10E0A12F26
:1014C2001F5FA03820F4A02F0E94F114F8CFEFCFB5
:1014D200E0E0EA93A0E03EDFE0E0EA93A0E001D49E
:1014E2000E94D41824960895AA931A930A93AC8161
:1014F200A03818F4AB81A03408F016C0EC81EA934E
:10150200AC815EDF1E2F14DFEB81E770A1E00E9449
:10151200E6170E2FEA81E03011F0102B03C0E02F06
:10152200E0951E23A12F3ADF19810881259608959F
:10153200AA93A981A03818F4A881A03410F0E0E0A1
:1015420054C2E981EA93A9813BDF1E2EE881E7704C
:10155200A1E00E94E617E12111F0E1E001C0E0E024
:1015620044C2AA931A93ED81EA93AD8129DF1E2F1B
:10157200DFDEE981E73011F0E83039F4EB81EA93FC
:10158200AA810E941A14EB8308C0E33021F4EB8194
:10159200E095EB8302C0E03021F4EA81E0951E235E
:1015A20002C0E23029F4EA81AB81EA231E2B0EC08D
:1015B200E13029F4EA81AB81EA231E2707C0E43037
:1015C20029F4EA81E095AB81EA2B1E23A12F0E9428
:1015D200F114188126960895AA9323970E94CB1896
:1015E200A889A03848F4AF85A03430F4AE85A03085
:1015F20019F0AD85A03009F4C8C1EE85E887A88945
:10160200BB27EE85F0E0AE0FBF1FA138E0E0BE07BA
:1016120020F0A889E0E8EA1BEE872D85AF85BB277D
:10162200ED85F0E0AE0FBF1FA134E0E0BE0720F071
:10163200AF85E0E4EA1BED87A985A63009F05BC01F
:10164200EC85E13009F4A1C1E33039F4E091840181
:10165200F0918501309709F498C10885ED85E695EA
:10166200E695E6953E2FE22FE77019F4AD852A172D
:10167200E9F0A02FBB27E32FF0E00E941118AA8502
:10168200BB850E94F514269526952695532F5F93C8
:101692005F5FE22FAF91EA1748F0102FE12F115050
:1016A200E03019F00E94FA14F9CFF1CFAE850A1793
:1016B20011F1EE85AA85BB85F0E00E94F514ED8557
:1016C200E77009F03F5F20E02F932F5FE32FAF9188
:1016D200AE1788F41E851F931F5FE02FAF91AE17E0
:1016E20018F40E94FA14F7CFEE85AE81BF81F0E0C4
:1016F2000E94F514E9CFEF85E7703E2FED85E030CB
:1017020009F443C1EA85FB85EE83FF8310E0088973
:10171200303009F065C0AD85A83008F45CC0E985B9
:10172200E03011F0E33009F402C0E73009F402C0FE
:10173200E83009F402C0E63009F402C0E93009F4E5
:1017420002C0EA3021F40A93E8890E94EB141F9345
:101752001F5FEE85AF91AE17B8F5A985A63061F48B
:1017620026DEE6DD0E940715FA93EA9320DEAE2F0D
:101772000E946114FEDD27C0E985E93011F450E0D2
:101782000EC0EA3011F45FEF0AC00E9407150E94F2
:1017920010155E2FE985E73011F0E83021F40E9440
:1017A20016155E2F06C0E33011F4509502C0E030EA
:1017B20021F4A52F0E94F11406C00E941A15EFEF22
:1017C200EA93AD85CEDEC3CFEF85E85FEF87ED8587
:1017D200E850ED87D1C05D8520E0E0E0ED877AC07A
:1017E200E32FAD85AE0FA93020F42D85E0E0ED8723
:1017F20003C0E8E0E31B2E2F3A93A22F0E940F149E
:101802004E2FE985E630F1F41F931F5FEE85AF910D
:10181200AE17B8F40E942015AE2FE32F0E94EE17E8
:101822000E942715E32FA42F0E94EE17E095E121D5
:101832005E2B0E940715FA93EA93A52F0E9461146A
:10184200E3CF2CC0E93011F450E003C0EA30A9F430
:101852005FEF0E941615AE2FE32F0E94E6175E2F50
:101862001F931F5FEE85AF91AE1730F40E941A15D9
:101872004A93A0E076DEF4CF11C01F931F5FEE857E
:10188200AF91AE1758F40E943215AE2FE32F0E948B
:10189200E617EA934A93AD8564DEEFCFED85E0303B
:1018A20009F473C0AD85A83028F4ED85E21B5E2FE4
:1018B200E0E003C0532FED85E850ED8710E0EF859F
:1018C200E85FEF87E8E0E31B2E2F0889EA85FB85B6
:1018D200EE83FF83E52FF0E0E05CF14F4491E98570
:1018E200E630F1F41F931F5FEE85AF91AE17B8F4A7
:1018F2000E942015AE2FE22F0E94E6170E942715A4
:10190200E22FA42F0E94E617E095E1215E2B0E94B0
:101912000715FA93EA93A52F0E946114E3CF2CC016
:10192200E93011F450E003C0EA30A9F45FEF0E94FD
:101932001615AE2FE22F0E94EE175E2F1F931F5F28
:10194200EE85AF91AE1730F40E941A154A93A0E0CB
:1019520008DEF4CF11C01F931F5FEE85AF91AE1763
:1019620058F40E943215AE2FE22F0E94EE17EA932E
:101972004A93AD85F6DDEFCFE885AA85BB85F0E019
:10198200EA0FFB1FEA87FB87B9CE0E94D218619645
:1019920008950E943F151CF0E0E0F0E026C0A88107
:1019A200B981A038E0E0BE071CF0EFE7F0E01DC00F
:1019B200E881F9811AC00E943F151CF0E0E0F0E0D6
:1019C20014C0A881B981A034E0E0BE071CF0EFE3A7
:1019D200F0E00BC0E881F98108C0AA93E981EA939B
:1019E200E981EA93A09169017FDD22960895AA9385
:1019F2001A93AA81A03818F4A981A03430F0E0E04B
:101A0200F0E060E070E018816AC1E981E7701E2FA2
:101A1200E981E695E695E695E983103011F0EF5FEE
:101A2200E983AA81BB2788279927E981FF276627AF
:101A320077270E941918EC5FFF4F6F4F7F4F188175
:101A42004EC10E9480140E9446158F01002E012A69
:101A520019F4E0E0F0E05FC00E944B150F820E9493
:101A62004B150E820E944B150886EB85A885EA1756
:101A720018F4E0E0F0E04FC0F8010F5F1F4F5491FF
:101A8200A885BB27EE27A50FBE1FEB85F0E0EA175E
:101A9200FB0718F0E0E0F0E03EC0EE81E695E69547
:101AA200E6954E2FEE81E77009F04F5FEF81E0304F
:101AB200A1F0A985BA85EC93A885EB85EA1BF0E035
:101AC200DF01EF81F0E00E941118DF01E42FF0E066
:101AD2000E941118E00FF11F1EC09801E52FF0E0DF
:101AE2000E0F1F1FA885AF5FA887A150EB85AE1709
:101AF20060F4F9012F5F3F4FA491B0E0E42FF0E0D2
:101B02000E9411180E0F1F1FEDCFF901E491A98554
:101B1200BA85EC93F8010E94D2182C960895E0E061
:101B2200E0936B01A0916C01BB270E944615319690
:101B3200E491F0E0AE0FBF1FE0917001F0E0AE0F54
:101B4200BF1F39DFE0936C010895AA9321970E9489
:101B5200CB180E944615309709F45DC0AF81AA30B8
:101B620009F455C0EF81EA93DE0117966ADFAF01EF
:101B7200309719F40E94D2183AC3E0916F01AE81F6
:101B8200EA0F3E2FA0916B01BB270E94501501382E
:101B9200E0E01E0718F0032F1127C1DFE0916B016F
:101BA200EA93E0916C01EA93E885EA930E94461574
:101BB2003196E491EA93E1E0EA935A934A93A7E0DB
:101BC2000BDDE0916B01AE81EA0FEA93E0916C01CB
:101BD200EA93E0916F01EA930E9446153196E491EF
:101BE2000E945515E0916B01EA93A0916C010E944D
:101BF20046153196E491EA0FEA933A93E091700127
:101C02000E945515E0E8F0E0E017F10721F487DFC4
:101C12000E94D218ECC200936B010E94D218E7C254
:101C2200BA93AA931A93EC81EA93AC815AD0A98110
:101C3200BA81ED91A983BA831E2FE03019F0A12F4A
:101C420084DFF5CF18810C941713AA930E94CD1844
:101C5200AC81A53018F5ED81FE8105910E945F15DA
:101C620015910E945F1525910E945F153591ED83B4
:101C7200FE83E885EA93E885EA930A932A93E1E0F2
:101C8200EA93EA85FB85FA93EA93AB85A5DC0A938E
:101C9200A22FADDE0E94D4180C940114E0E0F0E013
:101CA20060E070E00E94D4180C940114AA93EA81B7
:101CB200EA93EA81EA93E0917201AA81EA2319F098
:101CC200E091690102C0E0916A01AE2F0DDCE8816A
:101CD200EE0FE883E03011F4E1E0E883E881239637
:101CE2000895AA93A981BB2754DEE0936B01A881D2
:101CF200BB2761DEE0936C010C941814AA932B9716
:101D02000E94CB18AC89BB2744DEEC8BAA89BB2787
:101D120040DEEA8BAB89BB274EDEEB8BA989BB2762
:101D22004ADEE98BEA89E0936B01E989E0936C0171
:101D3200E1E0E887E989AB89EA1771F51C89AA898C
:101D42001A1731F41A93EC89EA93A1E0AFDFC8C005
:101D5200AA891A1730F4EA89E11B0E2F41E050E0FC
:101D620006C0AA89E12FEA1B0E2F4FEF5FEF3B89D6
:101D7200E0E0EE830E94621538F41A933A933395A9
:101D8200AA8594DFEF83F6CFEF81E887140FE02F67
:101D92000150E03061F7A4C0EA89AC89EA1739F54D
:101DA2003B89A9893A1730F4E989E31B2E2FE1E038
:101DB200F0E006C0A989E32FEA1B2E2FEFEFFFEF19
:101DC200ED87FE871C89E0E0EE830E94621530F405
:101DD2001A9313950E946A15EF83F7CFEF81E88774
:101DE200ED853E0FE22F2150E03061F779C0E0E04F
:101DF200EE830E94621508F073C01C893B89E1E002
:101E02002E2F0E2FAA89BB27EC89F0E0AE1BBF0B49
:101E1200AD0155232AF40FEFFA010E94DA17AF0140
:101E2200FA01EE0FFF1FEF87F88BA989BB27EB8919
:101E3200F0E0AE1BBF0BAD87BE87AE85AA233AF496
:101E42002FEFED85FE850E94DA17ED87FE87ED857F
:101E5200FE85EE0FFF1FEB87FC871A933A93A1E0F2
:101E620025DFE887E0E0E987EA87AD85BE854A1786
:101E72005B07BCF0100FEB85FC850E946E15A985EF
:101E8200BA854A175B072CF4320FAF85B8890E94D6
:101E920075151A930E946A15E887EA89E11751F7C6
:101EA20018C0320FEF85F8890E946E15ED85FE8508
:101EB200A985BA85EA17FB072CF4100FAB85BC8500
:101EC2000E9475151A930E946A15E887E989E3173B
:101ED20041F7EB89EF5FEB8BE989EF5FE98B89CF04
:101EE2000E94D218659608950E948014ED85E887B5
:101EF200E0917101EF83E0916901EE83AA89BB272A
:101F0200EF850E945015A989BB27E8890E947C159C
:101F1200E8890E94831571F0E885E078F1F4AD85D7
:101F2200BE85EAE5F0E00E948B151CF00E94941534
:101F32000CF413C0332312F00E949915AF81A23022
:101F420020F02230E0E03E070CF407C00E949D150D
:101F520021F40A93A22FA15040DDE885E878E83801
:101F620091F0E885E078C9F4AD85BE85A25FBE4FE9
:101F72000E94A6153CF0AD85BE85A25FBE4F0E94B1
:101F8200AB150CF40AC00E94B01538F00E94B715C8
:101F920021F40A93A42FAF5F20DDAA89BB27EF8526
:101FA200F0E0AE1BBF0B8D0111230AF445C0E8859A
:101FB200E278E23891F0E885E07811F5AD85BE85EA
:101FC200A65ABF4F0E94A6153CF0AD85BE85A65A03
:101FD200BF4F0E94AB150CF413C0332312F00E94C2
:101FE2009915AF81A23020F02230E0E03E070CF4D8
:101FF20007C00E949D1521F40A93A22FA150EDDC87
:10200200E885E478E43871F0E885E078A9F4AD85F4
:10201200BE85EEE0F1E00E948B151CF00E94941543
:102022000CF40AC00E94B01538F00E94B71521F4D2
:102032000A93A42FAF5FD1DCAA89BB27E8890E944B
:102042005015A989BB27EF850E947C15EF850E9458
:10205200831581F0E885E078F1F4EB85FC85AD85A8
:10206200BE85AE17BF072CF0E985FA85EA17FB0794
:102072000CF411C033237AF00E949915AF81A2307B
:1020820050F0E02FEE5F0E94C01529F4E02FEF5FC1
:10209200EA93A22FA2DCE885E878E83871F0E885B7
:1020A200E078C1F4AD85BE85E8E6F1E00E948B15CB
:1020B2001CF00E9494150CF40DC00E94B01550F053
:1020C200E02FEE5F0E94C81529F4E02FEF5FEA933C
:1020D200A42F83DCAA89BB27E889F0E0AE1BBF0BE3
:1020E2008D0111230AF450C0E885E278E23871F0DC
:1020F200E885E07809F5AD85BE85E4EBF0E00E9465
:102102008B151CF00E9494150CF416C03323A2F018
:102112000E949915AF81A23020F00230E0E01E0744
:102122000CF40AC0E02FE2500E94C01529F4E02FFF
:10213200E150EA93A22F51DCE885E478E43891F08B
:10214200E885E07809F5AD85BE85AC54BF4F0E94A5
:10215200A6153CF0AD85BE85AC54BF4F0E94AB15B1
:102162000CF412C00E94B01520F00230E0E01E070D
:102172000CF40AC0E02FE2500E94C81529F4E02FA7
:10218200E150EA93A42F29DC0E94D21863960895A5
:10219200AA930E94CD18AF81BB27ED81F0E0AE1B60
:1021A200BF0BF7DB1E2FAF81BB27ED81F0E0AE0F37
:1021B200BF1FEFDB0E2FAE81BB27EC81F0E0AE1B21
:1021C200BF0BF9DB3E2FAE81BB27EC81F0E0AE0FF7
:1021D200BF1FF1DB2E2F1A933A930A93A32F8EDDA2
:1021E2001A932A930A93A22F89DD0E94D418289663
:1021F2000895AA930E94CB18A985A03818F4A8853F
:10220200A03408F04FC050917101E52F5150E030D9
:1022120009F448C0EF81E03009F444C0EF81E15095
:10222200EF83EF5F0E2FF0E0A5E0B0E0AE1BBF0B37
:10223200FD010E94F8170E94FD179F0110E0AE8178
:10224200A03459F40E94D0151A93A02FA1DF0E9446
:10225200D0150A93A12F9CDF0FC00E94D0151A93AC
:102262000A93EA85F0E0FA93EA93E0E0F0E0FA9369
:10227200EA93A0E0B0E038DE1F5F33231AF4E12FC7
:10228200F0E008C00150A12FBB27E02FF0E0AE1B09
:10229200BF0BFD01EE0FFF1F31962E0F3F1F0117DF
:1022A20070F6B3CF0E94D2182A960895AA93EA81B3
:1022B200EA93EA81EA93EA81EA93AFE89ADF0C941F
:1022C2005F14BA93AA931A930A93AA81BB811296B6
:1022D2000E947718309759F1AA81BB8114960E9407
:1022E20077188F01309761F00230E0E01E0798F016
:1022F200F80131978F01AA81BB811496ED93FC936B
:10230200AA81BB811296ED91FD913196FE93EE93D7
:102312003197AC81A083AA81BB810E947718FF23E9
:102322002AF0ED91FD913196FE93EE9306C0AA81BB
:10233200BB81EFEFFFEFED93FC931981088176C12A
:10234200BA93AA9326970E94CB1810E0AC85BD855C
:10235200E0E0F0E0ED93FC93EA89FB893196EA8BA9
:10236200FB8B3197E4912E2FE03009F415C1E12F58
:10237200E03039F4253211F411E002C00E94D51583
:102382000AC1E130A9F4253219F40E94D51502C11F
:1023920012E040E000E02D3211F401E0FCC02B32EB
:1023A20011F44BE2F8C0203211F440E2F4C002C052
:1023B200E23039F450E013E0203311F40068EBC04E
:1023C20003C0E33009F0E7C0203310F02A3308F0ED
:1023D20007C0AAE05A9F502DE22FE0535E0FDBC0E8
:1023E200E22FE33649F40E94DC15E889F989A481D9
:1023F200AA930E94E215CEC0E33741F40E94DC1595
:102402000E94E8150E9419131E2F0AC0E03761F4DA
:102412000E94DC150E94E8150E9425131E2F0860F9
:1024220002600F7730E034C0E43611F0E93611F47F
:10243200046002C0E53731F4EAE4FEE0EE83FF8394
:1024420015E00CC0E83511F4086003C0E83709F064
:10245200A1C0E4E5FEE0EE83FF8314E002FF14C0B6
:102462000E94DC150E94F215AB85AA233AF4EA8594
:10247200FB850E94DA17EA87FB874DE2403011F0B4
:102482001F5F01C00B7F04C00E94DC150E94F21581
:1024920000FD11C0151778F407FF08C002FF04C041
:1024A2000B7F242F115001C020E301C020E20E94C3
:1024B200D5155150EFCF312F01FF17C03030A1F0A9
:1024C20003FF06C0EE81FF812591EE83FF8305C0E5
:1024D200AE81BF812D91AE83BF830E94D51550304E
:1024E20009F051503150EACF4BC020E3EE81FF8119
:1024F2000E947B18E887F987EE81FF813296EE838E
:10250200FF83E885F985AA85BB85AE17BF0750F022
:102512002F5FA885B985EA85FB85EA1BFB0BEA8755
:10252200FB87EFCF2A3328F003FF02C0295F01C0E7
:10253200295D04FD1AC0213320F4A885B9851197BD
:1025420009F409C0531710F000FF01C013C020E2C4
:1025520007FF0BC020E3006102FF07C00B7F4A9315
:102562000E94E215503009F051500E94D5155030AA
:1025720009F051503150A885B985129708F0B5CFAE
:1025820000FF08C0503031F05150E0E2EA930E945F
:10259200E215F8CF10E0E0CEAC85BD850E94771839
:1025A2000E94D21864960895FF92F82E26970E94F0
:1025B200CD180E94FA15309719F4EFEFFFEF23C000
:1025C200DE0116960E94D6178D010E94FA15EE833F
:1025D200FF83E0E0E887E987DE011A960E94D617BA
:1025E2000E947718FA93EA931A930A93E2E6F1E1CA
:1025F200FA93EA93DE011A96A3DE9F01AE81BF81B0
:10260200E0E0EC93F9010E94D4182A96FF90089515
:10261200BA93AA93B981A881109631F0FC81EB811B
:102622006A8161931197E9F7EB81FC812596089500
:10263200BA93AA93A991B991EE27FF276D916623C8
:1026420011F03196FBCF0895BA93AA93AA27BB271C
:10265200E991F9910590002011F01196FBCFFD014F
:1026620008950E9493187B816A81F981E88177FB42
:10267200770F67FD7160972F9E5781F078F0983140
:1026820090F4AA27BB27882708948795B795A79522
:102692009A95D1F7EA23FB23682305C0E8947727AC
:1026A200EE27FF2766276F77769508F4606877F93B
:1026B200A991B99189919991EA17FB07680779075E
:1026C20097FB08950E9401160E9432130E948918F6
:1026D20019F40E947F1811C1E6F70E947F18A0E04A
:1026E200B0E080E89FE30E94CC1607C10E949318D5
:1026F20024971A9310E00E940616E3E8F9EF62E2CB
:102702007EE30E9423170E940B16DCDF0E9406164E
:102712000E949D180E94CC160E940B16E0E0F0E089
:1027220060E07FE30E94B61709F008F409C00E9436
:102732001016A0E0B0E080E09FE30E94151611E0C1
:102742000E940616E0E0F0E060E87EE30E94B61721
:1027520009F008F408C00E940616E0E0F0E060E02C
:102762007FE30E941516103041F00E9410160E945D
:102772002D16ED83FE836F8378870E9410160E94C8
:1027820006160E942317E983FA836B837C83A1EBED
:10279200B4EC86E292E40E942317DF01CB01EDE163
:1027A200F5EE6DE272E40E949D180E94CC160E9422
:1027B2001C16ACE4B3E584E091E40E94D3160E94B7
:1027C20006160E9423177F936F93FF93EF93E9817D
:1027D200FA816B817C81A1E1BDEE8EED9FE30E94C7
:1027E200D3160E941C16AEE5BBE788EA9FE30E945F
:1027F200D316AF91BF918F919F910E94711718814B
:10280200299608950E940116EBEDFFE069EC7FE343
:102812000E94CC16DF01CB0169DF6FC0AA93E88169
:10282200F0E0E05CF14FA491E9810E94E617229664
:102832000895AA931A93E981E73011F0EA3019F466
:102842001091690109C0E93019F410916A0104C0BC
:10285200E830A1F410917901E0916A01E03049F089
:10286200103019F0EFEF188129C0EA81E095188144
:1028720025C0103019F4E0E0188120C0EA811881E7
:102882001DC0BA93AA93EA81E13021F4E881F9816B
:10289200E49114C0E23029F4A881B9810E94AA18F7
:1028A2000DC0E33041F4A881B981E0918201F09139
:1028B2008301099503C0A881B981EC9123960895FB
:1028C200AA93EB81E03029F4E881A981BA81EC93E3
:1028D20014C0E23031F4E881A981BA810E94B618AD
:1028E2000CC0E33051F4E981FA81FA93EA93AA81A8
:1028F200E0918401F0918501099524960895BA9397
:10290200AA9323970E94CB1808950E944F0AE0E0F1
:10291200EA93EA930895FA93EA93A0E00E94260EBE
:10292200ACEDB5E00C942316FF27662777270E94AB
:102932008E180895E09372011A930A93E12FF0E042
:102942000895AEE1EA9FF001DF010E945808DF011D
:10295200CB0108950E9407180E949A180895FADF81
:102962000E94D3160E946016EA93E02FF0E00895C9
:10297200F1DF0E9423170895EDDF0E949D180E9447
:10298200CC160E946016AE2F0C947F0EE985A6E04D
:10299200EA9FF001DF010E945808DF01CB01089590
:1029A200A6E0EA9FF001DF010E945808DF01CB0197
:1029B2000895F0E03196DF01ECE3F0E00E94511857
:1029C20008959198EFEFE4BBE881E5BB0E946B09A3
:1029D2000C946F09E695E695E695AE2F0C94AB093B
:1029E2000E94CF090C94BA09EA0FFB1FEE83FF8302
:1029F2000895EC85EA93EF81F8853196EF83F887A5
:102A02003197FA93EA93A0E00C946114EC85EA936F
:102A1200EF81F8853196EF83F8873197089566271D
:102A22007727DF01CB010C9442145A93AA850C94A8
:102A32001A140A930395E889EA935A9308950A931C
:102A42000395A8890E94E109E42308955E2FEC858D
:102A5200EA93AF81B885882799270E9442141E2ED7
:102A620008950A930395E889EA93EE85EA93E98546
:102A7200FA853196E987FA873197D1CFBA93AA932B
:102A8200A881B9810E94C7180895E0916D01F09163
:102A92006E010895F8010F5F1F4F04900895F0E052
:102AA200EA0FFB1F8F010895EA93E0E0EA93E0E06A
:102AB200F0E0FA93EA93A9E00C94ED0AED83FE8329
:102AC2000895AE81AF5FAE83A150E0917101AE1760
:102AD20008953A93AA850C94570EA985BA85EA0FF0
:102AE200FB1FE987FA870895E985FA85EA1BFB0B44
:102AF200E987FA870895F0E0AE1BBF0B9D01A98913
:102B0200BB270895F0E0EA0FFB1FAF01E885E178EB
:102B1200E1380895EA1BFB0B0F01DF01EB85FC8511
:102B2200AE17BF070895E985FA85E015F105089506
:102B32000A93A22F0C94EE0C0A93A22FA2500E9489
:102B4200990AAE2FEE81EA170895EB85FC85AE1740
:102B5200BF070895E985FA85EA17FB0708950A93E6
:102B6200A42F0E94EE0CAF81A23008950A93A42FE5
:102B7200AE5F0E94990AAE2FEE81EA170895EA939A
:102B8200A22F0E94990AAE2FEE81EA170895EA93C6
:102B9200A42F0E94990AAE2FEE81EA170895E985C3
:102BA200EA93E985EA9308952A93AD85BE85EF8578
:102BB200F88909950895E889F9893497E88BF98BA2
:102BC2000895AD85BE85EF85F88909950895A88990
:102BD200B98914960E947718EE83FF83AE81BF8174
:102BE2000895A889B98914960E947718EA87FB8705
:102BF2000895DE011C960E94D6170E947718089548
:102C02000E9493180E9484180895AD81BE818F811D
:102C120098850895ED83FE836F837887F6CFED81E3
:102C2200FE816F81788508950E94CC16ED83FE8324
:102C32006F8378870895A981BA818B819C810E94D4
:102C420023170895109639F080ED97E00197F1F778
:102C5200A8951197C9F7089530976040704009F020
:102C620070580895552342F4503811F4E0FF04C01F
:102C72003196691F791F6BF050E8572711F45F9363
:102C8200CFC05F3F31F0660F000C57956795752FE7
:102C920008955F9300200AF0CFC0C8C050E8192EF3
:102CA2001522880F991F9527550F879550E8072EF3
:102CB2000522660F771F7527550F6795089568944B
:102CC20001C0E8945F93F2DF703818F07F3F08F498
:102CD200A7C056E1571BAAF4519558300EF459304B
:102CE20030F0EFEFFFEF6FEF7FE777F91AC077274A
:102CF2005523B9F0EE0FFF1F661F771F5A95D1F7C4
:102D020010C07727583028F0EF2FF62F672F585032
:102D1200F9CF552331F076956795F795E7955A9552
:102D2200D1F700200AF449D15F910895689401C057
:102D3200E894309760407040B1F0002426F0772389
:102D420012F400943AD1172E7EE1112032F07A95D6
:102D5200EE0FFF1F661F111CF9CFEF2FF62F612D0B
:102D62005F938ADF5F9108954F93AF01FD01DA010E
:102D7200AB01BC01CA01402D012C142E4F910895C4
:102D8200EA0FFB1F681F0895E095F0956095EF5FCD
:102D9200FF4F6F4F08955F9381DF903871F150E8D4
:102DA200152604C05F937ADF903839F1703821F12B
:102DB200572F591B2BF112F4D7DFFACF583118F0E5
:102DC200AA27BB278827583028F0AB2FB82F88278F
:102DD2005850F9CF552329F08695B795A7955A955E
:102DE200D9F7502D512572F0CBDF38F46795F7955E
:102DF200E795739513F420C0B7DF3EDF5F91089526
:102E0200D8F7FBCFEA1BFB0B680B51F010F40094D0
:102E1200BBDF662392F3EE0FFF1F661F7A95CBF797
:102E2200EE27FF27662777275F910895EFEFFFEFE1
:102E32006FE77FEF5F910895EFEFFFEF6FE77FE7B7
:102E42005F9108955F932ADF703851F3903841F310
:102E520001240894791F23F41CF300203AF3ECCFE9
:102E62000F921F932F933F934F9311272227992756
:102E7200689FA0018F9F302D410D591F6B9F300D10
:102E8200411D591F8E9F27D0BF9F25D06A9F23D0F7
:102E9200BE9F1DD0AF9F1BD0AE9F110D291F391FA2
:102EA200491F591FE32FF42F652F522F4F913F9146
:102EB2002F911F910F9066232AF0550FEE1FFF1FCF
:102EC200661F02C073954BF2CDDE5F910895100D1F
:102ED200211D391F02C0200D311D491F591F0895A0
:102EE2005F93DCDE703821F411200AF49FCFA4CF67
:102EF200903809F495CF01240894970B1BF4D4F36E
:102F02000020F3CF792F1F932F933F934F931124D8
:102F12001127222733274427552790E2AE17BF07F0
:102F22008607410730F0AE1BBF0B860B410B08949E
:102F320001C08894551F221F331F111CAA1FBB1FDB
:102F4200881F441F9A9551F7F901612D4F913F91C6
:102F52002F911F91662332F0550FEE1FFF1F661F40
:102F62007A9543F27FDE5F91089599239AF0772351
:102F720042F0971748F029F4AE17BF07860720F0F2
:102F820031F0989488940895989408940895189428
:102F9200889408957723C2F7971798F3A9F7EA1749
:102FA200FB07680788F399F3ECCF0024AF0DB01D3F
:102FB2000895F195E195F0400895F095609570952A
:102FC200E195FF4F6F4F7F4F0895EE230E2EEA2FAC
:102FD20019F0EE0F0A94E9F70895EE230E2EEA2F68
:102FE20019F0E6950A94E9F70895EE0FFF1FEE0F28
:102FF200FF1FEE0FFF1F0895F595E795F595E795ED
:1030020008956F2F660F660B762F08958B2F880F0A
:10301200880B982F0895EF2BE1E009F0E0E0089586
:10302200FA9FF02DEB9FF00DEA9FE02DF10D089530
:103032007A9F702D6B9F700DF89F700DE99F700D38
:103042006A9F602D710DFB9F600D711DE89F600DE1
:10305200711D8827FA9FF02D610D781FEB9FF00DEF
:10306200611D781FEA9FE02DF10D681F781F0895FA
:103072000024112490E1AA0FBB1F001C111C0E1A80
:103082001F0A18F40E0E1F1E01C0A1609A9599F72F
:10309200FD01D00108951CD0EBDF0EF48ADF089504
:1030A200E894B7FF04C0A095B09511966894F7FD17
:1030B20080DFDEDFFD010EF47CDF0895E894F7FF88
:1030C20002C077DF6894EA23FB230EF472DF0895CF
:1030D200E894F7FF02C06DDF6894B7FF06C0A095C1
:1030E200B095119600F8039400FA0895ED91FC91C1
:1030F200119708950590F491E02D0895E881F981E2
:103102006A817B810895A881B9818A819B81089512
:10311200E883F9836A837B8308957A936A93FA93A7
:10312200EA9308959A938A93BA93AA930895689416
:1031320001C0E89401D0FDDD182E862F612D192ED5
:10314200972F712D1B2EBF2FF12D1A2EAE2FE12D91
:103152000895E199FECFFF93FFB7F894AEBBBFBBD2
:10316200E09AEDB3FFBFFF910895E19B02C0A895DD
:10317200FCCF9FB7F894AEBBBFBBE09A8DB3E81704
:1031820019F0EDBBE29AE19A9FBF089500240A1656
:103192000B0608955A934A933A932A931A930A93E1
:1031A20008955D814C813B812A81198108810895AE
:00000001FF
