:0A0000000C9450000C9400000C94C6
:10000A0000000C9400000C9400000C9400000C9466
:10001A0000000C9400000C9400000C9400000C9456
:10002A0000000C9400000C9400000C9400000C9446
:10003A0003010C9400000C9400000C9400000C9432
:10004A0000000C9400000C9400001027E8036400E0
:10005A000A00010000100001100001000000000069
:10006A0041444325643D2534640041444325643DAD
:10007A002534640080C001002D4E414E00494E4691
:10008A0000000300050066000200E6017E00010090
:10009A00EA0180000000F894EE27ECBBF1E0FBBF18
:1000AA00EBBFE5BF8DE0A2E0BB27ED938A95E9F7A8
:1000BA0080E094E0A0E6ED930197E9F7ECE8F0E040
:1000CA0085919591009761F0A591B591059015904C
:1000DA00BF01F00105900D920197E1F7FB01F0CF06
:1000EA00EFE5EDBFE4E0EEBFC0E6D1E00C947D00A1
:1000FA00EF97A59710E07AD07894A8EEB3E00E9423
:10010A001105A0916201B09163010E947F01AE2F97
:10011A000E946801A0916401B09165010E94BD012D
:10012A00A0916601B0916701E5E00E94C106DF0176
:10013A000E940402A12F0E943101E0E0EA93E12F1C
:10014A00F0E0A1E0B0E00E94E806AE2F0E94610252
:10015A00FE01FA93EA93EAE6F0E0FA93EA93E12FD2
:10016A00FF27662777270E94FA06E12F0E94990443
:10017A00662777270E94FA0688E00E944C042C968C
:10018A00DE010E948F021F5F183008F010E0A12FD5
:10019A00BB27E2E0F0E00E94DA06309721F4A4EFF0
:1001AA00B1E00E941105ADCFFFCFE0E0EABBEBBBA7
:1001BA00EFEFE7BBE0E0E8BBEFEFE4BBE0E0E5BB75
:1001CA00EFEFE1BBE0E0E2BB0895E5E6E3BFE0E084
:1001DA00E2BFEAE1ECBF0895E0E0E9BF0895E0E498
:1001EA00E7B9EEEEE6B9E0E0E0BF0895DEDFEDDF65
:1001FA00F3DFF5DFA0E10E94A00208958A93AA9393
:10020A00BA93EA93FA93EFB7EA93E091E401A0E68E
:10021A00B1E0F0E0EE0FFF1FAE0FBF1FE4B1F5B182
:10022A00ED93FC93A091E401AF5FA093E401A830A1
:10023A0018F0E0E0E093E401E091E401E05CE7B962
:10024A008BE18A95F1F7369AE991EFBFF991E99135
:10025A00B991A99189911895AA930E940107EC81F5
:10026A00F0E03196A7E0B0E00E94E806A0E6B1E02F
:10027A00EE0FFF1FAE0FBF1F0E94F206A5E0B0E00F
:10028A000E94B9068F01EC810E9499049F01D8014E
:10029A00A21BB30B7ED1A4E6B0E00E94B906DF012F
:1002AA00F9010E94C706369750F0EC81A0E7B1E049
:1002BA00F0E0EE0FFF1FEA0FFB1F008311830E947D
:1002CA0008070C941603AA93E881F0E00E94B4068A
:1002DA000E948105A0E0B0E080E290E40E9404065A
:1002EA00A0E0B0E080E89FE30E94B4050E944805C0
:1002FA00ECBF4DC1BA93AA93E881F98166277727A3
:10030A000E948105DF01CB01E0E0F0EC6FE774E4C5
:10031A000E945206A0E0B0E084EB92E40E94040638
:10032A00A0E0B0E080EA90E40E94B4050E9448058B
:10033A00CEC0AA93A881A13051F4E52DF0E0E7FDE3
:10034A00FFEF3196A3E0B0E00E94E80605C05A9498
:10035A00E0E05E1614F4E3E05E2EE8B3EF701E2EC2
:10036A00E52DEC5FA1E00E94A706E129E8BB0FC1D9
:10037A00BA93AA930E94FF06AE81BF81A030E1E042
:10038A00BE0718F4EE81FF8104C0EE81FF810E944E
:10039A00AF06E058F0409F01E619F7098F011123D3
:1003AA0012F4EFEF01C0E1E05E2F0E94A304002ED9
:1003BA00012AE9F0E2B3EF71EF7EE2BB002E012AD7
:1003CA00A9F00E94A304A52FB4DFA8ECB0E00E9414
:1003DA001105E52FF0E0E7FDFFEF6E0E7F1EA52F5A
:1003EA00B0E0A7FDBFEF0A1B1B0BE8CF3901E2B350
:1003FA00EF71E061E2BB0E94060728960895BA935E
:10040A00AA93A881B981A83EE3E0BE0768F4E09107
:10041A00E501E03021F0E2B3EF71E06403C0E2B33A
:10042A00EF71E062E2BB16C0A881B981A03AEFE0A1
:10043A00BE0720F4E2B3EF71E0640BC0E091E5017E
:10044A00E03021F0E2B3EF71E06403C0E2B3EF7190
:10045A00E068E2BBE091E501E03021F4A8ECB0E00D
:10046A000E941105E091E501E03011F0E0E001C0E1
:10047A00E1E0E093E5012BC0AA93E5B3EF70AE2F5C
:10048A00E881E07FEA2BE5BB8DE08A95F1F7AA9A2D
:10049A008DE08A95F1F7AA988DE08A95F1F777C0F1
:1004AA00AA93A881E9DFE881E295E883A881E4DFDD
:1004BA0085E88A95F1F76BC0AA93E881F0E0EA51E2
:1004CA00FE4FE081A981AE0FEBDF4980988022962A
:1004DA000895A2E00E94D704ACE0E2DFA1E00E9406
:1004EA00D704E0E09E2E4E2E0895AA93A881AA3042
:1004FA0011F0481448F0E0E0EA939394A92DDCDF68
:10050A00A881AA3009F443C04394A89AA881C8DFF5
:10051A00A8983DC0BA93AA931A93A981BA81ED917A
:10052A00A983BA831E2FE03019F0A12FDEDFF5CFA1
:10053A00188123960895AA93E4B3E06FE4BBA29AC4
:10054A00A09AA19AAA98A898A9988880E881E058C0
:10055A00E093E801E881E054E093E901A4E1B0E026
:10056A000E9411050E94DD040E94DD040E94DD0440
:10057A00A0E282DF88EC90E00197F1F7A8E290DF31
:10058A00A4E08EDFA5E88CDFA6E08ADFA2DF219651
:10059A000895BA93AA93E991F99130971AF4E095DC
:1005AA00F09531960895BA93AA931A930A93AA8159
:1005BA00BB8112960E94F206309759F1AA81BB813B
:1005CA0014960E94F2068F01309761F00230E0E043
:1005DA001E0798F0F80131978F01AA81BB81149602
:1005EA00ED93FC93AA81BB811296ED91FD91319610
:1005FA00FE93EE933197AC81A083AA81BB810E94BE
:10060A00F206FF232AF0ED91FD913196FE93EE93C7
:10061A0006C0AA81BB81EFEFFFEFED93FC9319812E
:10062A00088125960895BA93AA9326970E94FF06F1
:10063A0010E0AC85BD85E0E0F0E0ED93FC93EA893B
:10064A00FB893196EA8BFB8B3197E4912E2FE030B0
:10065A0009F415C1E12FE03039F4253211F411E023
:10066A0002C00E94E5040AC1E130A9F4253219F456
:10067A000E94E50402C112E040E000E02D3211F4CC
:10068A0001E0FCC02B3211F44BE2F8C0203211F425
:10069A0040E2F4C002C0E23039F450E013E0203303
:1006AA0011F40068EBC003C0E33009F0E7C020335F
:1006BA0010F02A3308F007C0AAE05A9F502DE22F03
:1006CA00E0535E0FDBC0E22FE33649F40E94EC04EC
:1006DA00E889F989A481AA930E94F204CEC0E3377B
:1006EA0041F40E94EC040E94F8040E9480041E2F28
:1006FA000AC0E03761F40E94EC040E94F8040E94E8
:10070A008C041E2F086002600F7730E034C0E43694
:10071A0011F0E93611F4046002C0E53731F4E4E57A
:10072A00F0E0EE83FF8315E00CC0E83511F40860B1
:10073A0003C0E83709F0A1C0EEE5F0E0EE83FF83DD
:10074A0014E002FF14C00E94EC040E940205AB856B
:10075A00AA233AF4EA85FB850E949B06EA87FB876F
:10076A004DE2403011F01F5F01C00B7F04C00E94B0
:10077A00EC040E94020500FD11C0151778F407FF6A
:10078A0008C002FF04C00B7F242F115001C020E3D0
:10079A0001C020E20E94E5045150EFCF312F01FF42
:1007AA0017C03030A1F003FF06C0EE81FF8125910A
:1007BA00EE83FF8305C0AE81BF812D91AE83BF83D7
:1007CA000E94E504503009F051503150EACF4BC035
:1007DA0020E3EE81FF810E94F606E887F987EE8121
:1007EA00FF813296EE83FF83E885F985AA85BB856A
:1007FA00AE17BF0750F02F5FA885B985EA85FB853C
:10080A00EA1BFB0BEA87FB87EFCF2A3328F003FFAB
:10081A0002C0295F01C0295D04FD1AC0213320F4FA
:10082A00A885B985119709F409C0531710F000FF7C
:10083A0001C013C020E207FF0BC020E3006102FFE2
:10084A0007C00B7F4A930E94F204503009F05150BE
:10085A000E94E504503009F051503150A885B985FD
:10086A00129708F0B5CF00FF08C0503031F0515050
:10087A00E0E2EA930E94F204F8CF10E0E0CEAC8501
:10088A00BD850E94F2060E94060764960895FF92AB
:10089A00F82E26970E9401070E940A05309719F43C
:1008AA00EFEFFFEF23C0DE0116960E9497068D0137
:1008BA000E940A05EE83FF83E0E0E887E987DE010C
:1008CA001A960E9497060E94F206FA93EA931A93DE
:1008DA000A93E8EDF2E0FA93EA93DE011A96A3DEB0
:1008EA009F01AE81BF81E0E0EC93F9010E94080705
:1008FA002A96FF900895BA93AA93A991B991EE27DF
:10090A00FF276D91662311F03196FBCF0895BA93B4
:10091A00AA93AA27BB27E991F9910590002011F023
:10092A001196FBCFFD010895A0E7B1E0F0E0EE0FCC
:10093A00FF1FAE0FBF1F0E94F2060895E9E0EA9377
:10094A00A0E00E946102E0E8F1E0FA93EA93EAE7A4
:10095A00F0E0FA93EA93F3010E94B4060E94FA06C1
:10096A0084E00E944C042896A0E8B1E00E948F021D
:10097A00E9E0EA93A1E00E946102E0E8F1E0FA937B
:10098A00EA93EAE7F0E0FA93EA93F8010E94B406E0
:10099A000E94FA0684E00E944C042896A0E8B1E07E
:1009AA000C948F020E945502A3E0B0E00C9411054A
:1009BA00A0E30E94410288EC90E00197F1F70895C4
:1009CA002A93AD85BE85EF85F88909950895E8894A
:1009DA00F9893497E88BF98B0895AD85BE85EF8543
:1009EA00F88909950895A889B98914960E94F2068A
:1009FA00EE83FF83AE81BF810895A889B9891496D1
:100A0A000E94F206EA87FB870895DE011C960E947F
:100A1A0097060E94F2060895109639F080ED97E045
:100A2A000197F1F7A8951197C9F70895552342F44C
:100A3A00503811F4E0FF04C03196691F791F6BF03A
:100A4A0050E8572711F45F93C8C05F3F31F0660F33
:100A5A00000C57956795752F08955F9300200AF04B
:100A6A00C8C0C1C050E8192E1522880F991F9527B2
:100A7A00550F879550E8072E0522660F771F7527B1
:100A8A00550F67950895689401C0E8945F93F2DF63
:100A9A00703818F07F3F08F4A0C056E1571BAAF43B
:100AAA00519558300EF4593030F0EFEFFFEF6FEFF9
:100ABA007FE777F91AC077275523B9F0EE0FFF1FA2
:100ACA00661F771F5A95D1F710C07727583028F03C
:100ADA00EF2FF62F672F5850F9CF552331F076951F
:100AEA006795F795E7955A95D1F700200AF422D130
:100AFA005F910895689401C0E8943097604070400F
:100B0A00B1F0002426F0772312F4009413D1172EA3
:100B1A007EE1112032F07A95EE0FFF1F661F111C3D
:100B2A00F9CFEF2FF62F612D5F938ADF5F9108953A
:100B3A004F93AF01FD01DA01AB01BC01CA01402D9F
:100B4A00012C142E4F910895EA0FFB1F681F089578
:100B5A00E095F0956095EF5FFF4F6F4F08955F93B3
:100B6A0081DF903839F1703821F1572F591B2BF159
:100B7A0012F4DEDFFACF583118F0AA27BB278827EC
:100B8A00583028F0AB2FB82F88275850F9CF552363
:100B9A0029F08695B795A7955A95D9F7502D5125DD
:100BAA0072F0D2DF38F46795F795E795739513F4E9
:100BBA0020C0BEDF45DF5F910895D8F7FBCFEA1B5F
:100BCA00FB0B680B51F010F40094C2DF662392F31A
:100BDA00EE0FFF1F661F7A95CBF7EE27FF276627D2
:100BEA0077275F910895EFEFFFEF6FE77FEF5F9150
:100BFA000895EFEFFFEF6FE77FE75F9108955F9347
:100C0A0031DF703851F3903841F301240894791F89
:100C1A0023F41CF300203AF3ECCF0F921F932F9387
:100C2A003F934F93112722279927689FA0018F9FEF
:100C3A00302D410D591F6B9F300D411D591F8E9F3D
:100C4A0027D0BF9F25D06A9F23D0BE9F1DD0AF9FBC
:100C5A001BD0AE9F110D291F391F491F591FE32FA2
:100C6A00F42F652F522F4F913F912F911F910F9083
:100C7A0066232AF0550FEE1FFF1F661F02C07395E9
:100C8A004BF2D4DE5F910895100D211D391F02C069
:100C9A00200D311D491F591F08955F93E3DE7038F7
:100CAA0021F411200AF49FCFA4CF903809F495CFEC
:100CBA0001240894970B1BF4D4F30020F3CF792F67
:100CCA001F932F933F934F931124112722273327E2
:100CDA004427552790E2AE17BF078607410730F031
:100CEA00AE1BBF0B860B410B089401C08894551F9D
:100CFA00221F331F111CAA1FBB1F881F441F9A954E
:100D0A0051F7F901612D4F913F912F911F91662360
:100D1A0032F0550FEE1FFF1F661F7A9543F286DEEB
:100D2A005F9108950024AF0DB01D0895F195E195E6
:100D3A00F0400895F09560957095E195FF4F6F4FDB
:100D4A007F4F0895EE230E2EEA2F19F0EE0F0A9424
:100D5A00E9F70895F695E795F695E79508956F2FC3
:100D6A00660F660B762F0895FA9FF02DEB9FF00D14
:100D7A00EA9FE02DF10D08956E2F6A9FF0016B9F97
:100D8A00F00D08950024112490E1AA0FBB1F001C46
:100D9A00111C0E1A1F0A18F40E0E1F1E01C0A160A4
:100DAA009A9599F7FD01D0010895E894B7FF04C018
:100DBA00A095B09511966894F7FDB8DFE3DFFD01C1
:100DCA000EF4B4DF0895E894F7FF02C0AFDF689429
:100DDA00EA23FB230EF4AADF0895ED91FC91119703
:100DEA0008950590F491E02D08957A936A93FA9301
:100DFA00EA9308955A934A933A932A931A930A9331
:100E0A0008955D814C813B812A8119810881089569
:00000001FF
