:0E0000000C943D000C9400000C9400000C9435
:10000E0000000C9400000C9400000C9400000C9462
:10001E0000000C9400000C9400000C9400000C9452
:10002E0000000C9400000C9400000C9400000C9442
:10003E0000000C9400000C9400000C9400000C9432
:10004E0000000C9400003F065B4F666D7D077F6FCE
:10005E00000001002D4E414E00494E4600000100A9
:10006E0005005E000100600160000000F894EE27BC
:10007E00ECBBF1E0FBBFEBBFE5BF8DE0A2E0BB2721
:10008E00ED938A95E9F780E094E0A0E6ED93019771
:10009E00E9F7ECE6F0E085919591009761F0A59176
:1000AE00B59105901590BF01F00105900D92019745
:1000BE00E1F7FB01F0CFEFE5EDBFE4E0EEBFC0E608
:1000CE00D1E00C942801AA931A9310E0E9811E172F
:1000DE0050F4EFEFE8BB0E943801E0E0E8BB0E946D
:1000EE0038011F5FF3CF1881229608951A9310E0FE
:1000FE00193058F4E12FA1E00E946101E8BBA7E797
:10010E00B1E00E9453011F5FF3CF17C0E9B3E8BB04
:10011E00A4E6B0E00E94530108951A93E2B3E07F83
:10012E00E2BB19E010303CF0E12F0E943C010E942E
:10013E0038011150F7CFE0E0E5BB19910895AA936D
:10014E00A981EA81EA1BEA83AA81A0301CF4E88126
:10015E00EA0FEA83EA81239608950E949D0139B33E
:10016E003515B9F0A32FB0E0E4E6F0E00E944201AD
:10017E004E2EA32FB0E0EAE0F0E00E9442017E2E68
:10018E00A32FBB27EAE0F0E00E9481016E2E992496
:10019E00532E10E0173008F047C000E00A3010F57B
:1001AE00EEE0E2BBE42D0E943C010E944A01EDE02C
:1001BE00E2BBE72D0E943C010E944A01EBE0E2BB4C
:1001CE00E62DF0E0EC5AFF4FE491E068E5BB0E94AB
:1001DE004A01E7E0E2BBE92D0E943C010E944A0180
:1001EE000F5FDCCFE72DE429E629E929E9F0E62DBA
:1001FE00E729E92921F44A920E944E014E2EE92D5B
:10020E00E62921F47A920E944E017E2E992021F445
:10021E006A920E944E016E2E9A92E2E0EA93AAE052
:10022E008EDF9E2E1F5FB6CF0E94A20124960895E8
:10023E00879B4424869B7724859B6624849B9924E4
:10024E000895E0E0EABBEFEFE7BBE4BBEFE0E1BB14
:10025E00A4E039DF4BDF61DF59DF7FDFE9DFFCCF61
:10026E00FFCFA4EFB1E00C945301F0E0EC5AFF4F36
:10027E00049005BA08950E947C01DF01EAE0F0E0E7
:10028E000E9481010895AAE0B0E00C945301E1E0D0
:10029E00EA93AAE00C94A600109639F080ED97E050
:1002AE000197F1F7A8951197C9F70895F195E19582
:1002BE00F0400895EE230E2EEA2F19F0EE0F0A9459
:1002CE00E9F708950024112490E1AA0FBB1F001C2A
:1002DE00111C0E1A1F0A18F40E0E1F1E01C0A1606B
:1002EE009A9599F7FD01D001089512D0EBDF0EF427
:1002FE00DDDF0895E894B7FF04C0A095B095119680
:10030E006894F7FDD3DFDEDFFD010EF4CFDF089535
:10031E00E894F7FF02C0CADF6894B7FF06C0A09545
:10032E00B095119600F8039400FA08953A932A9323
:10033E001A930A9308953B812A81198108810895A1
:00000001FF
